{
  "contractName": "LowFeeAssets",
  "abi": [
    {
      "inputs": [
        {
          "internalType": "address",
          "name": "",
          "type": "address"
        },
        {
          "internalType": "uint256",
          "name": "",
          "type": "uint256"
        }
      ],
      "name": "_assets",
      "outputs": [
        {
          "internalType": "contract LowFeeCampaign",
          "name": "",
          "type": "address"
        }
      ],
      "stateMutability": "view",
      "type": "function",
      "constant": true
    },
    {
      "inputs": [],
      "name": "getMyAssetsLength",
      "outputs": [
        {
          "internalType": "uint256",
          "name": "",
          "type": "uint256"
        }
      ],
      "stateMutability": "view",
      "type": "function",
      "constant": true
    },
    {
      "inputs": [
        {
          "internalType": "uint256",
          "name": "index",
          "type": "uint256"
        }
      ],
      "name": "getMyAsset",
      "outputs": [
        {
          "internalType": "contract LowFeeCampaign",
          "name": "",
          "type": "address"
        }
      ],
      "stateMutability": "view",
      "type": "function",
      "constant": true
    },
    {
      "inputs": [
        {
          "internalType": "contract LowFeeCampaign",
          "name": "campaign",
          "type": "address"
        }
      ],
      "name": "buyNewAssetFromCampaign",
      "outputs": [],
      "stateMutability": "payable",
      "type": "function",
      "payable": true
    }
  ],
  "bytecode": "0x6080604052600080546001600160a01b0319167374fda6b5e26ccc53f50a5cb841c877a875b8b57017905534801561003657600080fd5b50610468806100466000396000f3fe60806040526004361061003f5760003560e01c806311eb6c3c146100445780631764f5d41461007a578063724f60381461009a578063d8346add146100af575b600080fd5b34801561005057600080fd5b5061006461005f366004610374565b6100d1565b604051610071919061038c565b60405180910390f35b34801561008657600080fd5b50610064610095366004610326565b61011b565b6100ad6100a8366004610351565b610153565b005b3480156100bb57600080fd5b506100c4610313565b60405161007191906103ea565b33600090815260016020526040812080548390811061010057634e487b7160e01b600052603260045260246000fd5b6000918252602090912001546001600160a01b031692915050565b6001602052816000526040600020818154811061013757600080fd5b6000918252602090912001546001600160a01b03169150829050565b6000341161017c5760405162461bcd60e51b8152600401610173906103a0565b60405180910390fd5b60405163f088d54760e01b81526001600160a01b0382169063f088d5479034906101aa90339060040161038c565b6000604051808303818588803b1580156101c357600080fd5b505af11580156101d7573d6000803e3d6000fd5b50505050506000805b336000908152600160205260409020548110156102c45733600090815260016020526040902080546001600160a01b03851691908390811061023257634e487b7160e01b600052603260045260246000fd5b6000918252602090912001546001600160a01b031614156102b25733600090815260016020526040902080548491908390811061027f57634e487b7160e01b600052603260045260246000fd5b9060005260206000200160006101000a8154816001600160a01b0302191690836001600160a01b03160217905550600191505b806102bc816103f3565b9150506101e0565b508061030f57336000908152600160208181526040832080549283018155835290912001805473ffffffffffffffffffffffffffffffffffffffff19166001600160a01b0384161790555b5050565b3360009081526001602052604090205490565b60008060408385031215610338578182fd5b82356103438161041a565b946020939093013593505050565b600060208284031215610362578081fd5b813561036d8161041a565b9392505050565b600060208284031215610385578081fd5b5035919050565b6001600160a01b0391909116815260200190565b6020808252602a908201527f596f75206e65656420746f20616464207468652076616c756520796f752077616040820152696e7420746f206275792160b01b606082015260800190565b90815260200190565b600060001982141561041357634e487b7160e01b81526011600452602481fd5b5060010190565b6001600160a01b038116811461042f57600080fd5b5056fea2646970667358221220cc3e487a51fdd1aa2cfb14437fb45da60c8e41a86e5a6230494a01b08a34e92e64736f6c63430008000033",
  "immutableReferences": {},
  "source": "//SPDX-License-Identifier: UNLICENSED\r\npragma solidity ^0.8.0;\r\n\r\nimport \"@openzeppelin/contracts/token/ERC20/ERC20.sol\";\r\nimport \"./LowFeeCampaign.sol\";\r\n\r\ncontract LowFeeAssets {\r\n\r\n    address private entityOwner = 0x74fDA6B5e26ccC53f50a5cb841c877A875B8B570;\r\n\r\n    mapping(address => LowFeeCampaign[]) public _assets;\r\n\r\n    function getMyAssetsLength() public view returns(uint){\r\n        return _assets[address(msg.sender)].length;\r\n    }\r\n    function getMyAsset(uint index) public view returns(LowFeeCampaign){\r\n        return _assets[address(msg.sender)][index];\r\n    }\r\n    function buyNewAssetFromCampaign(LowFeeCampaign campaign) payable external {\r\n        require(msg.value > 0, \"You need to add the value you want to buy!\");\r\n        campaign.buy{value: msg.value}(msg.sender);\r\n        bool found = false;\r\n        for (uint i=0; i < _assets[msg.sender].length; i++) {\r\n            if(address(_assets[msg.sender][i]) == address(campaign)){\r\n                _assets[msg.sender][i] = campaign;\r\n                found = true;\r\n            }\r\n        }\r\n        if(!found){\r\n            _assets[msg.sender].push(campaign);\r\n        }\r\n    }\r\n\r\n}\r\n",
  "sourcePath": "D:\\Projetos\\zeroFee\\Platform\\contracts\\LowFeeAssets.sol",
  "compiler": {
    "name": "solc",
    "version": "0.8.0+commit.c7dfd78e.Emscripten.clang"
  },
  "schemaVersion": "3.4.4",
  "updatedAt": "2022-01-11T00:16:31.575Z",
  "networkType": "ethereum",
  "devdoc": {
    "kind": "dev",
    "methods": {},
    "version": 1
  },
  "userdoc": {
    "kind": "user",
    "methods": {},
    "version": 1
  }
}