{
  "contractName": "LowFeeCampaign",
  "abi": [
    {
      "inputs": [
        {
          "components": [
            {
              "internalType": "string",
              "name": "title",
              "type": "string"
            },
            {
              "internalType": "string",
              "name": "quickDescription",
              "type": "string"
            },
            {
              "internalType": "string",
              "name": "descriptionUrl",
              "type": "string"
            },
            {
              "internalType": "string",
              "name": "logoUrl",
              "type": "string"
            },
            {
              "internalType": "string",
              "name": "coverUrl",
              "type": "string"
            },
            {
              "internalType": "string",
              "name": "auditUrl",
              "type": "string"
            },
            {
              "internalType": "uint256",
              "name": "coinRate",
              "type": "uint256"
            },
            {
              "internalType": "uint256",
              "name": "goal",
              "type": "uint256"
            },
            {
              "internalType": "uint256",
              "name": "startDate",
              "type": "uint256"
            },
            {
              "internalType": "uint256",
              "name": "endDate",
              "type": "uint256"
            },
            {
              "internalType": "string",
              "name": "social_facebook_url",
              "type": "string"
            },
            {
              "internalType": "string",
              "name": "social_twitter_url",
              "type": "string"
            },
            {
              "internalType": "string",
              "name": "social_discord_url",
              "type": "string"
            },
            {
              "internalType": "string",
              "name": "social_telegram_url",
              "type": "string"
            },
            {
              "internalType": "string",
              "name": "website_url",
              "type": "string"
            },
            {
              "internalType": "string",
              "name": "whitepaper_url",
              "type": "string"
            }
          ],
          "internalType": "struct UsingSharedStructs.Campaign",
          "name": "campaign",
          "type": "tuple"
        },
        {
          "internalType": "address",
          "name": "owner",
          "type": "address"
        },
        {
          "internalType": "contract IERC20",
          "name": "token",
          "type": "address"
        }
      ],
      "stateMutability": "nonpayable",
      "type": "constructor"
    },
    {
      "inputs": [],
      "name": "_auditUrl",
      "outputs": [
        {
          "internalType": "string",
          "name": "",
          "type": "string"
        }
      ],
      "stateMutability": "view",
      "type": "function"
    },
    {
      "inputs": [],
      "name": "_coinRate",
      "outputs": [
        {
          "internalType": "uint256",
          "name": "",
          "type": "uint256"
        }
      ],
      "stateMutability": "view",
      "type": "function"
    },
    {
      "inputs": [],
      "name": "_coverUrl",
      "outputs": [
        {
          "internalType": "string",
          "name": "",
          "type": "string"
        }
      ],
      "stateMutability": "view",
      "type": "function"
    },
    {
      "inputs": [],
      "name": "_descriptionUrl",
      "outputs": [
        {
          "internalType": "string",
          "name": "",
          "type": "string"
        }
      ],
      "stateMutability": "view",
      "type": "function"
    },
    {
      "inputs": [],
      "name": "_endDate",
      "outputs": [
        {
          "internalType": "uint256",
          "name": "",
          "type": "uint256"
        }
      ],
      "stateMutability": "view",
      "type": "function"
    },
    {
      "inputs": [],
      "name": "_endVestingDate",
      "outputs": [
        {
          "internalType": "uint256",
          "name": "",
          "type": "uint256"
        }
      ],
      "stateMutability": "view",
      "type": "function"
    },
    {
      "inputs": [],
      "name": "_goal",
      "outputs": [
        {
          "internalType": "uint256",
          "name": "",
          "type": "uint256"
        }
      ],
      "stateMutability": "view",
      "type": "function"
    },
    {
      "inputs": [
        {
          "internalType": "uint256",
          "name": "",
          "type": "uint256"
        }
      ],
      "name": "_investmentsHistory",
      "outputs": [
        {
          "internalType": "uint256",
          "name": "",
          "type": "uint256"
        }
      ],
      "stateMutability": "view",
      "type": "function"
    },
    {
      "inputs": [],
      "name": "_logoUrl",
      "outputs": [
        {
          "internalType": "string",
          "name": "",
          "type": "string"
        }
      ],
      "stateMutability": "view",
      "type": "function"
    },
    {
      "inputs": [],
      "name": "_offerSupply",
      "outputs": [
        {
          "internalType": "uint256",
          "name": "",
          "type": "uint256"
        }
      ],
      "stateMutability": "view",
      "type": "function"
    },
    {
      "inputs": [],
      "name": "_owner",
      "outputs": [
        {
          "internalType": "address",
          "name": "",
          "type": "address"
        }
      ],
      "stateMutability": "view",
      "type": "function"
    },
    {
      "inputs": [],
      "name": "_quickDescription",
      "outputs": [
        {
          "internalType": "string",
          "name": "",
          "type": "string"
        }
      ],
      "stateMutability": "view",
      "type": "function"
    },
    {
      "inputs": [],
      "name": "_reviewNote",
      "outputs": [
        {
          "internalType": "string",
          "name": "",
          "type": "string"
        }
      ],
      "stateMutability": "view",
      "type": "function"
    },
    {
      "inputs": [],
      "name": "_score",
      "outputs": [
        {
          "internalType": "uint256",
          "name": "",
          "type": "uint256"
        }
      ],
      "stateMutability": "view",
      "type": "function"
    },
    {
      "inputs": [],
      "name": "_social_discord_url",
      "outputs": [
        {
          "internalType": "string",
          "name": "",
          "type": "string"
        }
      ],
      "stateMutability": "view",
      "type": "function"
    },
    {
      "inputs": [],
      "name": "_social_facebook_url",
      "outputs": [
        {
          "internalType": "string",
          "name": "",
          "type": "string"
        }
      ],
      "stateMutability": "view",
      "type": "function"
    },
    {
      "inputs": [],
      "name": "_social_telegram_url",
      "outputs": [
        {
          "internalType": "string",
          "name": "",
          "type": "string"
        }
      ],
      "stateMutability": "view",
      "type": "function"
    },
    {
      "inputs": [],
      "name": "_social_twitter_url",
      "outputs": [
        {
          "internalType": "string",
          "name": "",
          "type": "string"
        }
      ],
      "stateMutability": "view",
      "type": "function"
    },
    {
      "inputs": [],
      "name": "_startDate",
      "outputs": [
        {
          "internalType": "uint256",
          "name": "",
          "type": "uint256"
        }
      ],
      "stateMutability": "view",
      "type": "function"
    },
    {
      "inputs": [],
      "name": "_status",
      "outputs": [
        {
          "internalType": "enum LowFeeCampaign.CampaignStatus",
          "name": "",
          "type": "uint8"
        }
      ],
      "stateMutability": "view",
      "type": "function"
    },
    {
      "inputs": [],
      "name": "_title",
      "outputs": [
        {
          "internalType": "string",
          "name": "",
          "type": "string"
        }
      ],
      "stateMutability": "view",
      "type": "function"
    },
    {
      "inputs": [],
      "name": "_token",
      "outputs": [
        {
          "internalType": "contract IERC20",
          "name": "",
          "type": "address"
        }
      ],
      "stateMutability": "view",
      "type": "function"
    },
    {
      "inputs": [],
      "name": "_totalInvested",
      "outputs": [
        {
          "internalType": "uint256",
          "name": "",
          "type": "uint256"
        }
      ],
      "stateMutability": "view",
      "type": "function"
    },
    {
      "inputs": [],
      "name": "_website_url",
      "outputs": [
        {
          "internalType": "string",
          "name": "",
          "type": "string"
        }
      ],
      "stateMutability": "view",
      "type": "function"
    },
    {
      "inputs": [],
      "name": "_whitepaper_url",
      "outputs": [
        {
          "internalType": "string",
          "name": "",
          "type": "string"
        }
      ],
      "stateMutability": "view",
      "type": "function"
    },
    {
      "inputs": [
        {
          "internalType": "uint256",
          "name": "periodInDays",
          "type": "uint256"
        }
      ],
      "name": "setupVesting",
      "outputs": [],
      "stateMutability": "nonpayable",
      "type": "function"
    },
    {
      "inputs": [],
      "name": "checkTokens",
      "outputs": [],
      "stateMutability": "nonpayable",
      "type": "function"
    },
    {
      "inputs": [],
      "name": "submitToReview",
      "outputs": [],
      "stateMutability": "nonpayable",
      "type": "function"
    },
    {
      "inputs": [
        {
          "internalType": "uint256",
          "name": "score",
          "type": "uint256"
        },
        {
          "internalType": "bool",
          "name": "approved",
          "type": "bool"
        },
        {
          "internalType": "string",
          "name": "reviewNote",
          "type": "string"
        },
        {
          "internalType": "bool",
          "name": "signed",
          "type": "bool"
        }
      ],
      "name": "review",
      "outputs": [],
      "stateMutability": "nonpayable",
      "type": "function"
    },
    {
      "inputs": [
        {
          "internalType": "address",
          "name": "buyer",
          "type": "address"
        }
      ],
      "name": "buy",
      "outputs": [],
      "stateMutability": "payable",
      "type": "function"
    },
    {
      "inputs": [
        {
          "internalType": "address",
          "name": "account",
          "type": "address"
        }
      ],
      "name": "balanceOf",
      "outputs": [
        {
          "internalType": "uint256",
          "name": "",
          "type": "uint256"
        }
      ],
      "stateMutability": "view",
      "type": "function"
    },
    {
      "inputs": [],
      "name": "claimTokens",
      "outputs": [
        {
          "internalType": "bool",
          "name": "",
          "type": "bool"
        }
      ],
      "stateMutability": "nonpayable",
      "type": "function"
    },
    {
      "inputs": [],
      "name": "getLengthOfInvestments",
      "outputs": [
        {
          "internalType": "uint256",
          "name": "",
          "type": "uint256"
        }
      ],
      "stateMutability": "view",
      "type": "function"
    },
    {
      "inputs": [
        {
          "internalType": "uint256",
          "name": "index",
          "type": "uint256"
        }
      ],
      "name": "getInvestment",
      "outputs": [
        {
          "internalType": "uint256",
          "name": "",
          "type": "uint256"
        }
      ],
      "stateMutability": "view",
      "type": "function"
    }
  ],
  "bytecode": "0x6080604052601980546001600160a01b0319167374fda6b5e26ccc53f50a5cb841c877a875b8b5701790553480156200003757600080fd5b50604051620019e9380380620019e98339810160408190526200005a916200035d565b82518051620000729160009160209091019062000209565b5060208084015180516200008b92600192019062000209565b5060408301518051620000a79160029160209091019062000209565b5060608301518051620000c39160039160209091019062000209565b5060808301518051620000df9160049160209091019062000209565b5060a08301518051620000fb9160059160209091019062000209565b5060c083015160065560e083015160075561010083015160085561012083015160095561014083015180516200013a91600b9160209091019062000209565b5061018083015180516200015791600d9160209091019062000209565b5061016083015180516200017491600c9160209091019062000209565b506101a083015180516200019191600e9160209091019062000209565b506101c08301518051620001ae91600f9160209091019062000209565b506101e08301518051620001cb9160109160209091019062000209565b50601880546001600160a01b039384166001600160a01b03199182161790915560168054929093169116179055506013805460ff1916905562000653565b828054620002179062000600565b90600052602060002090601f0160209004810192826200023b576000855562000286565b82601f106200025657805160ff191683800117855562000286565b8280016001018555821562000286579182015b828111156200028657825182559160200191906001019062000269565b506200029492915062000298565b5090565b5b8082111562000294576000815560010162000299565b80516001600160a01b0381168114620002c757600080fd5b919050565b600082601f830112620002dd578081fd5b81516001600160401b03811115620002f957620002f96200063d565b60206200030f601f8301601f19168201620005d4565b828152858284870101111562000323578384fd5b835b838110156200034257858101830151828201840152820162000325565b838111156200035357848385840101525b5095945050505050565b60008060006060848603121562000372578283fd5b83516001600160401b038082111562000389578485fd5b8186019150610200808389031215620003a0578586fd5b620003ab81620005d4565b9050825182811115620003bc578687fd5b620003ca89828601620002cc565b825250602083015182811115620003df578687fd5b620003ed89828601620002cc565b60208301525060408301518281111562000405578687fd5b6200041389828601620002cc565b6040830152506060830151828111156200042b578687fd5b6200043989828601620002cc565b60608301525060808301518281111562000451578687fd5b6200045f89828601620002cc565b60808301525060a08301518281111562000477578687fd5b6200048589828601620002cc565b60a08301525060c083015160c082015260e083015160e08201526101008084015181830152506101208084015181830152506101408084015183811115620004cb578788fd5b620004d98a828701620002cc565b8284015250506101608084015183811115620004f3578788fd5b620005018a828701620002cc565b82840152505061018080840151838111156200051b578788fd5b620005298a828701620002cc565b8284015250506101a0808401518381111562000543578788fd5b620005518a828701620002cc565b8284015250506101c080840151838111156200056b578788fd5b620005798a828701620002cc565b8284015250506101e0808401518381111562000593578788fd5b620005a18a828701620002cc565b828401525050809550505050620005bb60208501620002af565b9150620005cb60408501620002af565b90509250925092565b6040518181016001600160401b0381118282101715620005f857620005f86200063d565b604052919050565b6002810460018216806200061557607f821691505b602082108114156200063757634e487b7160e01b600052602260045260246000fd5b50919050565b634e487b7160e01b600052604160045260246000fd5b61138680620006636000396000f3fe6080604052600436106101f85760003560e01c806376477f361161010d578063b8ab1cfd116100a0578063ecd0c0c31161006f578063ecd0c0c3146104e1578063f088d547146104f6578063f0a2194d14610509578063f861b16e1461051e578063fba939f814610533576101f8565b8063b8ab1cfd14610482578063d1b26f9f146104a2578063dac8eac7146104b7578063dbfa5863146104cc576101f8565b8063a01eda8f116100dc578063a01eda8f14610421578063a4fcfaa814610436578063ac8daba01461044b578063b2bdfa7b14610460576101f8565b806376477f36146103cd578063771c21f0146103e25780638b2c9dd4146103f757806398543f9c1461040c576101f8565b80633dd4160e116101905780635a66f41a1161015f5780635a66f41a146103595780636cf9b78b1461036e5780636df35f24146103835780636e0527d91461039857806370a08231146103ad576101f8565b80633dd4160e146102ed57806348c54b9d1461030d5780634a390e7a1461032f5780634b18017b14610344576101f8565b806325eec050116101cc57806325eec0501461028a5780632653667e1461029f57806330358f42146102b657806335de76fa146102d8576101f8565b8062e44b47146101fd5780630fb3844c146102335780631ce301dc1461025557806322ae634f1461026a575b600080fd5b34801561020957600080fd5b5061021d610218366004610e2c565b610548565b60405161022a9190611261565b60405180910390f35b34801561023f57600080fd5b50610248610569565b60405161022a9190610f62565b34801561026157600080fd5b5061021d610572565b34801561027657600080fd5b5061021d610285366004610e2c565b610578565b34801561029657600080fd5b5061021d6105ae565b3480156102ab57600080fd5b506102b46105b4565b005b3480156102c257600080fd5b506102cb6105da565b60405161022a9190610f8a565b3480156102e457600080fd5b5061021d610668565b3480156102f957600080fd5b506102b4610308366004610e2c565b61066e565b34801561031957600080fd5b50610322610743565b60405161022a9190610f57565b34801561033b57600080fd5b506102cb610856565b34801561035057600080fd5b506102cb610863565b34801561036557600080fd5b506102cb610870565b34801561037a57600080fd5b506102cb61087d565b34801561038f57600080fd5b506102cb61088a565b3480156103a457600080fd5b506102cb610897565b3480156103b957600080fd5b5061021d6103c8366004610de2565b6108a4565b3480156103d957600080fd5b506102cb6108bf565b3480156103ee57600080fd5b506102b46108cc565b34801561040357600080fd5b506102cb610ac6565b34801561041857600080fd5b506102cb610ad3565b34801561042d57600080fd5b5061021d610ae0565b34801561044257600080fd5b5061021d610ae6565b34801561045757600080fd5b5061021d610aec565b34801561046c57600080fd5b50610475610af2565b60405161022a9190610f2a565b34801561048e57600080fd5b506102b461049d366004610e5c565b610b01565b3480156104ae57600080fd5b506102cb610ba9565b3480156104c357600080fd5b506102cb610bb6565b3480156104d857600080fd5b5061021d610bc3565b3480156104ed57600080fd5b50610475610bc9565b6102b4610504366004610de2565b610bd8565b34801561051557600080fd5b5061021d610d25565b34801561052a57600080fd5b506102cb610d2b565b34801561053f57600080fd5b5061021d610d38565b6011818154811061055857600080fd5b600091825260209091200154905081565b60135460ff1681565b60065481565b60006011828154811061059b57634e487b7160e01b600052603260045260246000fd5b906000526020600020015490505b919050565b60115490565b6018546001600160a01b031633146105cb57600080fd5b6013805460ff19166003179055565b600380546105e7906112d8565b80601f0160208091040260200160405190810160405280929190818152602001828054610613906112d8565b80156106605780601f1061063557610100808354040283529160200191610660565b820191906000526020600020905b81548152906001019060200180831161064357829003601f168201915b505050505081565b60125481565b6018546001600160a01b0316331461068557600080fd5b601e8110156106af5760405162461bcd60e51b81526004016106a69061113b565b60405180910390fd5b61016d8111156106d15760405162461bcd60e51b81526004016106a690611204565b600060135460ff1660068111156106f857634e487b7160e01b600052602160045260246000fd5b146107155760405162461bcd60e51b81526004016106a6906110f6565b610723816305265c006112a2565b600954610730919061126a565b601755506013805460ff19166001179055565b6000600460135460ff16600681111561076c57634e487b7160e01b600052602160045260246000fd5b146107895760405162461bcd60e51b81526004016106a690610fdd565b336000908152601a60205260409020546107b55760405162461bcd60e51b81526004016106a690611014565b336000818152601a60205260408082208054929055601654905163a9059cbb60e01b815291926001600160a01b039091169163a9059cbb916107fb918590600401610f3e565b602060405180830381600087803b15801561081557600080fd5b505af1158015610829573d6000803e3d6000fd5b505050506040513d601f19601f8201168201806040525081019061084d9190610e10565b50600191505090565b600b80546105e7906112d8565b600580546105e7906112d8565b601480546105e7906112d8565b600e80546105e7906112d8565b600480546105e7906112d8565b600c80546105e7906112d8565b6001600160a01b03166000908152601a602052604090205490565b600f80546105e7906112d8565b6018546001600160a01b031633146108e357600080fd5b6016546040516370a0823160e01b81526000916001600160a01b0316906370a0823190610914903090600401610f2a565b60206040518083038186803b15801561092c57600080fd5b505afa158015610940573d6000803e3d6000fd5b505050506040513d601f19601f820116820180604052508101906109649190610e44565b9050600160135460ff16600681111561098d57634e487b7160e01b600052602160045260246000fd5b146109aa5760405162461bcd60e51b81526004016106a690611071565b670de0b6b3a76400008110156109d25760405162461bcd60e51b81526004016106a6906110b2565b60006103e86109e28360056112a2565b6109ec9190611282565b6109f690836112c1565b905060006103e8610a088460056112a2565b610a129190611282565b60165460195460405163a9059cbb60e01b81529293506001600160a01b039182169263a9059cbb92610a4a9216908590600401610f3e565b602060405180830381600087803b158015610a6457600080fd5b505af1158015610a78573d6000803e3d6000fd5b505050506040513d601f19601f82011682018060405250810190610a9c9190610e10565b508160156000828254610aaf919061126a565b90915550506013805460ff19166002179055505050565b600280546105e7906112d8565b600180546105e7906112d8565b600a5481565b60175481565b60085481565b6018546001600160a01b031681565b6019546001600160a01b03163314610b1857600080fd5b600a8490558215610b35576013805460ff19166004179055610b43565b6013805460ff191660051790555b8151610b56906014906020850190610d3e565b508015610ba3576040805180820190915260108082527f5349474e45445f42595f4c4f57464545000000000000000000000000000000006020909201918252610ba191600591610d3e565b505b50505050565b600080546105e7906112d8565b600d80546105e7906112d8565b60095481565b6016546001600160a01b031681565b6016546040516370a0823160e01b815234916000916001600160a01b03909116906370a0823190610c0d903090600401610f2a565b60206040518083038186803b158015610c2557600080fd5b505afa158015610c39573d6000803e3d6000fd5b505050506040513d601f19601f82011682018060405250810190610c5d9190610e44565b905060008211610c7f5760405162461bcd60e51b81526004016106a6906111cd565b8060065483610c8e9190611282565b1115610cac5760405162461bcd60e51b81526004016106a690611198565b600654610cb99083611282565b6001600160a01b0384166000908152601a602052604081208054909190610ce190849061126a565b9091555050600654601190610cf69084611282565b8154600181018355600092835260208320015560128054849290610d1b90849061126a565b9091555050505050565b60155481565b601080546105e7906112d8565b60075481565b828054610d4a906112d8565b90600052602060002090601f016020900481019282610d6c5760008555610db2565b82601f10610d8557805160ff1916838001178555610db2565b82800160010185558215610db2579182015b82811115610db2578251825591602001919060010190610d97565b50610dbe929150610dc2565b5090565b5b80821115610dbe5760008155600101610dc3565b80356105a98161133f565b600060208284031215610df3578081fd5b81356001600160a01b0381168114610e09578182fd5b9392505050565b600060208284031215610e21578081fd5b8151610e098161133f565b600060208284031215610e3d578081fd5b5035919050565b600060208284031215610e55578081fd5b5051919050565b60008060008060808587031215610e71578283fd5b84359350602080860135610e848161133f565b9350604086013567ffffffffffffffff80821115610ea0578485fd5b818801915088601f830112610eb3578485fd5b813581811115610ec557610ec5611329565b604051601f8201601f1916810185018381118282101715610ee857610ee8611329565b60405281815283820185018b1015610efe578687fd5b818585018683013790810190930194909452509150610f1f60608601610dd7565b905092959194509250565b6001600160a01b0391909116815260200190565b6001600160a01b03929092168252602082015260400190565b901515815260200190565b6020810160078310610f8457634e487b7160e01b600052602160045260246000fd5b91905290565b6000602080835283518082850152825b81811015610fb657858101830151858201604001528201610f9a565b81811115610fc75783604083870101525b50601f01601f1916929092016040019392505050565b60208082526015908201527f43616d706169676e206e6f7420617070726f7665640000000000000000000000604082015260600190565b6020808252603a908201527f5468657265206973206e6f20746f6b656e7320617661696c61626c6520746f2060408201527f77697468647261772066726f6d20746869732061646472657373000000000000606082015260800190565b60208082526021908201527f596f752063616e2774206368616e67652074686520746f6b656e206f666665726040820152602160f81b606082015260800190565b60208082526024908201527f596f752063616e2774206f66666572206c657373207468616e206f6e6520746f6040820152636b656e2160e01b606082015260800190565b60208082526025908201527f596f752063616e2774206368616e6765207468652076657374696e6720616e796040820152646d6f72652160d81b606082015260800190565b6020808252602f908201527f5468652076657374696e6720706572696f64206e6565647320746f206265206160408201527f74206c6561737420333020646179730000000000000000000000000000000000606082015260800190565b6020808252818101527f4e6f7420656e6f75676820746f6b656e7320696e207468652072657365727665604082015260600190565b6020808252601b908201527f596f75206e65656420746f2073656e6420736f6d652065746865720000000000604082015260600190565b60208082526037908201527f5468652076657374696e6720706572696f64206e6565647320746f206265206160408201527f7420736d616c6c6572207468616e203336352064617973000000000000000000606082015260800190565b90815260200190565b6000821982111561127d5761127d611313565b500190565b60008261129d57634e487b7160e01b81526012600452602481fd5b500490565b60008160001904831182151516156112bc576112bc611313565b500290565b6000828210156112d3576112d3611313565b500390565b6002810460018216806112ec57607f821691505b6020821081141561130d57634e487b7160e01b600052602260045260246000fd5b50919050565b634e487b7160e01b600052601160045260246000fd5b634e487b7160e01b600052604160045260246000fd5b801515811461134d57600080fd5b5056fea2646970667358221220abfea99ca8a8dd2bb723e4587092568a255f50090d8d31b269a282ea9bae7fa264736f6c63430008000033",
  "immutableReferences": {},
  "source": "//SPDX-License-Identifier: UNLICENSED\r\npragma solidity ^0.8.0;\r\n\r\nimport \"@openzeppelin/contracts/token/ERC20/IERC20.sol\";\r\nimport \"@openzeppelin/contracts/token/ERC20/ERC20.sol\";\r\nimport \"./SharedStructs.sol\";\r\n\r\ncontract LowFeeCampaign is UsingSharedStructs{\r\n\r\n    string public _title;\r\n    string public _quickDescription;\r\n    string public _descriptionUrl;\r\n    string public _logoUrl;\r\n    string public _coverUrl;\r\n    string public _auditUrl;\r\n    uint256 public _coinRate;\r\n    uint256 public _goal;\r\n    uint256 public _startDate;\r\n    uint256 public _endDate;\r\n    uint256 public _score;\r\n\r\n    string public _social_facebook_url;\r\n    string public _social_twitter_url;\r\n    string public _social_discord_url;\r\n    string public _social_telegram_url;\r\n    string public _website_url;\r\n    string public _whitepaper_url;\r\n\r\n    uint256[] public _investmentsHistory;\r\n    uint256 public _totalInvested;\r\n\r\n    enum CampaignStatus { WAITING_VESTING_SETUP, WAITING_TOKEN_TRANSFER, WAITING_REVIEW_REQUEST, REVIEW_IN_PROGRESS, APPROVED, DENIED, SHUTDOWN }\r\n\r\n    CampaignStatus public _status;\r\n\r\n    string public _reviewNote;\r\n\r\n    uint256 public _offerSupply;\r\n\r\n    IERC20 public _token;\r\n\r\n    //Vesting\r\n    uint256 public _endVestingDate;\r\n\r\n    address public _owner;\r\n    address private _zeroFeeAddress = 0x74fDA6B5e26ccC53f50a5cb841c877A875B8B570;\r\n\r\n    modifier onlyOwner {\r\n        require(address(msg.sender) == _owner);\r\n        _;\r\n    }\r\n    modifier onlyLowFee {\r\n        require(address(msg.sender) == _zeroFeeAddress);\r\n        _;\r\n    }\r\n\r\n    mapping (address => uint256) private _balances;\r\n\r\n    constructor(Campaign memory campaign, address owner, IERC20 token) {\r\n        _title = campaign.title;\r\n        _quickDescription = campaign.quickDescription;\r\n        _descriptionUrl = campaign.descriptionUrl;\r\n        _logoUrl = campaign.logoUrl;\r\n        _coverUrl = campaign.coverUrl;\r\n        _auditUrl = campaign.auditUrl;\r\n        _coinRate = campaign.coinRate;\r\n        _goal = campaign.goal;\r\n        _startDate = campaign.startDate;\r\n        _endDate = campaign.endDate;\r\n        _social_facebook_url = campaign.social_facebook_url;\r\n        _social_discord_url = campaign.social_discord_url;\r\n        _social_twitter_url = campaign.social_twitter_url;\r\n        _social_telegram_url = campaign.social_telegram_url;\r\n        _website_url = campaign.website_url;\r\n        _whitepaper_url = campaign.whitepaper_url;\r\n        _owner = owner;\r\n        _token = token;\r\n        _status = CampaignStatus.WAITING_VESTING_SETUP;\r\n    }\r\n\r\n    function setupVesting(uint256 periodInDays) onlyOwner public {\r\n        require(periodInDays >= 30, \"The vesting period needs to be at least 30 days\");\r\n        require(periodInDays <= 365, \"The vesting period needs to be at smaller than 365 days\");\r\n        require(_status == CampaignStatus.WAITING_VESTING_SETUP, \"You can't change the vesting anymore!\");\r\n        _endVestingDate = _endDate + (periodInDays*86400000);\r\n        _status = CampaignStatus.WAITING_TOKEN_TRANSFER;\r\n    }\r\n\r\n    function checkTokens() onlyOwner public {\r\n        uint256 amount = _token.balanceOf(address(this));\r\n        require(_status == CampaignStatus.WAITING_TOKEN_TRANSFER, \"You can't change the token offer!\");\r\n        require(amount >= (10**18), \"You can't offer less than one token!\");\r\n        uint256 publicOffer = amount-(amount*5/1000);\r\n        uint256 fee = amount*5/1000;\r\n\r\n        _token.transfer(_zeroFeeAddress, fee);\r\n\r\n        _offerSupply += publicOffer;\r\n\r\n        _status = CampaignStatus.WAITING_REVIEW_REQUEST;\r\n    }\r\n\r\n    function submitToReview() onlyOwner public {\r\n        _status = CampaignStatus.REVIEW_IN_PROGRESS;\r\n    }\r\n\r\n    function review(uint score, bool approved, string memory reviewNote, bool signed) onlyLowFee public {\r\n        _score = score;\r\n        if(approved){\r\n            _status = CampaignStatus.APPROVED;\r\n        }else{\r\n            _status = CampaignStatus.DENIED;\r\n        }\r\n        _reviewNote = reviewNote;\r\n        if(signed){\r\n            _auditUrl = \"SIGNED_BY_LOWFEE\";\r\n        }\r\n    }\r\n\r\n    function buy(address buyer) payable external {\r\n        uint256 amountToBuy = msg.value;\r\n        uint256 dexBalance = _token.balanceOf(address(this));\r\n        require(amountToBuy > 0, \"You need to send some ether\");\r\n        require((amountToBuy/_coinRate) <= dexBalance, \"Not enough tokens in the reserve\");\r\n        _balances[buyer] += amountToBuy/_coinRate;\r\n        _investmentsHistory.push(amountToBuy/_coinRate);\r\n        _totalInvested += amountToBuy;\r\n    }\r\n\r\n    function balanceOf(address account) external view returns (uint256) {\r\n        return _balances[account];\r\n    }\r\n\r\n    function claimTokens() external returns (bool) {\r\n        require(_status == CampaignStatus.APPROVED, \"Campaign not approved\");\r\n        require(_balances[address(msg.sender)] > 0, \"There is no tokens available to withdraw from this address\");\r\n        //require(_endVestingDate > block.timestamp, \"Locked by vesting\"); TODO\r\n        uint amount = _balances[address(msg.sender)];\r\n        _balances[address(msg.sender)] = 0;\r\n        _token.transfer(address(msg.sender), amount);\r\n\r\n        return true;\r\n    }\r\n\r\n    function getLengthOfInvestments() external view returns (uint){\r\n        return _investmentsHistory.length;\r\n    }\r\n    function getInvestment(uint index) public view returns(uint256){\r\n        return _investmentsHistory[index];\r\n    }\r\n}",
  "sourcePath": "D:\\Projetos\\zeroFee\\Platform\\contracts\\LowFeeCampaign.sol",
  "compiler": {
    "name": "solc",
    "version": "0.8.0+commit.c7dfd78e.Emscripten.clang"
  },
  "schemaVersion": "3.4.4",
  "updatedAt": "2022-01-11T00:16:17.446Z",
  "devdoc": {
    "kind": "dev",
    "methods": {},
    "version": 1
  },
  "userdoc": {
    "kind": "user",
    "methods": {},
    "version": 1
  }
}