{
  "contractName": "LowFee",
  "abi": [
    {
      "inputs": [
        {
          "internalType": "address",
          "name": "",
          "type": "address"
        },
        {
          "internalType": "uint256",
          "name": "",
          "type": "uint256"
        }
      ],
      "name": "_campaigns",
      "outputs": [
        {
          "internalType": "contract LowFeeCampaign",
          "name": "",
          "type": "address"
        }
      ],
      "stateMutability": "view",
      "type": "function",
      "constant": true
    },
    {
      "inputs": [
        {
          "internalType": "address",
          "name": "",
          "type": "address"
        },
        {
          "internalType": "uint256",
          "name": "",
          "type": "uint256"
        }
      ],
      "name": "_launchedTokens",
      "outputs": [
        {
          "internalType": "contract LFToken",
          "name": "",
          "type": "address"
        }
      ],
      "stateMutability": "view",
      "type": "function",
      "constant": true
    },
    {
      "inputs": [
        {
          "internalType": "uint256",
          "name": "",
          "type": "uint256"
        }
      ],
      "name": "campaigns",
      "outputs": [
        {
          "internalType": "contract LowFeeCampaign",
          "name": "",
          "type": "address"
        }
      ],
      "stateMutability": "view",
      "type": "function",
      "constant": true
    },
    {
      "inputs": [
        {
          "internalType": "uint256",
          "name": "",
          "type": "uint256"
        }
      ],
      "name": "launchedTokens",
      "outputs": [
        {
          "internalType": "contract LFToken",
          "name": "",
          "type": "address"
        }
      ],
      "stateMutability": "view",
      "type": "function",
      "constant": true
    },
    {
      "inputs": [
        {
          "internalType": "string",
          "name": "name",
          "type": "string"
        },
        {
          "internalType": "string",
          "name": "symbol",
          "type": "string"
        },
        {
          "internalType": "uint256",
          "name": "initialSupply",
          "type": "uint256"
        },
        {
          "internalType": "uint256",
          "name": "decimals",
          "type": "uint256"
        }
      ],
      "name": "buyNewToken",
      "outputs": [],
      "stateMutability": "payable",
      "type": "function",
      "payable": true
    },
    {
      "inputs": [],
      "name": "getMyLaunchedTokensLength",
      "outputs": [
        {
          "internalType": "uint256",
          "name": "",
          "type": "uint256"
        }
      ],
      "stateMutability": "view",
      "type": "function",
      "constant": true
    },
    {
      "inputs": [
        {
          "internalType": "uint256",
          "name": "index",
          "type": "uint256"
        }
      ],
      "name": "getMyLaunchedToken",
      "outputs": [
        {
          "internalType": "contract LFToken",
          "name": "",
          "type": "address"
        }
      ],
      "stateMutability": "view",
      "type": "function",
      "constant": true
    },
    {
      "inputs": [
        {
          "components": [
            {
              "internalType": "string",
              "name": "title",
              "type": "string"
            },
            {
              "internalType": "string",
              "name": "quickDescription",
              "type": "string"
            },
            {
              "internalType": "string",
              "name": "descriptionUrl",
              "type": "string"
            },
            {
              "internalType": "string",
              "name": "logoUrl",
              "type": "string"
            },
            {
              "internalType": "string",
              "name": "coverUrl",
              "type": "string"
            },
            {
              "internalType": "string",
              "name": "auditUrl",
              "type": "string"
            },
            {
              "internalType": "uint256",
              "name": "coinRate",
              "type": "uint256"
            },
            {
              "internalType": "uint256",
              "name": "goal",
              "type": "uint256"
            },
            {
              "internalType": "uint256",
              "name": "startDate",
              "type": "uint256"
            },
            {
              "internalType": "uint256",
              "name": "endDate",
              "type": "uint256"
            },
            {
              "internalType": "string",
              "name": "social_facebook_url",
              "type": "string"
            },
            {
              "internalType": "string",
              "name": "social_twitter_url",
              "type": "string"
            },
            {
              "internalType": "string",
              "name": "social_discord_url",
              "type": "string"
            },
            {
              "internalType": "string",
              "name": "social_telegram_url",
              "type": "string"
            },
            {
              "internalType": "string",
              "name": "website_url",
              "type": "string"
            },
            {
              "internalType": "string",
              "name": "whitepaper_url",
              "type": "string"
            }
          ],
          "internalType": "struct UsingSharedStructs.Campaign",
          "name": "campaign",
          "type": "tuple"
        },
        {
          "internalType": "contract IERC20",
          "name": "token",
          "type": "address"
        }
      ],
      "name": "launchNewCampaign",
      "outputs": [],
      "stateMutability": "payable",
      "type": "function",
      "payable": true
    },
    {
      "inputs": [],
      "name": "getMyCampaignsLength",
      "outputs": [
        {
          "internalType": "uint256",
          "name": "",
          "type": "uint256"
        }
      ],
      "stateMutability": "view",
      "type": "function",
      "constant": true
    },
    {
      "inputs": [
        {
          "internalType": "uint256",
          "name": "index",
          "type": "uint256"
        }
      ],
      "name": "getMyCampaign",
      "outputs": [
        {
          "internalType": "contract LowFeeCampaign",
          "name": "",
          "type": "address"
        }
      ],
      "stateMutability": "view",
      "type": "function",
      "constant": true
    },
    {
      "inputs": [],
      "name": "withdrawAll",
      "outputs": [],
      "stateMutability": "payable",
      "type": "function",
      "payable": true
    },
    {
      "inputs": [
        {
          "internalType": "uint256",
          "name": "newFee",
          "type": "uint256"
        }
      ],
      "name": "changeFee",
      "outputs": [],
      "stateMutability": "nonpayable",
      "type": "function"
    },
    {
      "inputs": [],
      "name": "getCampaignsLength",
      "outputs": [
        {
          "internalType": "uint256",
          "name": "",
          "type": "uint256"
        }
      ],
      "stateMutability": "view",
      "type": "function",
      "constant": true
    },
    {
      "inputs": [
        {
          "internalType": "uint256",
          "name": "index",
          "type": "uint256"
        }
      ],
      "name": "getCampaign",
      "outputs": [
        {
          "internalType": "contract LowFeeCampaign",
          "name": "",
          "type": "address"
        }
      ],
      "stateMutability": "view",
      "type": "function",
      "constant": true
    }
  ],
  "bytecode": "0x6080604052600080546001600160a01b0319167374fda6b5e26ccc53f50a5cb841c877a875b8b57017905567016345785d8a000060015534801561004257600080fd5b50613afe806100526000396000f3fe608060405260043610620000f25760003560e01c80636a1db1bf116200008b578063b7681c1f1162000061578063b7681c1f146200024f578063c9da08731462000274578063db4bf9ae1462000299578063fb5474ae14620002b057620000f2565b80636a1db1bf14620001fb578063853828b61462000220578063aee2a82e146200022a57620000f2565b80633911e25b11620000cd5780633911e25b146200017e5780634f24b34b14620001975780635598f8cc14620001be5780635b04022414620001e357620000f2565b806310f2b14114620000f7578063141961bc1462000134578063160c37ab1462000159575b600080fd5b3480156200010457600080fd5b506200011c6200011636600462000bfe565b620002c8565b6040516200012b919062000c72565b60405180910390f35b3480156200014157600080fd5b506200011c6200015336600462000bfe565b620002f3565b3480156200016657600080fd5b506200011c62000178366004620008f2565b62000304565b620001956200018f36600462000998565b6200033d565b005b348015620001a457600080fd5b50620001af62000607565b6040516200012b919062001108565b348015620001cb57600080fd5b506200011c620001dd36600462000bfe565b6200061a565b348015620001f057600080fd5b50620001af6200065b565b3480156200020857600080fd5b50620001956200021a36600462000bfe565b6200066e565b620001956200068b565b3480156200023757600080fd5b506200011c6200024936600462000bfe565b620006cb565b3480156200025c57600080fd5b506200011c6200026e36600462000bfe565b620006fb565b3480156200028157600080fd5b506200011c62000293366004620008f2565b6200072b565b62000195620002aa36600462000920565b62000748565b348015620002bd57600080fd5b50620001af62000851565b60038181548110620002d957600080fd5b6000918252602090912001546001600160a01b0316905081565b60058181548110620002d957600080fd5b600260205281600052604060002081815481106200032157600080fd5b6000918252602090912001546001600160a01b03169150829050565b815151620003685760405162461bcd60e51b81526004016200035f9062000e40565b60405180910390fd5b600082606001515111620003905760405162461bcd60e51b81526004016200035f9062000eae565b600082602001515111620003b85760405162461bcd60e51b81526004016200035f9062000ee5565b600082604001515111620003e05760405162461bcd60e51b81526004016200035f9062000d4f565b60408051808201909152601081527f5349474e45445f42595f4c4f574645450000000000000000000000000000000060209182015260a083015180519101207fe0b220a22862ed0f6ed833ca73c11817eb9bc34a5e888df57e2dcc328d6d87641415620004615760405162461bcd60e51b81526004016200035f9062000cd6565b60018260c001511015620004895760405162461bcd60e51b81526004016200035f9062000e77565b60008260e0015111620004b05760405162461bcd60e51b81526004016200035f9062000e09565b600082610100015111620004d85760405162461bcd60e51b81526004016200035f9062000d86565b81610100015182610120015111620005045760405162461bcd60e51b81526004016200035f9062000dbd565b600154341015806200052057506000546001600160a01b031633145b6200053f5760405162461bcd60e51b81526004016200035f9062000d0d565b6000823383604051620005529062000857565b620005609392919062000f1c565b604051809103906000f0801580156200057d573d6000803e3d6000fd5b50336000908152600460209081526040822080546001818101835591845291832090910180546001600160a01b0390941673ffffffffffffffffffffffffffffffffffffffff1994851681179091556005805492830181559092527f036b6384b5eca791c62761152d0c79bb0604c104a5fb6f4eb0703f3154bb3db0018054909216179055505050565b3360009081526002602052604090205490565b6000600582815481106200063e57634e487b7160e01b600052603260045260246000fd5b6000918252602090912001546001600160a01b031690505b919050565b3360009081526004602052604090205490565b6000546001600160a01b031633146200068657600080fd5b600155565b6000546001600160a01b03163314620006a357600080fd5b6040513390303180156108fc02916000818181858888f19350505050620006c957600080fd5b565b3360009081526002602052604081208054839081106200063e57634e487b7160e01b600052603260045260246000fd5b3360009081526004602052604081208054839081106200063e57634e487b7160e01b600052603260045260246000fd5b600460205281600052604060002081815481106200032157600080fd5b600154341015806200076457506000546001600160a01b031633145b620007835760405162461bcd60e51b81526004016200035f9062000d0d565b60008484848433604051620007989062000865565b620007a895949392919062000c86565b604051809103906000f080158015620007c5573d6000803e3d6000fd5b50336000908152600260209081526040822080546001818101835591845291832090910180546001600160a01b0390941673ffffffffffffffffffffffffffffffffffffffff1994851681179091556003805492830181559092527fc2575a0e9e593c00f959f8c92f12db2869c3395a3b0502d05e2516446f71f85b0180549092161790555050505050565b60055490565b6119e9806200116e83390190565b610f728062002b5783390190565b8035620006568162001154565b600082601f83011262000891578081fd5b813567ffffffffffffffff811115620008ae57620008ae6200113e565b620008c3601f8201601f191660200162001111565b818152846020838601011115620008d8578283fd5b816020850160208301379081016020019190915292915050565b6000806040838503121562000905578182fd5b8235620009128162001154565b946020939093013593505050565b6000806000806080858703121562000936578182fd5b843567ffffffffffffffff808211156200094e578384fd5b6200095c8883890162000880565b9550602087013591508082111562000972578384fd5b50620009818782880162000880565b949794965050505060408301359260600135919050565b60008060408385031215620009ab578182fd5b823567ffffffffffffffff80821115620009c3578384fd5b8185019150610200808388031215620009da578485fd5b620009e58162001111565b9050823582811115620009f6578586fd5b62000a048882860162000880565b82525060208301358281111562000a19578586fd5b62000a278882860162000880565b60208301525060408301358281111562000a3f578586fd5b62000a4d8882860162000880565b60408301525060608301358281111562000a65578586fd5b62000a738882860162000880565b60608301525060808301358281111562000a8b578586fd5b62000a998882860162000880565b60808301525060a08301358281111562000ab1578586fd5b62000abf8882860162000880565b60a08301525060c083013560c082015260e083013560e0820152610100808401358183015250610120808401358183015250610140808401358381111562000b05578687fd5b62000b138982870162000880565b828401525050610160808401358381111562000b2d578687fd5b62000b3b8982870162000880565b828401525050610180808401358381111562000b55578687fd5b62000b638982870162000880565b8284015250506101a0808401358381111562000b7d578687fd5b62000b8b8982870162000880565b8284015250506101c0808401358381111562000ba5578687fd5b62000bb38982870162000880565b8284015250506101e0808401358381111562000bcd578687fd5b62000bdb8982870162000880565b82840152505080945050505062000bf56020840162000873565b90509250929050565b60006020828403121562000c10578081fd5b5035919050565b6001600160a01b03169052565b60008151808452815b8181101562000c4b5760208185018101518683018201520162000c2d565b8181111562000c5d5782602083870101525b50601f01601f19169290920160200192915050565b6001600160a01b0391909116815260200190565b600060a0825262000c9b60a083018862000c24565b828103602084015262000caf818862000c24565b6040840196909652505060608101929092526001600160a01b031660809091015292915050565b60208082526012908201527f596f752063616e27742075736520746869730000000000000000000000000000604082015260600190565b60208082526022908201527f596f75206e65656420746f20656e746572207269676874206665652076616c75604082015261652160f01b606082015260800190565b6020808252601c908201527f4465736372697074696f6e2075726c2069732072657175697265642100000000604082015260600190565b60208082526017908201527f5374617274204461746520697320726571756972656421000000000000000000604082015260600190565b6020808252602c908201527f53746172742044617465206e6565647320746f2062652062696767657220746860408201526b616e20656e6420646174652160a01b606082015260800190565b60208082526011908201527f476f616c20697320726571756972656421000000000000000000000000000000604082015260600190565b60208082526012908201527f5469746c65206973207265717569726564210000000000000000000000000000604082015260600190565b60208082526016908201527f436f696e20526174652069732072657175697265642100000000000000000000604082015260600190565b60208082526015908201527f4c6f676f2055726c206973207265717569726564210000000000000000000000604082015260600190565b6020808252601e908201527f517569636b204465736372697074696f6e206973207265717569726564210000604082015260600190565b600060608252845161020080606085015262000f3d61026085018362000c24565b91506020870151605f198086850301608087015262000f5d848362000c24565b935060408901519150808685030160a087015262000f7c848362000c24565b935060608901519150808685030160c087015262000f9b848362000c24565b935060808901519150808685030160e087015262000fba848362000c24565b935060a0890151915061010081878603018188015262000fdb858462000c24565b945060c08a01519250610120838189015260e08b0151935061014084818a0152828c01519450610160925084838a0152818c01519450610180915084828a0152808c01519450506101a08389880301818a01526200103a878662000c24565b9650828c015194506101c092508389880301838a01526200105c878662000c24565b9650818c015194506101e091508389880301828a01526200107e878662000c24565b9650808c01519450508288870301858901526200109c868562000c24565b9550818b015194508288870301610220890152620010bb868662000c24565b9550808b01519450505080868503016102408701525050620010de828262000c24565b92505050620010f1602083018562000c17565b62001100604083018462000c17565b949350505050565b90815260200190565b60405181810167ffffffffffffffff811182821017156200113657620011366200113e565b604052919050565b634e487b7160e01b600052604160045260246000fd5b6001600160a01b03811681146200116a57600080fd5b5056fe6080604052601980546001600160a01b0319167374fda6b5e26ccc53f50a5cb841c877a875b8b5701790553480156200003757600080fd5b50604051620019e9380380620019e98339810160408190526200005a916200035d565b82518051620000729160009160209091019062000209565b5060208084015180516200008b92600192019062000209565b5060408301518051620000a79160029160209091019062000209565b5060608301518051620000c39160039160209091019062000209565b5060808301518051620000df9160049160209091019062000209565b5060a08301518051620000fb9160059160209091019062000209565b5060c083015160065560e083015160075561010083015160085561012083015160095561014083015180516200013a91600b9160209091019062000209565b5061018083015180516200015791600d9160209091019062000209565b5061016083015180516200017491600c9160209091019062000209565b506101a083015180516200019191600e9160209091019062000209565b506101c08301518051620001ae91600f9160209091019062000209565b506101e08301518051620001cb9160109160209091019062000209565b50601880546001600160a01b039384166001600160a01b03199182161790915560168054929093169116179055506013805460ff1916905562000653565b828054620002179062000600565b90600052602060002090601f0160209004810192826200023b576000855562000286565b82601f106200025657805160ff191683800117855562000286565b8280016001018555821562000286579182015b828111156200028657825182559160200191906001019062000269565b506200029492915062000298565b5090565b5b8082111562000294576000815560010162000299565b80516001600160a01b0381168114620002c757600080fd5b919050565b600082601f830112620002dd578081fd5b81516001600160401b03811115620002f957620002f96200063d565b60206200030f601f8301601f19168201620005d4565b828152858284870101111562000323578384fd5b835b838110156200034257858101830151828201840152820162000325565b838111156200035357848385840101525b5095945050505050565b60008060006060848603121562000372578283fd5b83516001600160401b038082111562000389578485fd5b8186019150610200808389031215620003a0578586fd5b620003ab81620005d4565b9050825182811115620003bc578687fd5b620003ca89828601620002cc565b825250602083015182811115620003df578687fd5b620003ed89828601620002cc565b60208301525060408301518281111562000405578687fd5b6200041389828601620002cc565b6040830152506060830151828111156200042b578687fd5b6200043989828601620002cc565b60608301525060808301518281111562000451578687fd5b6200045f89828601620002cc565b60808301525060a08301518281111562000477578687fd5b6200048589828601620002cc565b60a08301525060c083015160c082015260e083015160e08201526101008084015181830152506101208084015181830152506101408084015183811115620004cb578788fd5b620004d98a828701620002cc565b8284015250506101608084015183811115620004f3578788fd5b620005018a828701620002cc565b82840152505061018080840151838111156200051b578788fd5b620005298a828701620002cc565b8284015250506101a0808401518381111562000543578788fd5b620005518a828701620002cc565b8284015250506101c080840151838111156200056b578788fd5b620005798a828701620002cc565b8284015250506101e0808401518381111562000593578788fd5b620005a18a828701620002cc565b828401525050809550505050620005bb60208501620002af565b9150620005cb60408501620002af565b90509250925092565b6040518181016001600160401b0381118282101715620005f857620005f86200063d565b604052919050565b6002810460018216806200061557607f821691505b602082108114156200063757634e487b7160e01b600052602260045260246000fd5b50919050565b634e487b7160e01b600052604160045260246000fd5b61138680620006636000396000f3fe6080604052600436106101f85760003560e01c806376477f361161010d578063b8ab1cfd116100a0578063ecd0c0c31161006f578063ecd0c0c3146104e1578063f088d547146104f6578063f0a2194d14610509578063f861b16e1461051e578063fba939f814610533576101f8565b8063b8ab1cfd14610482578063d1b26f9f146104a2578063dac8eac7146104b7578063dbfa5863146104cc576101f8565b8063a01eda8f116100dc578063a01eda8f14610421578063a4fcfaa814610436578063ac8daba01461044b578063b2bdfa7b14610460576101f8565b806376477f36146103cd578063771c21f0146103e25780638b2c9dd4146103f757806398543f9c1461040c576101f8565b80633dd4160e116101905780635a66f41a1161015f5780635a66f41a146103595780636cf9b78b1461036e5780636df35f24146103835780636e0527d91461039857806370a08231146103ad576101f8565b80633dd4160e146102ed57806348c54b9d1461030d5780634a390e7a1461032f5780634b18017b14610344576101f8565b806325eec050116101cc57806325eec0501461028a5780632653667e1461029f57806330358f42146102b657806335de76fa146102d8576101f8565b8062e44b47146101fd5780630fb3844c146102335780631ce301dc1461025557806322ae634f1461026a575b600080fd5b34801561020957600080fd5b5061021d610218366004610e2c565b610548565b60405161022a9190611261565b60405180910390f35b34801561023f57600080fd5b50610248610569565b60405161022a9190610f62565b34801561026157600080fd5b5061021d610572565b34801561027657600080fd5b5061021d610285366004610e2c565b610578565b34801561029657600080fd5b5061021d6105ae565b3480156102ab57600080fd5b506102b46105b4565b005b3480156102c257600080fd5b506102cb6105da565b60405161022a9190610f8a565b3480156102e457600080fd5b5061021d610668565b3480156102f957600080fd5b506102b4610308366004610e2c565b61066e565b34801561031957600080fd5b50610322610743565b60405161022a9190610f57565b34801561033b57600080fd5b506102cb610856565b34801561035057600080fd5b506102cb610863565b34801561036557600080fd5b506102cb610870565b34801561037a57600080fd5b506102cb61087d565b34801561038f57600080fd5b506102cb61088a565b3480156103a457600080fd5b506102cb610897565b3480156103b957600080fd5b5061021d6103c8366004610de2565b6108a4565b3480156103d957600080fd5b506102cb6108bf565b3480156103ee57600080fd5b506102b46108cc565b34801561040357600080fd5b506102cb610ac6565b34801561041857600080fd5b506102cb610ad3565b34801561042d57600080fd5b5061021d610ae0565b34801561044257600080fd5b5061021d610ae6565b34801561045757600080fd5b5061021d610aec565b34801561046c57600080fd5b50610475610af2565b60405161022a9190610f2a565b34801561048e57600080fd5b506102b461049d366004610e5c565b610b01565b3480156104ae57600080fd5b506102cb610ba9565b3480156104c357600080fd5b506102cb610bb6565b3480156104d857600080fd5b5061021d610bc3565b3480156104ed57600080fd5b50610475610bc9565b6102b4610504366004610de2565b610bd8565b34801561051557600080fd5b5061021d610d25565b34801561052a57600080fd5b506102cb610d2b565b34801561053f57600080fd5b5061021d610d38565b6011818154811061055857600080fd5b600091825260209091200154905081565b60135460ff1681565b60065481565b60006011828154811061059b57634e487b7160e01b600052603260045260246000fd5b906000526020600020015490505b919050565b60115490565b6018546001600160a01b031633146105cb57600080fd5b6013805460ff19166003179055565b600380546105e7906112d8565b80601f0160208091040260200160405190810160405280929190818152602001828054610613906112d8565b80156106605780601f1061063557610100808354040283529160200191610660565b820191906000526020600020905b81548152906001019060200180831161064357829003601f168201915b505050505081565b60125481565b6018546001600160a01b0316331461068557600080fd5b601e8110156106af5760405162461bcd60e51b81526004016106a69061113b565b60405180910390fd5b61016d8111156106d15760405162461bcd60e51b81526004016106a690611204565b600060135460ff1660068111156106f857634e487b7160e01b600052602160045260246000fd5b146107155760405162461bcd60e51b81526004016106a6906110f6565b610723816305265c006112a2565b600954610730919061126a565b601755506013805460ff19166001179055565b6000600460135460ff16600681111561076c57634e487b7160e01b600052602160045260246000fd5b146107895760405162461bcd60e51b81526004016106a690610fdd565b336000908152601a60205260409020546107b55760405162461bcd60e51b81526004016106a690611014565b336000818152601a60205260408082208054929055601654905163a9059cbb60e01b815291926001600160a01b039091169163a9059cbb916107fb918590600401610f3e565b602060405180830381600087803b15801561081557600080fd5b505af1158015610829573d6000803e3d6000fd5b505050506040513d601f19601f8201168201806040525081019061084d9190610e10565b50600191505090565b600b80546105e7906112d8565b600580546105e7906112d8565b601480546105e7906112d8565b600e80546105e7906112d8565b600480546105e7906112d8565b600c80546105e7906112d8565b6001600160a01b03166000908152601a602052604090205490565b600f80546105e7906112d8565b6018546001600160a01b031633146108e357600080fd5b6016546040516370a0823160e01b81526000916001600160a01b0316906370a0823190610914903090600401610f2a565b60206040518083038186803b15801561092c57600080fd5b505afa158015610940573d6000803e3d6000fd5b505050506040513d601f19601f820116820180604052508101906109649190610e44565b9050600160135460ff16600681111561098d57634e487b7160e01b600052602160045260246000fd5b146109aa5760405162461bcd60e51b81526004016106a690611071565b670de0b6b3a76400008110156109d25760405162461bcd60e51b81526004016106a6906110b2565b60006103e86109e28360056112a2565b6109ec9190611282565b6109f690836112c1565b905060006103e8610a088460056112a2565b610a129190611282565b60165460195460405163a9059cbb60e01b81529293506001600160a01b039182169263a9059cbb92610a4a9216908590600401610f3e565b602060405180830381600087803b158015610a6457600080fd5b505af1158015610a78573d6000803e3d6000fd5b505050506040513d601f19601f82011682018060405250810190610a9c9190610e10565b508160156000828254610aaf919061126a565b90915550506013805460ff19166002179055505050565b600280546105e7906112d8565b600180546105e7906112d8565b600a5481565b60175481565b60085481565b6018546001600160a01b031681565b6019546001600160a01b03163314610b1857600080fd5b600a8490558215610b35576013805460ff19166004179055610b43565b6013805460ff191660051790555b8151610b56906014906020850190610d3e565b508015610ba3576040805180820190915260108082527f5349474e45445f42595f4c4f57464545000000000000000000000000000000006020909201918252610ba191600591610d3e565b505b50505050565b600080546105e7906112d8565b600d80546105e7906112d8565b60095481565b6016546001600160a01b031681565b6016546040516370a0823160e01b815234916000916001600160a01b03909116906370a0823190610c0d903090600401610f2a565b60206040518083038186803b158015610c2557600080fd5b505afa158015610c39573d6000803e3d6000fd5b505050506040513d601f19601f82011682018060405250810190610c5d9190610e44565b905060008211610c7f5760405162461bcd60e51b81526004016106a6906111cd565b8060065483610c8e9190611282565b1115610cac5760405162461bcd60e51b81526004016106a690611198565b600654610cb99083611282565b6001600160a01b0384166000908152601a602052604081208054909190610ce190849061126a565b9091555050600654601190610cf69084611282565b8154600181018355600092835260208320015560128054849290610d1b90849061126a565b9091555050505050565b60155481565b601080546105e7906112d8565b60075481565b828054610d4a906112d8565b90600052602060002090601f016020900481019282610d6c5760008555610db2565b82601f10610d8557805160ff1916838001178555610db2565b82800160010185558215610db2579182015b82811115610db2578251825591602001919060010190610d97565b50610dbe929150610dc2565b5090565b5b80821115610dbe5760008155600101610dc3565b80356105a98161133f565b600060208284031215610df3578081fd5b81356001600160a01b0381168114610e09578182fd5b9392505050565b600060208284031215610e21578081fd5b8151610e098161133f565b600060208284031215610e3d578081fd5b5035919050565b600060208284031215610e55578081fd5b5051919050565b60008060008060808587031215610e71578283fd5b84359350602080860135610e848161133f565b9350604086013567ffffffffffffffff80821115610ea0578485fd5b818801915088601f830112610eb3578485fd5b813581811115610ec557610ec5611329565b604051601f8201601f1916810185018381118282101715610ee857610ee8611329565b60405281815283820185018b1015610efe578687fd5b818585018683013790810190930194909452509150610f1f60608601610dd7565b905092959194509250565b6001600160a01b0391909116815260200190565b6001600160a01b03929092168252602082015260400190565b901515815260200190565b6020810160078310610f8457634e487b7160e01b600052602160045260246000fd5b91905290565b6000602080835283518082850152825b81811015610fb657858101830151858201604001528201610f9a565b81811115610fc75783604083870101525b50601f01601f1916929092016040019392505050565b60208082526015908201527f43616d706169676e206e6f7420617070726f7665640000000000000000000000604082015260600190565b6020808252603a908201527f5468657265206973206e6f20746f6b656e7320617661696c61626c6520746f2060408201527f77697468647261772066726f6d20746869732061646472657373000000000000606082015260800190565b60208082526021908201527f596f752063616e2774206368616e67652074686520746f6b656e206f666665726040820152602160f81b606082015260800190565b60208082526024908201527f596f752063616e2774206f66666572206c657373207468616e206f6e6520746f6040820152636b656e2160e01b606082015260800190565b60208082526025908201527f596f752063616e2774206368616e6765207468652076657374696e6720616e796040820152646d6f72652160d81b606082015260800190565b6020808252602f908201527f5468652076657374696e6720706572696f64206e6565647320746f206265206160408201527f74206c6561737420333020646179730000000000000000000000000000000000606082015260800190565b6020808252818101527f4e6f7420656e6f75676820746f6b656e7320696e207468652072657365727665604082015260600190565b6020808252601b908201527f596f75206e65656420746f2073656e6420736f6d652065746865720000000000604082015260600190565b60208082526037908201527f5468652076657374696e6720706572696f64206e6565647320746f206265206160408201527f7420736d616c6c6572207468616e203336352064617973000000000000000000606082015260800190565b90815260200190565b6000821982111561127d5761127d611313565b500190565b60008261129d57634e487b7160e01b81526012600452602481fd5b500490565b60008160001904831182151516156112bc576112bc611313565b500290565b6000828210156112d3576112d3611313565b500390565b6002810460018216806112ec57607f821691505b6020821081141561130d57634e487b7160e01b600052602260045260246000fd5b50919050565b634e487b7160e01b600052601160045260246000fd5b634e487b7160e01b600052604160045260246000fd5b801515811461134d57600080fd5b5056fea2646970667358221220abfea99ca8a8dd2bb723e4587092568a255f50090d8d31b269a282ea9bae7fa264736f6c6343000800003360806040523480156200001157600080fd5b5060405162000f7238038062000f728339810160408190526200003491620002cf565b8451859085906200004d9060039060208501906200017e565b508051620000639060049060208401906200017e565b5050506200008c8183600a6200007a919062000415565b6200008690866200050a565b62000097565b505050505062000595565b6001600160a01b038216620000c95760405162461bcd60e51b8152600401620000c0906200036d565b60405180910390fd5b620000d76000838362000179565b8060026000828254620000eb9190620003ad565b90915550506001600160a01b038216600090815260208190526040812080548392906200011a908490620003ad565b90915550506040516001600160a01b038316906000907fddf252ad1be2c89b69c2b068fc378daa952ba7f163c4a11628f55a4df523b3ef906200015f908590620003a4565b60405180910390a3620001756000838362000179565b5050565b505050565b8280546200018c906200052c565b90600052602060002090601f016020900481019282620001b05760008555620001fb565b82601f10620001cb57805160ff1916838001178555620001fb565b82800160010185558215620001fb579182015b82811115620001fb578251825591602001919060010190620001de565b50620002099291506200020d565b5090565b5b808211156200020957600081556001016200020e565b600082601f83011262000235578081fd5b81516001600160401b03808211156200025257620002526200057f565b6040516020601f8401601f19168201810183811183821017156200027a576200027a6200057f565b604052838252858401810187101562000291578485fd5b8492505b83831015620002b4578583018101518284018201529182019162000295565b83831115620002c557848185840101525b5095945050505050565b600080600080600060a08688031215620002e7578081fd5b85516001600160401b0380821115620002fe578283fd5b6200030c89838a0162000224565b9650602088015191508082111562000322578283fd5b50620003318882890162000224565b6040880151606089015160808a0151929750909550935090506001600160a01b03811681146200035f578182fd5b809150509295509295909350565b6020808252601f908201527f45524332303a206d696e7420746f20746865207a65726f206164647265737300604082015260600190565b90815260200190565b60008219821115620003c357620003c362000569565b500190565b80825b6001808611620003dc57506200040c565b818704821115620003f157620003f162000569565b80861615620003ff57918102915b9490941c938002620003cb565b94509492505050565b60006200042660001984846200042d565b9392505050565b6000826200043e5750600162000426565b816200044d5750600062000426565b81600181146200046657600281146200047157620004a5565b600191505062000426565b60ff84111562000485576200048562000569565b6001841b9150848211156200049e576200049e62000569565b5062000426565b5060208310610133831016604e8410600b8410161715620004dd575081810a83811115620004d757620004d762000569565b62000426565b620004ec8484846001620003c8565b80860482111562000501576200050162000569565b02949350505050565b600081600019048311821515161562000527576200052762000569565b500290565b6002810460018216806200054157607f821691505b602082108114156200056357634e487b7160e01b600052602260045260246000fd5b50919050565b634e487b7160e01b600052601160045260246000fd5b634e487b7160e01b600052604160045260246000fd5b6109cd80620005a56000396000f3fe608060405234801561001057600080fd5b50600436106100b95760003560e01c80633950935111610081578063a457c2d71161005b578063a457c2d714610167578063a9059cbb1461017a578063dd62ed3e1461018d576100b9565b8063395093511461013957806370a082311461014c57806395d89b411461015f576100b9565b806306fdde03146100be578063095ea7b3146100dc57806318160ddd146100fc57806323b872dd14610111578063313ce56714610124575b600080fd5b6100c66101a0565b6040516100d391906106ed565b60405180910390f35b6100ef6100ea3660046106b9565b610232565b6040516100d391906106e2565b61010461024f565b6040516100d39190610921565b6100ef61011f36600461067e565b610255565b61012c6102ee565b6040516100d3919061092a565b6100ef6101473660046106b9565b6102f3565b61010461015a36600461062b565b610347565b6100c6610366565b6100ef6101753660046106b9565b610375565b6100ef6101883660046106b9565b6103ee565b61010461019b36600461064c565b610402565b6060600380546101af9061095c565b80601f01602080910402602001604051908101604052809291908181526020018280546101db9061095c565b80156102285780601f106101fd57610100808354040283529160200191610228565b820191906000526020600020905b81548152906001019060200180831161020b57829003601f168201915b5050505050905090565b600061024661023f61042d565b8484610431565b50600192915050565b60025490565b60006102628484846104e5565b6001600160a01b03841660009081526001602052604081208161028361042d565b6001600160a01b03166001600160a01b03168152602001908152602001600020549050828110156102cf5760405162461bcd60e51b81526004016102c69061080b565b60405180910390fd5b6102e3856102db61042d565b858403610431565b506001949350505050565b601290565b600061024661030061042d565b84846001600061030e61042d565b6001600160a01b03908116825260208083019390935260409182016000908120918b16815292529020546103429190610938565b610431565b6001600160a01b0381166000908152602081905260409020545b919050565b6060600480546101af9061095c565b6000806001600061038461042d565b6001600160a01b03908116825260208083019390935260409182016000908120918816815292529020549050828110156103d05760405162461bcd60e51b81526004016102c6906108dc565b6103e46103db61042d565b85858403610431565b5060019392505050565b60006102466103fb61042d565b84846104e5565b6001600160a01b03918216600090815260016020908152604080832093909416825291909152205490565b3390565b6001600160a01b0383166104575760405162461bcd60e51b81526004016102c690610898565b6001600160a01b03821661047d5760405162461bcd60e51b81526004016102c690610783565b6001600160a01b0380841660008181526001602090815260408083209487168084529490915290819020849055517f8c5be1e5ebec7d5bd14f71427d1e84f3dd0314c0f7b2291e5b200ac8c7c3b925906104d8908590610921565b60405180910390a3505050565b6001600160a01b03831661050b5760405162461bcd60e51b81526004016102c690610853565b6001600160a01b0382166105315760405162461bcd60e51b81526004016102c690610740565b61053c83838361060f565b6001600160a01b038316600090815260208190526040902054818110156105755760405162461bcd60e51b81526004016102c6906107c5565b6001600160a01b038085166000908152602081905260408082208585039055918516815290812080548492906105ac908490610938565b92505081905550826001600160a01b0316846001600160a01b03167fddf252ad1be2c89b69c2b068fc378daa952ba7f163c4a11628f55a4df523b3ef846040516105f69190610921565b60405180910390a361060984848461060f565b50505050565b505050565b80356001600160a01b038116811461036157600080fd5b60006020828403121561063c578081fd5b61064582610614565b9392505050565b6000806040838503121561065e578081fd5b61066783610614565b915061067560208401610614565b90509250929050565b600080600060608486031215610692578081fd5b61069b84610614565b92506106a960208501610614565b9150604084013590509250925092565b600080604083850312156106cb578182fd5b6106d483610614565b946020939093013593505050565b901515815260200190565b6000602080835283518082850152825b81811015610719578581018301518582016040015282016106fd565b8181111561072a5783604083870101525b50601f01601f1916929092016040019392505050565b60208082526023908201527f45524332303a207472616e7366657220746f20746865207a65726f206164647260408201526265737360e81b606082015260800190565b60208082526022908201527f45524332303a20617070726f766520746f20746865207a65726f206164647265604082015261737360f01b606082015260800190565b60208082526026908201527f45524332303a207472616e7366657220616d6f756e7420657863656564732062604082015265616c616e636560d01b606082015260800190565b60208082526028908201527f45524332303a207472616e7366657220616d6f756e74206578636565647320616040820152676c6c6f77616e636560c01b606082015260800190565b60208082526025908201527f45524332303a207472616e736665722066726f6d20746865207a65726f206164604082015264647265737360d81b606082015260800190565b60208082526024908201527f45524332303a20617070726f76652066726f6d20746865207a65726f206164646040820152637265737360e01b606082015260800190565b60208082526025908201527f45524332303a2064656372656173656420616c6c6f77616e63652062656c6f77604082015264207a65726f60d81b606082015260800190565b90815260200190565b60ff91909116815260200190565b6000821982111561095757634e487b7160e01b81526011600452602481fd5b500190565b60028104600182168061097057607f821691505b6020821081141561099157634e487b7160e01b600052602260045260246000fd5b5091905056fea2646970667358221220b0ed4aba8d0d7663b66b3fd9ce7006c43c63d51bacac95e54cef54e6873dfc2964736f6c63430008000033a2646970667358221220b5c47e824c9b1f77a7eac956037f40605c65332a5feea2901ca443909faf723b64736f6c63430008000033",
  "immutableReferences": {},
  "source": "//SPDX-License-Identifier: UNLICENSED\r\npragma solidity ^0.8.0;\r\n\r\nimport \"@openzeppelin/contracts/token/ERC20/ERC20.sol\";\r\nimport \"./LFToken.sol\";\r\nimport \"./LowFeeCampaign.sol\";\r\nimport \"./SharedStructs.sol\";\r\n\r\n\r\ncontract LowFee is UsingSharedStructs{\r\n    address private entityOwner = 0x74fDA6B5e26ccC53f50a5cb841c877A875B8B570;\r\n    uint256 private _platformFee = 100000000000000000;\r\n\r\n    //Owner => Token\r\n    mapping(address => LFToken[]) public _launchedTokens;\r\n    LFToken[] public launchedTokens;\r\n\r\n    mapping(address => LowFeeCampaign[]) public _campaigns;\r\n    LowFeeCampaign[] public campaigns;\r\n\r\n    function buyNewToken(\r\n        string memory name,\r\n        string memory symbol,\r\n        uint256 initialSupply,\r\n        uint256 decimals\r\n    ) public payable {\r\n        require((msg.value >= _platformFee || address(msg.sender) == entityOwner), \"You need to enter right fee value!\");\r\n        LFToken lastCreatedToken = new LFToken(name, symbol, initialSupply, decimals, address(msg.sender));\r\n        _launchedTokens[address(msg.sender)].push(lastCreatedToken);\r\n        launchedTokens.push(lastCreatedToken);\r\n    }\r\n    function getMyLaunchedTokensLength() public view returns(uint){\r\n        return _launchedTokens[address(msg.sender)].length;\r\n    }\r\n    function getMyLaunchedToken(uint index) public view returns(LFToken){\r\n        return _launchedTokens[address(msg.sender)][index];\r\n    }\r\n\r\n    function launchNewCampaign(\r\n        Campaign memory campaign,\r\n        IERC20 token\r\n    ) payable public {\r\n        require(bytes(campaign.title).length > 0, \"Title is required!\");\r\n        require(bytes(campaign.logoUrl).length > 0, \"Logo Url is required!\");\r\n        require(bytes(campaign.quickDescription).length > 0, \"Quick Description is required!\");\r\n        require(bytes(campaign.descriptionUrl).length > 0, \"Description url is required!\");\r\n        require(keccak256(bytes(campaign.auditUrl)) != keccak256(bytes(\"SIGNED_BY_LOWFEE\")), \"You can't use this\");\r\n        require(campaign.coinRate >= 1, \"Coin Rate is required!\");\r\n        require(campaign.goal > 0, \"Goal is required!\");\r\n        require(campaign.startDate > 0, \"Start Date is required!\");\r\n        require(campaign.endDate > campaign.startDate, \"Start Date needs to be bigger than end date!\");\r\n        require((msg.value >= _platformFee || address(msg.sender) == entityOwner), \"You need to enter right fee value!\");\r\n        LowFeeCampaign zeroFeeCampaign = new LowFeeCampaign(campaign, address(msg.sender), token);\r\n        _campaigns[address(msg.sender)].push(zeroFeeCampaign);\r\n        campaigns.push(zeroFeeCampaign);\r\n    }\r\n\r\n    function getMyCampaignsLength() public view returns(uint){\r\n        return _campaigns[address(msg.sender)].length;\r\n    }\r\n\r\n    function getMyCampaign(uint index) public view returns(LowFeeCampaign){\r\n        return _campaigns[address(msg.sender)][index];\r\n    }\r\n\r\n    modifier onlyLowFee {\r\n        require(address(msg.sender) == entityOwner);\r\n        _;\r\n    }\r\n\r\n    function withdrawAll() payable onlyLowFee public {\r\n        require(payable(address(msg.sender)).send(payable(address(this)).balance));\r\n    }\r\n\r\n    function changeFee(uint256 newFee) onlyLowFee public {\r\n        _platformFee = newFee;\r\n    }\r\n    function getCampaignsLength() public view returns(uint){\r\n        return campaigns.length;\r\n    }\r\n    function getCampaign(uint index) public view returns(LowFeeCampaign){\r\n        return campaigns[index];\r\n    }\r\n}\r\n",
  "sourcePath": "D:\\Projetos\\zeroFee\\Platform\\contracts\\LowFee.sol",
  "compiler": {
    "name": "solc",
    "version": "0.8.0+commit.c7dfd78e.Emscripten.clang"
  },
  "schemaVersion": "3.4.4",
  "updatedAt": "2022-01-11T00:16:31.569Z",
  "networkType": "ethereum",
  "devdoc": {
    "kind": "dev",
    "methods": {},
    "version": 1
  },
  "userdoc": {
    "kind": "user",
    "methods": {},
    "version": 1
  }
}