{
  "contractName": "PancakeFactory",
  "abi": [
    {
      "inputs": [
        {
          "internalType": "address",
          "name": "tokenA",
          "type": "address"
        },
        {
          "internalType": "address",
          "name": "tokenB",
          "type": "address"
        }
      ],
      "name": "createPair",
      "outputs": [
        {
          "internalType": "address",
          "name": "pair",
          "type": "address"
        }
      ],
      "stateMutability": "nonpayable",
      "type": "function"
    }
  ],
  "bytecode": "0x608060405234801561001057600080fd5b50610104806100206000396000f3fe6080604052348015600f57600080fd5b506004361060285760003560e01c8063c9c6539614602d575b600080fd5b603c60383660046080565b6050565b6040516047919060ad565b60405180910390f35b600092915050565b803573ffffffffffffffffffffffffffffffffffffffff81168114607b57600080fd5b919050565b600080604083850312156091578182fd5b6098836058565b915060a4602084016058565b90509250929050565b73ffffffffffffffffffffffffffffffffffffffff9190911681526020019056fea26469706673582212208dab6b6eb3f5f5fa9ae10af3439065fd8f9753d74caf7d1b066af6290f9bc7d864736f6c63430008000033",
  "immutableReferences": {},
  "source": "pragma solidity ^0.8.0;\r\n\r\ncontract PancakeFactory {\r\n    function createPair(address tokenA, address tokenB) external returns (address pair) {}\r\n}\r\n",
  "sourcePath": "D:\\Projetos\\zeroFee\\Platform\\contracts\\Pancakeswap\\PancakeFactory.sol",
  "compiler": {
    "name": "solc",
    "version": "0.8.0+commit.c7dfd78e.Emscripten.clang"
  },
  "schemaVersion": "3.4.4",
  "updatedAt": "2022-01-11T00:16:17.468Z",
  "devdoc": {
    "kind": "dev",
    "methods": {},
    "version": 1
  },
  "userdoc": {
    "kind": "user",
    "methods": {},
    "version": 1
  }
}