{
  "contractName": "PancakeRouter",
  "abi": [
    {
      "inputs": [
        {
          "internalType": "address",
          "name": "tokenA",
          "type": "address"
        },
        {
          "internalType": "address",
          "name": "tokenB",
          "type": "address"
        },
        {
          "internalType": "uint256",
          "name": "amountADesired",
          "type": "uint256"
        },
        {
          "internalType": "uint256",
          "name": "amountBDesired",
          "type": "uint256"
        },
        {
          "internalType": "uint256",
          "name": "amountAMin",
          "type": "uint256"
        },
        {
          "internalType": "uint256",
          "name": "amountBMin",
          "type": "uint256"
        },
        {
          "internalType": "address",
          "name": "to",
          "type": "address"
        },
        {
          "internalType": "uint256",
          "name": "deadline",
          "type": "uint256"
        }
      ],
      "name": "addLiquidity",
      "outputs": [
        {
          "internalType": "uint256",
          "name": "amountA",
          "type": "uint256"
        },
        {
          "internalType": "uint256",
          "name": "amountB",
          "type": "uint256"
        },
        {
          "internalType": "uint256",
          "name": "liquidity",
          "type": "uint256"
        }
      ],
      "stateMutability": "nonpayable",
      "type": "function"
    }
  ],
  "bytecode": "0x608060405234801561001057600080fd5b50610156806100206000396000f3fe608060405234801561001057600080fd5b506004361061002b5760003560e01c8063e8e3370014610030575b600080fd5b61004361003e366004610097565b61005b565b6040516100529392919061010a565b60405180910390f35b6000806000985098509895505050505050565b803573ffffffffffffffffffffffffffffffffffffffff8116811461009257600080fd5b919050565b600080600080600080600080610100898b0312156100b3578384fd5b6100bc8961006e565b97506100ca60208a0161006e565b965060408901359550606089013594506080890135935060a089013592506100f460c08a0161006e565b915060e089013590509295985092959890939650565b928352602083019190915260408201526060019056fea2646970667358221220e5dffc403b834288de3a85fedcd50333f75b946184a2fbb04564d07e91f75d2264736f6c63430008000033",
  "immutableReferences": {},
  "source": "pragma solidity ^0.8.0;\r\n\r\ncontract PancakeRouter {\r\n    function addLiquidity(\r\n        address tokenA,\r\n        address tokenB,\r\n        uint amountADesired,\r\n        uint amountBDesired,\r\n        uint amountAMin,\r\n        uint amountBMin,\r\n        address to,\r\n        uint deadline\r\n    ) external returns(uint amountA, uint amountB, uint liquidity) {}\r\n}\r\n",
  "sourcePath": "D:\\Projetos\\zeroFee\\Platform\\contracts\\Pancakeswap\\PancakeRouter.sol",
  "compiler": {
    "name": "solc",
    "version": "0.8.0+commit.c7dfd78e.Emscripten.clang"
  },
  "schemaVersion": "3.4.4",
  "updatedAt": "2022-01-11T00:16:17.478Z",
  "devdoc": {
    "kind": "dev",
    "methods": {},
    "version": 1
  },
  "userdoc": {
    "kind": "user",
    "methods": {},
    "version": 1
  }
}