{
  "contractName": "TokenVesting",
  "abi": [
    {
      "inputs": [
        {
          "internalType": "address",
          "name": "token_",
          "type": "address"
        }
      ],
      "stateMutability": "nonpayable",
      "type": "constructor"
    },
    {
      "anonymous": false,
      "inputs": [
        {
          "indexed": true,
          "internalType": "address",
          "name": "previousOwner",
          "type": "address"
        },
        {
          "indexed": true,
          "internalType": "address",
          "name": "newOwner",
          "type": "address"
        }
      ],
      "name": "OwnershipTransferred",
      "type": "event"
    },
    {
      "anonymous": false,
      "inputs": [
        {
          "indexed": false,
          "internalType": "uint256",
          "name": "amount",
          "type": "uint256"
        }
      ],
      "name": "Released",
      "type": "event"
    },
    {
      "anonymous": false,
      "inputs": [],
      "name": "Revoked",
      "type": "event"
    },
    {
      "stateMutability": "payable",
      "type": "fallback"
    },
    {
      "inputs": [],
      "name": "owner",
      "outputs": [
        {
          "internalType": "address",
          "name": "",
          "type": "address"
        }
      ],
      "stateMutability": "view",
      "type": "function"
    },
    {
      "inputs": [],
      "name": "renounceOwnership",
      "outputs": [],
      "stateMutability": "nonpayable",
      "type": "function"
    },
    {
      "inputs": [
        {
          "internalType": "address",
          "name": "newOwner",
          "type": "address"
        }
      ],
      "name": "transferOwnership",
      "outputs": [],
      "stateMutability": "nonpayable",
      "type": "function"
    },
    {
      "stateMutability": "payable",
      "type": "receive"
    },
    {
      "inputs": [
        {
          "internalType": "address",
          "name": "_beneficiary",
          "type": "address"
        }
      ],
      "name": "getVestingSchedulesCountByBeneficiary",
      "outputs": [
        {
          "internalType": "uint256",
          "name": "",
          "type": "uint256"
        }
      ],
      "stateMutability": "view",
      "type": "function"
    },
    {
      "inputs": [
        {
          "internalType": "uint256",
          "name": "index",
          "type": "uint256"
        }
      ],
      "name": "getVestingIdAtIndex",
      "outputs": [
        {
          "internalType": "bytes32",
          "name": "",
          "type": "bytes32"
        }
      ],
      "stateMutability": "view",
      "type": "function"
    },
    {
      "inputs": [
        {
          "internalType": "address",
          "name": "holder",
          "type": "address"
        },
        {
          "internalType": "uint256",
          "name": "index",
          "type": "uint256"
        }
      ],
      "name": "getVestingScheduleByAddressAndIndex",
      "outputs": [
        {
          "components": [
            {
              "internalType": "bool",
              "name": "initialized",
              "type": "bool"
            },
            {
              "internalType": "address",
              "name": "beneficiary",
              "type": "address"
            },
            {
              "internalType": "uint256",
              "name": "cliff",
              "type": "uint256"
            },
            {
              "internalType": "uint256",
              "name": "start",
              "type": "uint256"
            },
            {
              "internalType": "uint256",
              "name": "duration",
              "type": "uint256"
            },
            {
              "internalType": "uint256",
              "name": "slicePeriodSeconds",
              "type": "uint256"
            },
            {
              "internalType": "bool",
              "name": "revocable",
              "type": "bool"
            },
            {
              "internalType": "uint256",
              "name": "amountTotal",
              "type": "uint256"
            },
            {
              "internalType": "uint256",
              "name": "released",
              "type": "uint256"
            },
            {
              "internalType": "bool",
              "name": "revoked",
              "type": "bool"
            }
          ],
          "internalType": "struct TokenVesting.VestingSchedule",
          "name": "",
          "type": "tuple"
        }
      ],
      "stateMutability": "view",
      "type": "function"
    },
    {
      "inputs": [],
      "name": "getVestingSchedulesTotalAmount",
      "outputs": [
        {
          "internalType": "uint256",
          "name": "",
          "type": "uint256"
        }
      ],
      "stateMutability": "view",
      "type": "function"
    },
    {
      "inputs": [],
      "name": "getToken",
      "outputs": [
        {
          "internalType": "address",
          "name": "",
          "type": "address"
        }
      ],
      "stateMutability": "view",
      "type": "function"
    },
    {
      "inputs": [
        {
          "internalType": "address",
          "name": "_beneficiary",
          "type": "address"
        },
        {
          "internalType": "uint256",
          "name": "_start",
          "type": "uint256"
        },
        {
          "internalType": "uint256",
          "name": "_cliff",
          "type": "uint256"
        },
        {
          "internalType": "uint256",
          "name": "_duration",
          "type": "uint256"
        },
        {
          "internalType": "uint256",
          "name": "_slicePeriodSeconds",
          "type": "uint256"
        },
        {
          "internalType": "bool",
          "name": "_revocable",
          "type": "bool"
        },
        {
          "internalType": "uint256",
          "name": "_amount",
          "type": "uint256"
        }
      ],
      "name": "createVestingSchedule",
      "outputs": [],
      "stateMutability": "nonpayable",
      "type": "function"
    },
    {
      "inputs": [
        {
          "internalType": "bytes32",
          "name": "vestingScheduleId",
          "type": "bytes32"
        }
      ],
      "name": "revoke",
      "outputs": [],
      "stateMutability": "nonpayable",
      "type": "function"
    },
    {
      "inputs": [
        {
          "internalType": "uint256",
          "name": "amount",
          "type": "uint256"
        }
      ],
      "name": "withdraw",
      "outputs": [],
      "stateMutability": "nonpayable",
      "type": "function"
    },
    {
      "inputs": [
        {
          "internalType": "bytes32",
          "name": "vestingScheduleId",
          "type": "bytes32"
        },
        {
          "internalType": "uint256",
          "name": "amount",
          "type": "uint256"
        }
      ],
      "name": "release",
      "outputs": [],
      "stateMutability": "nonpayable",
      "type": "function"
    },
    {
      "inputs": [],
      "name": "getVestingSchedulesCount",
      "outputs": [
        {
          "internalType": "uint256",
          "name": "",
          "type": "uint256"
        }
      ],
      "stateMutability": "view",
      "type": "function"
    },
    {
      "inputs": [
        {
          "internalType": "bytes32",
          "name": "vestingScheduleId",
          "type": "bytes32"
        }
      ],
      "name": "computeReleasableAmount",
      "outputs": [
        {
          "internalType": "uint256",
          "name": "",
          "type": "uint256"
        }
      ],
      "stateMutability": "view",
      "type": "function"
    },
    {
      "inputs": [
        {
          "internalType": "bytes32",
          "name": "vestingScheduleId",
          "type": "bytes32"
        }
      ],
      "name": "getVestingSchedule",
      "outputs": [
        {
          "components": [
            {
              "internalType": "bool",
              "name": "initialized",
              "type": "bool"
            },
            {
              "internalType": "address",
              "name": "beneficiary",
              "type": "address"
            },
            {
              "internalType": "uint256",
              "name": "cliff",
              "type": "uint256"
            },
            {
              "internalType": "uint256",
              "name": "start",
              "type": "uint256"
            },
            {
              "internalType": "uint256",
              "name": "duration",
              "type": "uint256"
            },
            {
              "internalType": "uint256",
              "name": "slicePeriodSeconds",
              "type": "uint256"
            },
            {
              "internalType": "bool",
              "name": "revocable",
              "type": "bool"
            },
            {
              "internalType": "uint256",
              "name": "amountTotal",
              "type": "uint256"
            },
            {
              "internalType": "uint256",
              "name": "released",
              "type": "uint256"
            },
            {
              "internalType": "bool",
              "name": "revoked",
              "type": "bool"
            }
          ],
          "internalType": "struct TokenVesting.VestingSchedule",
          "name": "",
          "type": "tuple"
        }
      ],
      "stateMutability": "view",
      "type": "function"
    },
    {
      "inputs": [],
      "name": "getWithdrawableAmount",
      "outputs": [
        {
          "internalType": "uint256",
          "name": "",
          "type": "uint256"
        }
      ],
      "stateMutability": "view",
      "type": "function"
    },
    {
      "inputs": [
        {
          "internalType": "address",
          "name": "holder",
          "type": "address"
        }
      ],
      "name": "computeNextVestingScheduleIdForHolder",
      "outputs": [
        {
          "internalType": "bytes32",
          "name": "",
          "type": "bytes32"
        }
      ],
      "stateMutability": "view",
      "type": "function"
    },
    {
      "inputs": [
        {
          "internalType": "address",
          "name": "holder",
          "type": "address"
        }
      ],
      "name": "getLastVestingScheduleForHolder",
      "outputs": [
        {
          "components": [
            {
              "internalType": "bool",
              "name": "initialized",
              "type": "bool"
            },
            {
              "internalType": "address",
              "name": "beneficiary",
              "type": "address"
            },
            {
              "internalType": "uint256",
              "name": "cliff",
              "type": "uint256"
            },
            {
              "internalType": "uint256",
              "name": "start",
              "type": "uint256"
            },
            {
              "internalType": "uint256",
              "name": "duration",
              "type": "uint256"
            },
            {
              "internalType": "uint256",
              "name": "slicePeriodSeconds",
              "type": "uint256"
            },
            {
              "internalType": "bool",
              "name": "revocable",
              "type": "bool"
            },
            {
              "internalType": "uint256",
              "name": "amountTotal",
              "type": "uint256"
            },
            {
              "internalType": "uint256",
              "name": "released",
              "type": "uint256"
            },
            {
              "internalType": "bool",
              "name": "revoked",
              "type": "bool"
            }
          ],
          "internalType": "struct TokenVesting.VestingSchedule",
          "name": "",
          "type": "tuple"
        }
      ],
      "stateMutability": "view",
      "type": "function"
    },
    {
      "inputs": [
        {
          "internalType": "address",
          "name": "holder",
          "type": "address"
        },
        {
          "internalType": "uint256",
          "name": "index",
          "type": "uint256"
        }
      ],
      "name": "computeVestingScheduleIdForAddressAndIndex",
      "outputs": [
        {
          "internalType": "bytes32",
          "name": "",
          "type": "bytes32"
        }
      ],
      "stateMutability": "pure",
      "type": "function"
    }
  ],
  "bytecode": "0x60a06040523480156200001157600080fd5b5060405162001d2a38038062001d2a8339810160408190526200003491620000ca565b620000486200004262000076565b6200007a565b600180556001600160a01b0381166200006057600080fd5b60601b6001600160601b031916608052620000fa565b3390565b600080546001600160a01b038381166001600160a01b0319831681178455604051919092169283917f8be0079c531659141344cd1fd0a4f28419497f9722a3daafe3b4186f6b6457e09190a35050565b600060208284031215620000dc578081fd5b81516001600160a01b0381168114620000f3578182fd5b9392505050565b60805160601c611bfc6200012e600039600081816107050152818161083301528181610a4f0152610bf30152611bfc6000f3fe6080604052600436106101185760003560e01c80638af104da116100a0578063ea1bb3d511610064578063ea1bb3d5146102cf578063f2fde38b146102ef578063f51321d71461030f578063f7c469f01461032f578063f9079b371461034f5761011f565b80638af104da146102455780638da5cb5b1461026557806390be10cc1461027a5780639ef346b41461028f578063b75c7dc6146102af5761011f565b806348deb471116100e757806348deb471146101ae5780635a7bb69a146101c357806366afd8ef146101e3578063715018a6146102035780637e913dc6146102185761011f565b8063130836171461012157806317e289e91461014c57806321df0da71461016c5780632e1a7d4d1461018e5761011f565b3661011f57005b005b34801561012d57600080fd5b5061013661036f565b6040516101439190611637565b60405180910390f35b34801561015857600080fd5b5061011f6101673660046114e6565b610375565b34801561017857600080fd5b50610181610703565b604051610143919061160a565b34801561019a57600080fd5b5061011f6101a9366004611568565b610727565b3480156101ba57600080fd5b50610136610861565b3480156101cf57600080fd5b506101366101de3660046114a3565b610867565b3480156101ef57600080fd5b5061011f6101fe366004611598565b610886565b34801561020f57600080fd5b5061011f610a84565b34801561022457600080fd5b506102386102333660046114a3565b610acf565b6040516101439190611a71565b34801561025157600080fd5b506101366102603660046114bd565b610ba7565b34801561027157600080fd5b50610181610bda565b34801561028657600080fd5b50610136610be9565b34801561029b57600080fd5b506102386102aa366004611568565b610c98565b3480156102bb57600080fd5b5061011f6102ca366004611568565b610d3f565b3480156102db57600080fd5b506101366102ea366004611568565b610ede565b3480156102fb57600080fd5b5061011f61030a3660046114a3565b610fc8565b34801561031b57600080fd5b5061023861032a3660046114bd565b611039565b34801561033b57600080fd5b5061013661034a3660046114a3565b611055565b34801561035b57600080fd5b5061013661036a366004611568565b61107f565b60025490565b61037d6110da565b6001600160a01b031661038e610bda565b6001600160a01b0316146103bd5760405162461bcd60e51b81526004016103b4906117a9565b60405180910390fd5b80306001600160a01b03166390be10cc6040518163ffffffff1660e01b815260040160206040518083038186803b1580156103f757600080fd5b505afa15801561040b573d6000803e3d6000fd5b505050506040513d601f19601f8201168201806040525081019061042f9190611580565b101561044d5760405162461bcd60e51b81526004016103b4906119ca565b6000841161046d5760405162461bcd60e51b81526004016103b490611854565b6000811161048d5760405162461bcd60e51b81526004016103b4906117de565b60018310156104ae5760405162461bcd60e51b81526004016103b4906116b9565b604051630f7c469f60e41b8152600090309063f7c469f0906104d4908b9060040161160a565b60206040518083038186803b1580156104ec57600080fd5b505afa158015610500573d6000803e3d6000fd5b505050506040513d601f19601f820116820180604052508101906105249190611580565b9050600061053288886110de565b90506040518061014001604052806001151581526020018a6001600160a01b03168152602001828152602001898152602001878152602001868152602001851515815260200184815260200160008152602001600015158152506003600084815260200190815260200160002060008201518160000160006101000a81548160ff02191690831515021790555060208201518160000160016101000a8154816001600160a01b0302191690836001600160a01b0316021790555060408201518160010155606082015181600201556080820151816003015560a0820151816004015560c08201518160050160006101000a81548160ff02191690831515021790555060e0820151816006015561010082015181600701556101208201518160080160006101000a81548160ff021916908315150217905550905050610682836004546110de90919063ffffffff16565b6004556002805460018181019092557f405787fa12a823e0f2b7631cc41b3ba8828b3321ca811111fa75cd3aa3bb5ace018390556001600160a01b038a16600090815260056020526040902054906106db9082906110de565b6001600160a01b03909a16600090815260056020526040902099909955505050505050505050565b7f000000000000000000000000000000000000000000000000000000000000000090565b6002600154141561074a5760405162461bcd60e51b81526004016103b490611a3a565b60026001556107576110da565b6001600160a01b0316610768610bda565b6001600160a01b03161461078e5760405162461bcd60e51b81526004016103b4906117a9565b80306001600160a01b03166390be10cc6040518163ffffffff1660e01b815260040160206040518083038186803b1580156107c857600080fd5b505afa1580156107dc573d6000803e3d6000fd5b505050506040513d601f19601f820116820180604052508101906108009190611580565b101561081e5760405162461bcd60e51b81526004016103b490611935565b61085a610829610bda565b6001600160a01b037f00000000000000000000000000000000000000000000000000000000000000001690836110ea565b5060018055565b60045490565b6001600160a01b0381166000908152600560205260409020545b919050565b600260015414156108a95760405162461bcd60e51b81526004016103b490611a3a565b60026001908155600083815260036020526040902054839160ff9091161515146108d257600080fd5b60008181526003602052604090206008015460ff16156108f157600080fd5b6000838152600360205260408120805490916101009091046001600160a01b031633149061091d610bda565b6001600160a01b0316336001600160a01b0316149050818061093c5750805b6109585760405162461bcd60e51b81526004016103b490611896565b6040805161014081018252845460ff808216151583526001600160a01b03610100928390041660208401526001870154938301939093526002860154606083015260038601546080830152600486015460a083015260058601548316151560c0830152600686015460e0830152600786015490820152600885015490911615156101208201526000906109ea90611145565b905085811015610a0c5760405162461bcd60e51b81526004016103b490611706565b6007840154610a1b90876110de565b600785015583546004546101009091046001600160a01b031690610a3f908861123b565b600455610a766001600160a01b037f00000000000000000000000000000000000000000000000000000000000000001682896110ea565b505060018055505050505050565b610a8c6110da565b6001600160a01b0316610a9d610bda565b6001600160a01b031614610ac35760405162461bcd60e51b81526004016103b4906117a9565b610acd6000611247565b565b610ad761142a565b6001600160a01b03821660009081526005602052604081205460039190610b0690859061026090600190611b5b565b81526020808201929092526040908101600020815161014081018352815460ff80821615158352610100918290046001600160a01b0316958301959095526001830154938201939093526002820154606082015260038201546080820152600482015460a082015260058201548416151560c0820152600682015460e082015260078201549281019290925260080154909116151561012082015292915050565b60008282604051602001610bbc9291906115cc565b60405160208183030381529060405280519060200120905092915050565b6000546001600160a01b031690565b6000610c936004547f00000000000000000000000000000000000000000000000000000000000000006001600160a01b03166370a08231306040518263ffffffff1660e01b8152600401610c3d919061160a565b60206040518083038186803b158015610c5557600080fd5b505afa158015610c69573d6000803e3d6000fd5b505050506040513d601f19601f82011682018060405250810190610c8d9190611580565b9061123b565b905090565b610ca061142a565b50600090815260036020818152604092839020835161014081018552815460ff80821615158352610100918290046001600160a01b03169483019490945260018301549582019590955260028201546060820152928101546080840152600481015460a084015260058101548216151560c0840152600681015460e0840152600781015493830193909352600890920154909116151561012082015290565b610d476110da565b6001600160a01b0316610d58610bda565b6001600160a01b031614610d7e5760405162461bcd60e51b81526004016103b4906117a9565b600081815260036020526040902054819060ff161515600114610da057600080fd5b60008181526003602052604090206008015460ff1615610dbf57600080fd5b6000828152600360205260409020600581015460ff161515600114610df65760405162461bcd60e51b81526004016103b490611763565b6040805161014081018252825460ff808216151583526001600160a01b03610100928390041660208401526001850154938301939093526002840154606083015260038401546080830152600484015460a083015260058401548316151560c0830152600684015460e083015260078401549082015260088301549091161515610120820152600090610e8890611145565b90508015610e9a57610e9a8482610886565b6000610eb78360070154846006015461123b90919063ffffffff16565b600454909150610ec7908261123b565b6004555050600801805460ff191660011790555050565b600081815260036020526040812054829060ff161515600114610f0057600080fd5b60008181526003602052604090206008015460ff1615610f1f57600080fd5b600083815260036020818152604092839020835161014081018552815460ff808216151583526001600160a01b0361010092839004169483019490945260018301549582019590955260028201546060820152928101546080840152600481015460a084015260058101548216151560c0840152600681015460e08401526007810154938301939093526008830154161515610120820152610fc090611145565b949350505050565b610fd06110da565b6001600160a01b0316610fe1610bda565b6001600160a01b0316146110075760405162461bcd60e51b81526004016103b4906117a9565b6001600160a01b03811661102d5760405162461bcd60e51b81526004016103b490611673565b61103681611247565b50565b61104161142a565b61104e6102aa8484610ba7565b9392505050565b6001600160a01b038116600090815260056020526040812054611079908390610ba7565b92915050565b600061108961036f565b82106110a75760405162461bcd60e51b81526004016103b490611813565b600282815481106110c857634e487b7160e01b600052603260045260246000fd5b90600052602060002001549050919050565b3390565b600061104e8284611b04565b6111408363a9059cbb60e01b848460405160240161110992919061161e565b60408051601f198184030181529190526020810180516001600160e01b03166001600160e01b031990931692909217909152611297565b505050565b600080611150611326565b9050826040015181108061116b575061012083015115156001145b1561117a576000915050610881565b6080830151606084015161118d916110de565b81106111af5761010083015160e08401516111a79161123b565b915050610881565b60006111c884606001518361123b90919063ffffffff16565b60a085015190915060006111dc838361132a565b905060006111ea8284611336565b90506000611213886080015161120d848b60e0015161133690919063ffffffff16565b9061132a565b905061122d8861010001518261123b90919063ffffffff16565b965061088195505050505050565b600061104e8284611b5b565b600080546001600160a01b038381166001600160a01b0319831681178455604051919092169283917f8be0079c531659141344cd1fd0a4f28419497f9722a3daafe3b4186f6b6457e09190a35050565b60006112ec826040518060400160405280602081526020017f5361666545524332303a206c6f772d6c6576656c2063616c6c206661696c6564815250856001600160a01b03166113429092919063ffffffff16565b805190915015611140578080602001905181019061130a919061154c565b6111405760405162461bcd60e51b81526004016103b490611980565b4290565b600061104e8284611b1c565b600061104e8284611b3c565b6060610fc0848460008585611356856113eb565b6113725760405162461bcd60e51b81526004016103b4906118fe565b600080866001600160a01b0316858760405161138e91906115ee565b60006040518083038185875af1925050503d80600081146113cb576040519150601f19603f3d011682016040523d82523d6000602084013e6113d0565b606091505b50915091506113e08282866113f1565b979650505050505050565b3b151590565b6060831561140057508161104e565b8251156114105782518084602001fd5b8160405162461bcd60e51b81526004016103b49190611640565b60405180610140016040528060001515815260200160006001600160a01b031681526020016000815260200160008152602001600081526020016000815260200160001515815260200160008152602001600081526020016000151581525090565b80356001600160a01b038116811461088157600080fd5b6000602082840312156114b4578081fd5b61104e8261148c565b600080604083850312156114cf578081fd5b6114d88361148c565b946020939093013593505050565b600080600080600080600060e0888a031215611500578283fd5b6115098861148c565b96506020880135955060408801359450606088013593506080880135925060a088013561153581611bb8565b8092505060c0880135905092959891949750929550565b60006020828403121561155d578081fd5b815161104e81611bb8565b600060208284031215611579578081fd5b5035919050565b600060208284031215611591578081fd5b5051919050565b600080604083850312156115aa578182fd5b50508035926020909101359150565b6001600160a01b03169052565b15159052565b60609290921b6bffffffffffffffffffffffff19168252601482015260340190565b60008251611600818460208701611b72565b9190910192915050565b6001600160a01b0391909116815260200190565b6001600160a01b03929092168252602082015260400190565b90815260200190565b600060208252825180602084015261165f816040850160208701611b72565b601f01601f19169190910160400192915050565b60208082526026908201527f4f776e61626c653a206e6577206f776e657220697320746865207a65726f206160408201526564647265737360d01b606082015260800190565b6020808252602d908201527f546f6b656e56657374696e673a20736c696365506572696f645365636f6e647360408201526c206d757374206265203e3d203160981b606082015260800190565b6020808252603d908201527f546f6b656e56657374696e673a2063616e6e6f742072656c6561736520746f6b60408201527f656e732c206e6f7420656e6f7567682076657374656420746f6b656e73000000606082015260800190565b60208082526026908201527f546f6b656e56657374696e673a2076657374696e67206973206e6f74207265766040820152656f6361626c6560d01b606082015260800190565b6020808252818101527f4f776e61626c653a2063616c6c6572206973206e6f7420746865206f776e6572604082015260600190565b6020808252818101527f546f6b656e56657374696e673a20616d6f756e74206d757374206265203e2030604082015260600190565b60208082526021908201527f546f6b656e56657374696e673a20696e646578206f7574206f6620626f756e646040820152607360f81b606082015260800190565b60208082526022908201527f546f6b656e56657374696e673a206475726174696f6e206d757374206265203e604082015261020360f41b606082015260800190565b60208082526042908201527f546f6b656e56657374696e673a206f6e6c792062656e6566696369617279206160408201527f6e64206f776e65722063616e2072656c656173652076657374656420746f6b656060820152616e7360f01b608082015260a00190565b6020808252601d908201527f416464726573733a2063616c6c20746f206e6f6e2d636f6e7472616374000000604082015260600190565b6020808252602b908201527f546f6b656e56657374696e673a206e6f7420656e6f756768207769746864726160408201526a7761626c652066756e647360a81b606082015260800190565b6020808252602a908201527f5361666545524332303a204552433230206f7065726174696f6e20646964206e6040820152691bdd081cdd58d8d9595960b21b606082015260800190565b6020808252604a908201527f546f6b656e56657374696e673a2063616e6e6f7420637265617465207665737460408201527f696e67207363686564756c652062656361757365206e6f742073756666696369606082015269656e7420746f6b656e7360b01b608082015260a00190565b6020808252601f908201527f5265656e7472616e637947756172643a207265656e7472616e742063616c6c00604082015260600190565b600061014082019050611a858284516115c6565b6020830151611a9760208401826115b9565b5060408301516040830152606083015160608301526080830151608083015260a083015160a083015260c0830151611ad260c08401826115c6565b5060e083015160e083015261010080840151818401525061012080840151611afc828501826115c6565b505092915050565b60008219821115611b1757611b17611ba2565b500190565b600082611b3757634e487b7160e01b81526012600452602481fd5b500490565b6000816000190483118215151615611b5657611b56611ba2565b500290565b600082821015611b6d57611b6d611ba2565b500390565b60005b83811015611b8d578181015183820152602001611b75565b83811115611b9c576000848401525b50505050565b634e487b7160e01b600052601160045260246000fd5b801515811461103657600080fdfea2646970667358221220029b1a2f7e96fde179e0f2b3bc83d7982060e0af1301c611be1607843296eab864736f6c63430008000033",
  "immutableReferences": {
    "4342": [
      {
        "length": 32,
        "start": 1797
      },
      {
        "length": 32,
        "start": 2099
      },
      {
        "length": 32,
        "start": 2639
      },
      {
        "length": 32,
        "start": 3059
      }
    ]
  },
  "source": "// SPDX-License-Identifier: Apache-2.0\r\npragma solidity ^0.8.0;\r\n\r\nimport \"@openzeppelin/contracts/token/ERC20/IERC20.sol\";\r\nimport \"@openzeppelin/contracts/token/ERC20/utils/SafeERC20.sol\";\r\nimport \"@openzeppelin/contracts/security/ReentrancyGuard.sol\";\r\nimport \"@openzeppelin/contracts/access/Ownable.sol\";\r\nimport \"@openzeppelin/contracts/utils/math/Math.sol\";\r\nimport \"@openzeppelin/contracts/utils/math/SafeMath.sol\";\r\n\r\ncontract TokenVesting is Ownable, ReentrancyGuard{\r\n    using SafeMath for uint256;\r\n    using SafeERC20 for IERC20;\r\n    struct VestingSchedule{\r\n        bool initialized;\r\n        // beneficiary of tokens after they are released\r\n        address  beneficiary;\r\n        // cliff period in seconds\r\n        uint256  cliff;\r\n        // start time of the vesting period\r\n        uint256  start;\r\n        // duration of the vesting period in seconds\r\n        uint256  duration;\r\n        // duration of a slice period for the vesting in seconds\r\n        uint256 slicePeriodSeconds;\r\n        // whether or not the vesting is revocable\r\n        bool  revocable;\r\n        // total amount of tokens to be released at the end of the vesting\r\n        uint256 amountTotal;\r\n        // amount of tokens released\r\n        uint256  released;\r\n        // whether or not the vesting has been revoked\r\n        bool revoked;\r\n    }\r\n\r\n    // address of the ERC20 token\r\n    IERC20 immutable private _token;\r\n\r\n    bytes32[] private vestingSchedulesIds;\r\n    mapping(bytes32 => VestingSchedule) private vestingSchedules;\r\n    uint256 private vestingSchedulesTotalAmount;\r\n    mapping(address => uint256) private holdersVestingCount;\r\n\r\n    event Released(uint256 amount);\r\n    event Revoked();\r\n\r\n    /**\r\n    * @dev Reverts if no vesting schedule matches the passed identifier.\r\n    */\r\n    modifier onlyIfVestingScheduleExists(bytes32 vestingScheduleId) {\r\n        require(vestingSchedules[vestingScheduleId].initialized == true);\r\n        _;\r\n    }\r\n\r\n    /**\r\n    * @dev Reverts if the vesting schedule does not exist or has been revoked.\r\n    */\r\n    modifier onlyIfVestingScheduleNotRevoked(bytes32 vestingScheduleId) {\r\n        require(vestingSchedules[vestingScheduleId].initialized == true);\r\n        require(vestingSchedules[vestingScheduleId].revoked == false);\r\n        _;\r\n    }\r\n\r\n    /**\r\n     * @dev Creates a vesting contract.\r\n     * @param token_ address of the ERC20 token contract\r\n     */\r\n    constructor(address token_) {\r\n        require(token_ != address(0x0));\r\n        _token = IERC20(token_);\r\n    }\r\n\r\n    receive() external payable {}\r\n\r\n    fallback() external payable {}\r\n\r\n    /**\r\n    * @dev Returns the number of vesting schedules associated to a beneficiary.\r\n    * @return the number of vesting schedules\r\n    */\r\n    function getVestingSchedulesCountByBeneficiary(address _beneficiary)\r\n    external\r\n    view\r\n    returns(uint256){\r\n        return holdersVestingCount[_beneficiary];\r\n    }\r\n\r\n    /**\r\n    * @dev Returns the vesting schedule id at the given index.\r\n    * @return the vesting id\r\n    */\r\n    function getVestingIdAtIndex(uint256 index)\r\n    external\r\n    view\r\n    returns(bytes32){\r\n        require(index < getVestingSchedulesCount(), \"TokenVesting: index out of bounds\");\r\n        return vestingSchedulesIds[index];\r\n    }\r\n\r\n    /**\r\n    * @notice Returns the vesting schedule information for a given holder and index.\r\n    * @return the vesting schedule structure information\r\n    */\r\n    function getVestingScheduleByAddressAndIndex(address holder, uint256 index)\r\n    external\r\n    view\r\n    returns(VestingSchedule memory){\r\n        return getVestingSchedule(computeVestingScheduleIdForAddressAndIndex(holder, index));\r\n    }\r\n\r\n\r\n    /**\r\n    * @notice Returns the total amount of vesting schedules.\r\n    * @return the total amount of vesting schedules\r\n    */\r\n    function getVestingSchedulesTotalAmount()\r\n    external\r\n    view\r\n    returns(uint256){\r\n        return vestingSchedulesTotalAmount;\r\n    }\r\n\r\n    /**\r\n    * @dev Returns the address of the ERC20 token managed by the vesting contract.\r\n    */\r\n    function getToken()\r\n    external\r\n    view\r\n    returns(address){\r\n        return address(_token);\r\n    }\r\n\r\n    /**\r\n    * @notice Creates a new vesting schedule for a beneficiary.\r\n    * @param _beneficiary address of the beneficiary to whom vested tokens are transferred\r\n    * @param _start start time of the vesting period\r\n    * @param _cliff duration in seconds of the cliff in which tokens will begin to vest\r\n    * @param _duration duration in seconds of the period in which the tokens will vest\r\n    * @param _slicePeriodSeconds duration of a slice period for the vesting in seconds\r\n    * @param _revocable whether the vesting is revocable or not\r\n    * @param _amount total amount of tokens to be released at the end of the vesting\r\n    */\r\n    function createVestingSchedule(\r\n        address _beneficiary,\r\n        uint256 _start,\r\n        uint256 _cliff,\r\n        uint256 _duration,\r\n        uint256 _slicePeriodSeconds,\r\n        bool _revocable,\r\n        uint256 _amount\r\n    )\r\n    public\r\n    onlyOwner{\r\n        require(\r\n            this.getWithdrawableAmount() >= _amount,\r\n            \"TokenVesting: cannot create vesting schedule because not sufficient tokens\"\r\n        );\r\n        require(_duration > 0, \"TokenVesting: duration must be > 0\");\r\n        require(_amount > 0, \"TokenVesting: amount must be > 0\");\r\n        require(_slicePeriodSeconds >= 1, \"TokenVesting: slicePeriodSeconds must be >= 1\");\r\n        bytes32 vestingScheduleId = this.computeNextVestingScheduleIdForHolder(_beneficiary);\r\n        uint256 cliff = _start.add(_cliff);\r\n        vestingSchedules[vestingScheduleId] = VestingSchedule(\r\n            true,\r\n            _beneficiary,\r\n            cliff,\r\n            _start,\r\n            _duration,\r\n            _slicePeriodSeconds,\r\n            _revocable,\r\n            _amount,\r\n            0,\r\n            false\r\n        );\r\n        vestingSchedulesTotalAmount = vestingSchedulesTotalAmount.add(_amount);\r\n        vestingSchedulesIds.push(vestingScheduleId);\r\n        uint256 currentVestingCount = holdersVestingCount[_beneficiary];\r\n        holdersVestingCount[_beneficiary] = currentVestingCount.add(1);\r\n    }\r\n\r\n    /**\r\n    * @notice Revokes the vesting schedule for given identifier.\r\n    * @param vestingScheduleId the vesting schedule identifier\r\n    */\r\n    function revoke(bytes32 vestingScheduleId)\r\n    public\r\n    onlyOwner\r\n    onlyIfVestingScheduleNotRevoked(vestingScheduleId){\r\n        VestingSchedule storage vestingSchedule = vestingSchedules[vestingScheduleId];\r\n        require(vestingSchedule.revocable == true, \"TokenVesting: vesting is not revocable\");\r\n        uint256 vestedAmount = _computeReleasableAmount(vestingSchedule);\r\n        if(vestedAmount > 0){\r\n            release(vestingScheduleId, vestedAmount);\r\n        }\r\n        uint256 unreleased = vestingSchedule.amountTotal.sub(vestingSchedule.released);\r\n        vestingSchedulesTotalAmount = vestingSchedulesTotalAmount.sub(unreleased);\r\n        vestingSchedule.revoked = true;\r\n    }\r\n\r\n    /**\r\n    * @notice Withdraw the specified amount if possible.\r\n    * @param amount the amount to withdraw\r\n    */\r\n    function withdraw(uint256 amount)\r\n    public\r\n    nonReentrant\r\n    onlyOwner{\r\n        require(this.getWithdrawableAmount() >= amount, \"TokenVesting: not enough withdrawable funds\");\r\n        _token.safeTransfer(owner(), amount);\r\n    }\r\n\r\n    /**\r\n    * @notice Release vested amount of tokens.\r\n    * @param vestingScheduleId the vesting schedule identifier\r\n    * @param amount the amount to release\r\n    */\r\n    function release(\r\n        bytes32 vestingScheduleId,\r\n        uint256 amount\r\n    )\r\n    public\r\n    nonReentrant\r\n    onlyIfVestingScheduleNotRevoked(vestingScheduleId){\r\n        VestingSchedule storage vestingSchedule = vestingSchedules[vestingScheduleId];\r\n        bool isBeneficiary = msg.sender == vestingSchedule.beneficiary;\r\n        bool isOwner = msg.sender == owner();\r\n        require(\r\n            isBeneficiary || isOwner,\r\n            \"TokenVesting: only beneficiary and owner can release vested tokens\"\r\n        );\r\n        uint256 vestedAmount = _computeReleasableAmount(vestingSchedule);\r\n        require(vestedAmount >= amount, \"TokenVesting: cannot release tokens, not enough vested tokens\");\r\n        vestingSchedule.released = vestingSchedule.released.add(amount);\r\n        address payable beneficiaryPayable = payable(vestingSchedule.beneficiary);\r\n        vestingSchedulesTotalAmount = vestingSchedulesTotalAmount.sub(amount);\r\n        _token.safeTransfer(beneficiaryPayable, amount);\r\n    }\r\n\r\n    /**\r\n    * @dev Returns the number of vesting schedules managed by this contract.\r\n    * @return the number of vesting schedules\r\n    */\r\n    function getVestingSchedulesCount()\r\n    public\r\n    view\r\n    returns(uint256){\r\n        return vestingSchedulesIds.length;\r\n    }\r\n\r\n    /**\r\n    * @notice Computes the vested amount of tokens for the given vesting schedule identifier.\r\n    * @return the vested amount\r\n    */\r\n    function computeReleasableAmount(bytes32 vestingScheduleId)\r\n    public\r\n    onlyIfVestingScheduleNotRevoked(vestingScheduleId)\r\n    view\r\n    returns(uint256){\r\n        VestingSchedule storage vestingSchedule = vestingSchedules[vestingScheduleId];\r\n        return _computeReleasableAmount(vestingSchedule);\r\n    }\r\n\r\n    /**\r\n    * @notice Returns the vesting schedule information for a given identifier.\r\n    * @return the vesting schedule structure information\r\n    */\r\n    function getVestingSchedule(bytes32 vestingScheduleId)\r\n    public\r\n    view\r\n    returns(VestingSchedule memory){\r\n        return vestingSchedules[vestingScheduleId];\r\n    }\r\n\r\n    /**\r\n    * @dev Returns the amount of tokens that can be withdrawn by the owner.\r\n    * @return the amount of tokens\r\n    */\r\n    function getWithdrawableAmount()\r\n    public\r\n    view\r\n    returns(uint256){\r\n        return _token.balanceOf(address(this)).sub(vestingSchedulesTotalAmount);\r\n    }\r\n\r\n    /**\r\n    * @dev Computes the next vesting schedule identifier for a given holder address.\r\n    */\r\n    function computeNextVestingScheduleIdForHolder(address holder)\r\n    public\r\n    view\r\n    returns(bytes32){\r\n        return computeVestingScheduleIdForAddressAndIndex(holder, holdersVestingCount[holder]);\r\n    }\r\n\r\n    /**\r\n    * @dev Returns the last vesting schedule for a given holder address.\r\n    */\r\n    function getLastVestingScheduleForHolder(address holder)\r\n    public\r\n    view\r\n    returns(VestingSchedule memory){\r\n        return vestingSchedules[computeVestingScheduleIdForAddressAndIndex(holder, holdersVestingCount[holder] - 1)];\r\n    }\r\n\r\n    /**\r\n    * @dev Computes the vesting schedule identifier for an address and an index.\r\n    */\r\n    function computeVestingScheduleIdForAddressAndIndex(address holder, uint256 index)\r\n    public\r\n    pure\r\n    returns(bytes32){\r\n        return keccak256(abi.encodePacked(holder, index));\r\n    }\r\n\r\n    /**\r\n    * @dev Computes the releasable amount of tokens for a vesting schedule.\r\n    * @return the amount of releasable tokens\r\n    */\r\n    function _computeReleasableAmount(VestingSchedule memory vestingSchedule)\r\n    internal\r\n    view\r\n    returns(uint256){\r\n        uint256 currentTime = getCurrentTime();\r\n        if ((currentTime < vestingSchedule.cliff) || vestingSchedule.revoked == true) {\r\n            return 0;\r\n        } else if (currentTime >= vestingSchedule.start.add(vestingSchedule.duration)) {\r\n            return vestingSchedule.amountTotal.sub(vestingSchedule.released);\r\n        } else {\r\n            uint256 timeFromStart = currentTime.sub(vestingSchedule.start);\r\n            uint secondsPerSlice = vestingSchedule.slicePeriodSeconds;\r\n            uint256 vestedSlicePeriods = timeFromStart.div(secondsPerSlice);\r\n            uint256 vestedSeconds = vestedSlicePeriods.mul(secondsPerSlice);\r\n            uint256 vestedAmount = vestingSchedule.amountTotal.mul(vestedSeconds).div(vestingSchedule.duration);\r\n            vestedAmount = vestedAmount.sub(vestingSchedule.released);\r\n            return vestedAmount;\r\n        }\r\n    }\r\n\r\n    function getCurrentTime()\r\n    internal\r\n    virtual\r\n    view\r\n    returns(uint256){\r\n        return block.timestamp;\r\n    }\r\n\r\n}",
  "sourcePath": "D:\\Projetos\\zeroFee\\Platform\\contracts\\VestingContract.sol",
  "compiler": {
    "name": "solc",
    "version": "0.8.0+commit.c7dfd78e.Emscripten.clang"
  },
  "schemaVersion": "3.4.3",
  "updatedAt": "2021-12-14T19:17:10.632Z",
  "devdoc": {
    "kind": "dev",
    "methods": {
      "computeNextVestingScheduleIdForHolder(address)": {
        "details": "Computes the next vesting schedule identifier for a given holder address."
      },
      "computeReleasableAmount(bytes32)": {
        "returns": {
          "_0": "the vested amount"
        }
      },
      "computeVestingScheduleIdForAddressAndIndex(address,uint256)": {
        "details": "Computes the vesting schedule identifier for an address and an index."
      },
      "constructor": {
        "details": "Creates a vesting contract.",
        "params": {
          "token_": "address of the ERC20 token contract"
        }
      },
      "createVestingSchedule(address,uint256,uint256,uint256,uint256,bool,uint256)": {
        "params": {
          "_amount": "total amount of tokens to be released at the end of the vesting",
          "_beneficiary": "address of the beneficiary to whom vested tokens are transferred",
          "_cliff": "duration in seconds of the cliff in which tokens will begin to vest",
          "_duration": "duration in seconds of the period in which the tokens will vest",
          "_revocable": "whether the vesting is revocable or not",
          "_slicePeriodSeconds": "duration of a slice period for the vesting in seconds",
          "_start": "start time of the vesting period"
        }
      },
      "getLastVestingScheduleForHolder(address)": {
        "details": "Returns the last vesting schedule for a given holder address."
      },
      "getToken()": {
        "details": "Returns the address of the ERC20 token managed by the vesting contract."
      },
      "getVestingIdAtIndex(uint256)": {
        "details": "Returns the vesting schedule id at the given index.",
        "returns": {
          "_0": "the vesting id"
        }
      },
      "getVestingSchedule(bytes32)": {
        "returns": {
          "_0": "the vesting schedule structure information"
        }
      },
      "getVestingScheduleByAddressAndIndex(address,uint256)": {
        "returns": {
          "_0": "the vesting schedule structure information"
        }
      },
      "getVestingSchedulesCount()": {
        "details": "Returns the number of vesting schedules managed by this contract.",
        "returns": {
          "_0": "the number of vesting schedules"
        }
      },
      "getVestingSchedulesCountByBeneficiary(address)": {
        "details": "Returns the number of vesting schedules associated to a beneficiary.",
        "returns": {
          "_0": "the number of vesting schedules"
        }
      },
      "getVestingSchedulesTotalAmount()": {
        "returns": {
          "_0": "the total amount of vesting schedules"
        }
      },
      "getWithdrawableAmount()": {
        "details": "Returns the amount of tokens that can be withdrawn by the owner.",
        "returns": {
          "_0": "the amount of tokens"
        }
      },
      "owner()": {
        "details": "Returns the address of the current owner."
      },
      "release(bytes32,uint256)": {
        "params": {
          "amount": "the amount to release",
          "vestingScheduleId": "the vesting schedule identifier"
        }
      },
      "renounceOwnership()": {
        "details": "Leaves the contract without owner. It will not be possible to call `onlyOwner` functions anymore. Can only be called by the current owner. NOTE: Renouncing ownership will leave the contract without an owner, thereby removing any functionality that is only available to the owner."
      },
      "revoke(bytes32)": {
        "params": {
          "vestingScheduleId": "the vesting schedule identifier"
        }
      },
      "transferOwnership(address)": {
        "details": "Transfers ownership of the contract to a new account (`newOwner`). Can only be called by the current owner."
      },
      "withdraw(uint256)": {
        "params": {
          "amount": "the amount to withdraw"
        }
      }
    },
    "version": 1
  },
  "userdoc": {
    "kind": "user",
    "methods": {
      "computeReleasableAmount(bytes32)": {
        "notice": "Computes the vested amount of tokens for the given vesting schedule identifier."
      },
      "createVestingSchedule(address,uint256,uint256,uint256,uint256,bool,uint256)": {
        "notice": "Creates a new vesting schedule for a beneficiary."
      },
      "getVestingSchedule(bytes32)": {
        "notice": "Returns the vesting schedule information for a given identifier."
      },
      "getVestingScheduleByAddressAndIndex(address,uint256)": {
        "notice": "Returns the vesting schedule information for a given holder and index."
      },
      "getVestingSchedulesTotalAmount()": {
        "notice": "Returns the total amount of vesting schedules."
      },
      "release(bytes32,uint256)": {
        "notice": "Release vested amount of tokens."
      },
      "revoke(bytes32)": {
        "notice": "Revokes the vesting schedule for given identifier."
      },
      "withdraw(uint256)": {
        "notice": "Withdraw the specified amount if possible."
      }
    },
    "version": 1
  }
}