{
  "contractName": "LowFeeAssets",
  "abi": [
    {
      "inputs": [
        {
          "internalType": "address",
          "name": "",
          "type": "address"
        },
        {
          "internalType": "uint256",
          "name": "",
          "type": "uint256"
        }
      ],
      "name": "_assets",
      "outputs": [
        {
          "internalType": "contract LowFeeCampaign",
          "name": "",
          "type": "address"
        }
      ],
      "stateMutability": "view",
      "type": "function",
      "constant": true
    },
    {
      "inputs": [],
      "name": "getMyAssetsLength",
      "outputs": [
        {
          "internalType": "uint256",
          "name": "",
          "type": "uint256"
        }
      ],
      "stateMutability": "view",
      "type": "function",
      "constant": true
    },
    {
      "inputs": [
        {
          "internalType": "uint256",
          "name": "index",
          "type": "uint256"
        }
      ],
      "name": "getMyAsset",
      "outputs": [
        {
          "internalType": "contract LowFeeCampaign",
          "name": "",
          "type": "address"
        }
      ],
      "stateMutability": "view",
      "type": "function",
      "constant": true
    },
    {
      "inputs": [
        {
          "internalType": "contract LowFeeCampaign",
          "name": "campaign",
          "type": "address"
        }
      ],
      "name": "buyNewAssetFromCampaign",
      "outputs": [],
      "stateMutability": "payable",
      "type": "function",
      "payable": true
    }
  ],
  "bytecode": "0x60806040527374fda6b5e26ccc53f50a5cb841c877a875b8b5706000806101000a81548173ffffffffffffffffffffffffffffffffffffffff021916908373ffffffffffffffffffffffffffffffffffffffff16021790555034801561006457600080fd5b506108ea806100746000396000f3fe60806040526004361061003f5760003560e01c806311eb6c3c146100445780631764f5d414610081578063724f6038146100be578063d8346add146100da575b600080fd5b34801561005057600080fd5b5061006b60048036038101906100669190610566565b610105565b6040516100789190610612565b60405180910390f35b34801561008d57600080fd5b506100a860048036038101906100a3919061066b565b61018a565b6040516100b59190610612565b60405180910390f35b6100d860048036038101906100d391906106e9565b6101d8565b005b3480156100e657600080fd5b506100ef6104e1565b6040516100fc9190610725565b60405180910390f35b6000600160003373ffffffffffffffffffffffffffffffffffffffff1673ffffffffffffffffffffffffffffffffffffffff168152602001908152602001600020828154811061015857610157610740565b5b9060005260206000200160009054906101000a900473ffffffffffffffffffffffffffffffffffffffff169050919050565b600160205281600052604060002081815481106101a657600080fd5b906000526020600020016000915091509054906101000a900473ffffffffffffffffffffffffffffffffffffffff1681565b6000341161021b576040517f08c379a0000000000000000000000000000000000000000000000000000000008152600401610212906107f2565b60405180910390fd5b8073ffffffffffffffffffffffffffffffffffffffff1663f088d54734336040518363ffffffff1660e01b81526004016102559190610821565b6000604051808303818588803b15801561026e57600080fd5b505af1158015610282573d6000803e3d6000fd5b50505050506000805b600160003373ffffffffffffffffffffffffffffffffffffffff1673ffffffffffffffffffffffffffffffffffffffff16815260200190815260200160002080549050811015610436578273ffffffffffffffffffffffffffffffffffffffff16600160003373ffffffffffffffffffffffffffffffffffffffff1673ffffffffffffffffffffffffffffffffffffffff168152602001908152602001600020828154811061033d5761033c610740565b5b9060005260206000200160009054906101000a900473ffffffffffffffffffffffffffffffffffffffff1673ffffffffffffffffffffffffffffffffffffffff1614156104235782600160003373ffffffffffffffffffffffffffffffffffffffff1673ffffffffffffffffffffffffffffffffffffffff16815260200190815260200160002082815481106103d6576103d5610740565b5b9060005260206000200160006101000a81548173ffffffffffffffffffffffffffffffffffffffff021916908373ffffffffffffffffffffffffffffffffffffffff160217905550600191505b808061042e9061086b565b91505061028b565b50806104dd57600160003373ffffffffffffffffffffffffffffffffffffffff1673ffffffffffffffffffffffffffffffffffffffff168152602001908152602001600020829080600181540180825580915050600190039060005260206000200160009091909190916101000a81548173ffffffffffffffffffffffffffffffffffffffff021916908373ffffffffffffffffffffffffffffffffffffffff1602179055505b5050565b6000600160003373ffffffffffffffffffffffffffffffffffffffff1673ffffffffffffffffffffffffffffffffffffffff16815260200190815260200160002080549050905090565b600080fd5b6000819050919050565b61054381610530565b811461054e57600080fd5b50565b6000813590506105608161053a565b92915050565b60006020828403121561057c5761057b61052b565b5b600061058a84828501610551565b91505092915050565b600073ffffffffffffffffffffffffffffffffffffffff82169050919050565b6000819050919050565b60006105d86105d36105ce84610593565b6105b3565b610593565b9050919050565b60006105ea826105bd565b9050919050565b60006105fc826105df565b9050919050565b61060c816105f1565b82525050565b60006020820190506106276000830184610603565b92915050565b600061063882610593565b9050919050565b6106488161062d565b811461065357600080fd5b50565b6000813590506106658161063f565b92915050565b600080604083850312156106825761068161052b565b5b600061069085828601610656565b92505060206106a185828601610551565b9150509250929050565b60006106b68261062d565b9050919050565b6106c6816106ab565b81146106d157600080fd5b50565b6000813590506106e3816106bd565b92915050565b6000602082840312156106ff576106fe61052b565b5b600061070d848285016106d4565b91505092915050565b61071f81610530565b82525050565b600060208201905061073a6000830184610716565b92915050565b7f4e487b7100000000000000000000000000000000000000000000000000000000600052603260045260246000fd5b600082825260208201905092915050565b7f596f75206e65656420746f20616464207468652076616c756520796f7520776160008201527f6e7420746f206275792100000000000000000000000000000000000000000000602082015250565b60006107dc602a8361076f565b91506107e782610780565b604082019050919050565b6000602082019050818103600083015261080b816107cf565b9050919050565b61081b8161062d565b82525050565b60006020820190506108366000830184610812565b92915050565b7f4e487b7100000000000000000000000000000000000000000000000000000000600052601160045260246000fd5b600061087682610530565b91507fffffffffffffffffffffffffffffffffffffffffffffffffffffffffffffffff8214156108a9576108a861083c565b5b60018201905091905056fea2646970667358221220529b7ca86cb93c9422b43bb358c902f11fd0d69feb01ab6fad29df599dc4e93764736f6c634300080a0033",
  "immutableReferences": {},
  "source": "//SPDX-License-Identifier: UNLICENSED\r\npragma solidity ^0.8.0;\r\n\r\nimport \"@openzeppelin/contracts/token/ERC20/ERC20.sol\";\r\nimport \"./LowFeeCampaign.sol\";\r\n\r\ncontract LowFeeAssets {\r\n\r\n    address private entityOwner = 0x74fDA6B5e26ccC53f50a5cb841c877A875B8B570;\r\n\r\n    mapping(address => LowFeeCampaign[]) public _assets;\r\n\r\n    function getMyAssetsLength() public view returns(uint){\r\n        return _assets[address(msg.sender)].length;\r\n    }\r\n    function getMyAsset(uint index) public view returns(LowFeeCampaign){\r\n        return _assets[address(msg.sender)][index];\r\n    }\r\n    function buyNewAssetFromCampaign(LowFeeCampaign campaign) payable external {\r\n        require(msg.value > 0, \"You need to add the value you want to buy!\");\r\n        campaign.buy{value: msg.value}(msg.sender);\r\n        bool found = false;\r\n        for (uint i=0; i < _assets[msg.sender].length; i++) {\r\n            if(address(_assets[msg.sender][i]) == address(campaign)){\r\n                _assets[msg.sender][i] = campaign;\r\n                found = true;\r\n            }\r\n        }\r\n        if(!found){\r\n            _assets[msg.sender].push(campaign);\r\n        }\r\n    }\r\n\r\n}\r\n",
  "sourcePath": "D:\\Projetos\\zeroFee\\Platform\\contracts\\LowFeeAssets.sol",
  "compiler": {
    "name": "solc",
    "version": "0.8.10+commit.fc410830.Emscripten.clang"
  },
  "schemaVersion": "3.4.3",
  "updatedAt": "2021-12-07T22:17:32.985Z",
  "networkType": "ethereum",
  "devdoc": {
    "kind": "dev",
    "methods": {},
    "version": 1
  },
  "userdoc": {
    "kind": "user",
    "methods": {},
    "version": 1
  }
}