{
  "contractName": "LowFeeCampaign",
  "abi": [
    {
      "inputs": [
        {
          "internalType": "string",
          "name": "title",
          "type": "string"
        },
        {
          "internalType": "string",
          "name": "descriptionUrl",
          "type": "string"
        },
        {
          "internalType": "string",
          "name": "logoUrl",
          "type": "string"
        },
        {
          "internalType": "string",
          "name": "auditUrl",
          "type": "string"
        },
        {
          "internalType": "uint256",
          "name": "coinRate",
          "type": "uint256"
        },
        {
          "internalType": "uint256",
          "name": "goal",
          "type": "uint256"
        },
        {
          "internalType": "uint256",
          "name": "startDate",
          "type": "uint256"
        },
        {
          "internalType": "uint256",
          "name": "endDate",
          "type": "uint256"
        },
        {
          "internalType": "address",
          "name": "owner",
          "type": "address"
        },
        {
          "internalType": "contract IERC20",
          "name": "token",
          "type": "address"
        }
      ],
      "stateMutability": "nonpayable",
      "type": "constructor"
    },
    {
      "inputs": [],
      "name": "_auditUrl",
      "outputs": [
        {
          "internalType": "string",
          "name": "",
          "type": "string"
        }
      ],
      "stateMutability": "view",
      "type": "function"
    },
    {
      "inputs": [],
      "name": "_coinRate",
      "outputs": [
        {
          "internalType": "uint256",
          "name": "",
          "type": "uint256"
        }
      ],
      "stateMutability": "view",
      "type": "function"
    },
    {
      "inputs": [],
      "name": "_descriptionUrl",
      "outputs": [
        {
          "internalType": "string",
          "name": "",
          "type": "string"
        }
      ],
      "stateMutability": "view",
      "type": "function"
    },
    {
      "inputs": [],
      "name": "_endDate",
      "outputs": [
        {
          "internalType": "uint256",
          "name": "",
          "type": "uint256"
        }
      ],
      "stateMutability": "view",
      "type": "function"
    },
    {
      "inputs": [],
      "name": "_endVestingDate",
      "outputs": [
        {
          "internalType": "uint256",
          "name": "",
          "type": "uint256"
        }
      ],
      "stateMutability": "view",
      "type": "function"
    },
    {
      "inputs": [],
      "name": "_goal",
      "outputs": [
        {
          "internalType": "uint256",
          "name": "",
          "type": "uint256"
        }
      ],
      "stateMutability": "view",
      "type": "function"
    },
    {
      "inputs": [],
      "name": "_logoUrl",
      "outputs": [
        {
          "internalType": "string",
          "name": "",
          "type": "string"
        }
      ],
      "stateMutability": "view",
      "type": "function"
    },
    {
      "inputs": [],
      "name": "_offerSupply",
      "outputs": [
        {
          "internalType": "uint256",
          "name": "",
          "type": "uint256"
        }
      ],
      "stateMutability": "view",
      "type": "function"
    },
    {
      "inputs": [],
      "name": "_owner",
      "outputs": [
        {
          "internalType": "address",
          "name": "",
          "type": "address"
        }
      ],
      "stateMutability": "view",
      "type": "function"
    },
    {
      "inputs": [],
      "name": "_reviewNote",
      "outputs": [
        {
          "internalType": "string",
          "name": "",
          "type": "string"
        }
      ],
      "stateMutability": "view",
      "type": "function"
    },
    {
      "inputs": [],
      "name": "_score",
      "outputs": [
        {
          "internalType": "uint256",
          "name": "",
          "type": "uint256"
        }
      ],
      "stateMutability": "view",
      "type": "function"
    },
    {
      "inputs": [],
      "name": "_startDate",
      "outputs": [
        {
          "internalType": "uint256",
          "name": "",
          "type": "uint256"
        }
      ],
      "stateMutability": "view",
      "type": "function"
    },
    {
      "inputs": [],
      "name": "_status",
      "outputs": [
        {
          "internalType": "enum LowFeeCampaign.CampaignStatus",
          "name": "",
          "type": "uint8"
        }
      ],
      "stateMutability": "view",
      "type": "function"
    },
    {
      "inputs": [],
      "name": "_title",
      "outputs": [
        {
          "internalType": "string",
          "name": "",
          "type": "string"
        }
      ],
      "stateMutability": "view",
      "type": "function"
    },
    {
      "inputs": [],
      "name": "_token",
      "outputs": [
        {
          "internalType": "contract IERC20",
          "name": "",
          "type": "address"
        }
      ],
      "stateMutability": "view",
      "type": "function"
    },
    {
      "inputs": [
        {
          "internalType": "uint256",
          "name": "periodInDays",
          "type": "uint256"
        }
      ],
      "name": "setupVesting",
      "outputs": [],
      "stateMutability": "nonpayable",
      "type": "function"
    },
    {
      "inputs": [],
      "name": "checkTokens",
      "outputs": [],
      "stateMutability": "nonpayable",
      "type": "function"
    },
    {
      "inputs": [],
      "name": "submitToReview",
      "outputs": [],
      "stateMutability": "nonpayable",
      "type": "function"
    },
    {
      "inputs": [
        {
          "internalType": "uint256",
          "name": "score",
          "type": "uint256"
        },
        {
          "internalType": "bool",
          "name": "approved",
          "type": "bool"
        },
        {
          "internalType": "string",
          "name": "reviewNote",
          "type": "string"
        }
      ],
      "name": "review",
      "outputs": [],
      "stateMutability": "nonpayable",
      "type": "function"
    },
    {
      "inputs": [
        {
          "internalType": "address",
          "name": "buyer",
          "type": "address"
        }
      ],
      "name": "buy",
      "outputs": [],
      "stateMutability": "payable",
      "type": "function"
    },
    {
      "inputs": [
        {
          "internalType": "address",
          "name": "account",
          "type": "address"
        }
      ],
      "name": "balanceOf",
      "outputs": [
        {
          "internalType": "uint256",
          "name": "",
          "type": "uint256"
        }
      ],
      "stateMutability": "view",
      "type": "function"
    },
    {
      "inputs": [],
      "name": "claimTokens",
      "outputs": [
        {
          "internalType": "bool",
          "name": "",
          "type": "bool"
        }
      ],
      "stateMutability": "nonpayable",
      "type": "function"
    }
  ],
  "bytecode": "0x60806040527374fda6b5e26ccc53f50a5cb841c877a875b8b570600f60006101000a81548173ffffffffffffffffffffffffffffffffffffffff021916908373ffffffffffffffffffffffffffffffffffffffff1602179055503480156200006657600080fd5b5060405162002bc838038062002bc883398181016040528101906200008c9190620006eb565b60008a5111620000d3576040517f08c379a0000000000000000000000000000000000000000000000000000000008152600401620000ca90620008be565b60405180910390fd5b60008851116200011a576040517f08c379a0000000000000000000000000000000000000000000000000000000008152600401620001119062000930565b60405180910390fd5b600089511162000161576040517f08c379a00000000000000000000000000000000000000000000000000000000081526004016200015890620009a2565b60405180910390fd5b6001861015620001a8576040517f08c379a00000000000000000000000000000000000000000000000000000000081526004016200019f9062000a14565b60405180910390fd5b60008511620001ee576040517f08c379a0000000000000000000000000000000000000000000000000000000008152600401620001e59062000a86565b60405180910390fd5b6000841162000234576040517f08c379a00000000000000000000000000000000000000000000000000000000081526004016200022b9062000af8565b60405180910390fd5b83831162000279576040517f08c379a0000000000000000000000000000000000000000000000000000000008152600401620002709062000b90565b60405180910390fd5b896000908051906020019062000291929190620003b9565b508860019080519060200190620002aa929190620003b9565b508760029080519060200190620002c3929190620003b9565b508660039080519060200190620002dc929190620003b9565b508560048190555084600581905550836006819055508260078190555081600e60006101000a81548173ffffffffffffffffffffffffffffffffffffffff021916908373ffffffffffffffffffffffffffffffffffffffff16021790555080600c60006101000a81548173ffffffffffffffffffffffffffffffffffffffff021916908373ffffffffffffffffffffffffffffffffffffffff1602179055506000600960006101000a81548160ff02191690836006811115620003a457620003a362000bb2565b5b02179055505050505050505050505062000c46565b828054620003c79062000c10565b90600052602060002090601f016020900481019282620003eb576000855562000437565b82601f106200040657805160ff191683800117855562000437565b8280016001018555821562000437579182015b828111156200043657825182559160200191906001019062000419565b5b5090506200044691906200044a565b5090565b5b80821115620004655760008160009055506001016200044b565b5090565b6000604051905090565b600080fd5b600080fd5b600080fd5b600080fd5b6000601f19601f8301169050919050565b7f4e487b7100000000000000000000000000000000000000000000000000000000600052604160045260246000fd5b620004d28262000487565b810181811067ffffffffffffffff82111715620004f457620004f362000498565b5b80604052505050565b60006200050962000469565b9050620005178282620004c7565b919050565b600067ffffffffffffffff8211156200053a576200053962000498565b5b620005458262000487565b9050602081019050919050565b60005b838110156200057257808201518184015260208101905062000555565b8381111562000582576000848401525b50505050565b60006200059f62000599846200051c565b620004fd565b905082815260208101848484011115620005be57620005bd62000482565b5b620005cb84828562000552565b509392505050565b600082601f830112620005eb57620005ea6200047d565b5b8151620005fd84826020860162000588565b91505092915050565b6000819050919050565b6200061b8162000606565b81146200062757600080fd5b50565b6000815190506200063b8162000610565b92915050565b600073ffffffffffffffffffffffffffffffffffffffff82169050919050565b60006200066e8262000641565b9050919050565b620006808162000661565b81146200068c57600080fd5b50565b600081519050620006a08162000675565b92915050565b6000620006b38262000661565b9050919050565b620006c581620006a6565b8114620006d157600080fd5b50565b600081519050620006e581620006ba565b92915050565b6000806000806000806000806000806101408b8d03121562000712576200071162000473565b5b60008b015167ffffffffffffffff81111562000733576200073262000478565b5b620007418d828e01620005d3565b9a505060208b015167ffffffffffffffff81111562000765576200076462000478565b5b620007738d828e01620005d3565b99505060408b015167ffffffffffffffff81111562000797576200079662000478565b5b620007a58d828e01620005d3565b98505060608b015167ffffffffffffffff811115620007c957620007c862000478565b5b620007d78d828e01620005d3565b9750506080620007ea8d828e016200062a565b96505060a0620007fd8d828e016200062a565b95505060c0620008108d828e016200062a565b94505060e0620008238d828e016200062a565b935050610100620008378d828e016200068f565b9250506101206200084b8d828e01620006d4565b9150509295989b9194979a5092959850565b600082825260208201905092915050565b7f5469746c65206973207265717569726564210000000000000000000000000000600082015250565b6000620008a66012836200085d565b9150620008b3826200086e565b602082019050919050565b60006020820190508181036000830152620008d98162000897565b9050919050565b7f4c6f676f2055726c206973207265717569726564210000000000000000000000600082015250565b6000620009186015836200085d565b91506200092582620008e0565b602082019050919050565b600060208201905081810360008301526200094b8162000909565b9050919050565b7f4465736372697074696f6e2075726c2069732072657175697265642100000000600082015250565b60006200098a601c836200085d565b9150620009978262000952565b602082019050919050565b60006020820190508181036000830152620009bd816200097b565b9050919050565b7f436f696e20526174652069732072657175697265642100000000000000000000600082015250565b6000620009fc6016836200085d565b915062000a0982620009c4565b602082019050919050565b6000602082019050818103600083015262000a2f81620009ed565b9050919050565b7f476f616c20697320726571756972656421000000000000000000000000000000600082015250565b600062000a6e6011836200085d565b915062000a7b8262000a36565b602082019050919050565b6000602082019050818103600083015262000aa18162000a5f565b9050919050565b7f5374617274204461746520697320726571756972656421000000000000000000600082015250565b600062000ae06017836200085d565b915062000aed8262000aa8565b602082019050919050565b6000602082019050818103600083015262000b138162000ad1565b9050919050565b7f53746172742044617465206e6565647320746f2062652062696767657220746860008201527f616e20656e642064617465210000000000000000000000000000000000000000602082015250565b600062000b78602c836200085d565b915062000b858262000b1a565b604082019050919050565b6000602082019050818103600083015262000bab8162000b69565b9050919050565b7f4e487b7100000000000000000000000000000000000000000000000000000000600052602160045260246000fd5b7f4e487b7100000000000000000000000000000000000000000000000000000000600052602260045260246000fd5b6000600282049050600182168062000c2957607f821691505b6020821081141562000c405762000c3f62000be1565b5b50919050565b611f728062000c566000396000f3fe6080604052600436106101355760003560e01c80638b2c9dd4116100ab578063d1b26f9f1161006f578063d1b26f9f146103d0578063dbfa5863146103fb578063ecd0c0c314610426578063f088d54714610451578063f0a2194d1461046d578063fba939f81461049857610135565b80638b2c9dd4146102f9578063a01eda8f14610324578063a4fcfaa81461034f578063ac8daba01461037a578063b2bdfa7b146103a557610135565b80633dd4160e116100fd5780633dd4160e146101fb57806348c54b9d146102245780634b18017b1461024f5780635a66f41a1461027a57806370a08231146102a5578063771c21f0146102e257610135565b80630fb3844c1461013a5780631ce301dc146101655780632653667e1461019057806330358f42146101a75780633ce677bb146101d2575b600080fd5b34801561014657600080fd5b5061014f6104c3565b60405161015c919061135f565b60405180910390f35b34801561017157600080fd5b5061017a6104d6565b6040516101879190611393565b60405180910390f35b34801561019c57600080fd5b506101a56104dc565b005b3480156101b357600080fd5b506101bc610563565b6040516101c99190611447565b60405180910390f35b3480156101de57600080fd5b506101f960048036038101906101f49190611616565b6105f1565b005b34801561020757600080fd5b50610222600480360381019061021d9190611685565b6106d0565b005b34801561023057600080fd5b5061023961087a565b60405161024691906116c1565b60405180910390f35b34801561025b57600080fd5b50610264610aa6565b6040516102719190611447565b60405180910390f35b34801561028657600080fd5b5061028f610b34565b60405161029c9190611447565b60405180910390f35b3480156102b157600080fd5b506102cc60048036038101906102c7919061173a565b610bc2565b6040516102d99190611393565b60405180910390f35b3480156102ee57600080fd5b506102f7610c0b565b005b34801561030557600080fd5b5061030e610f19565b60405161031b9190611447565b60405180910390f35b34801561033057600080fd5b50610339610fa7565b6040516103469190611393565b60405180910390f35b34801561035b57600080fd5b50610364610fad565b6040516103719190611393565b60405180910390f35b34801561038657600080fd5b5061038f610fb3565b60405161039c9190611393565b60405180910390f35b3480156103b157600080fd5b506103ba610fb9565b6040516103c79190611776565b60405180910390f35b3480156103dc57600080fd5b506103e5610fdf565b6040516103f29190611447565b60405180910390f35b34801561040757600080fd5b5061041061106d565b60405161041d9190611393565b60405180910390f35b34801561043257600080fd5b5061043b611073565b60405161044891906117f0565b60405180910390f35b61046b6004803603810190610466919061173a565b611099565b005b34801561047957600080fd5b50610482611239565b60405161048f9190611393565b60405180910390f35b3480156104a457600080fd5b506104ad61123f565b6040516104ba9190611393565b60405180910390f35b600960009054906101000a900460ff1681565b60045481565b600e60009054906101000a900473ffffffffffffffffffffffffffffffffffffffff1673ffffffffffffffffffffffffffffffffffffffff163373ffffffffffffffffffffffffffffffffffffffff161461053657600080fd5b6003600960006101000a81548160ff0219169083600681111561055c5761055b6112e8565b5b0217905550565b600280546105709061183a565b80601f016020809104026020016040519081016040528092919081815260200182805461059c9061183a565b80156105e95780601f106105be576101008083540402835291602001916105e9565b820191906000526020600020905b8154815290600101906020018083116105cc57829003601f168201915b505050505081565b600f60009054906101000a900473ffffffffffffffffffffffffffffffffffffffff1673ffffffffffffffffffffffffffffffffffffffff163373ffffffffffffffffffffffffffffffffffffffff161461064b57600080fd5b826008819055508115610688576004600960006101000a81548160ff0219169083600681111561067e5761067d6112e8565b5b02179055506106b4565b6005600960006101000a81548160ff021916908360068111156106ae576106ad6112e8565b5b02179055505b80600a90805190602001906106ca929190611245565b50505050565b600e60009054906101000a900473ffffffffffffffffffffffffffffffffffffffff1673ffffffffffffffffffffffffffffffffffffffff163373ffffffffffffffffffffffffffffffffffffffff161461072a57600080fd5b601e81101561076e576040517f08c379a0000000000000000000000000000000000000000000000000000000008152600401610765906118de565b60405180910390fd5b61016d8111156107b3576040517f08c379a00000000000000000000000000000000000000000000000000000000081526004016107aa90611970565b60405180910390fd5b600060068111156107c7576107c66112e8565b5b600960009054906101000a900460ff1660068111156107e9576107e86112e8565b5b14610829576040517f08c379a000000000000000000000000000000000000000000000000000000000815260040161082090611a02565b60405180910390fd5b6305265c00816108399190611a51565b6007546108469190611aab565b600d819055506001600960006101000a81548160ff02191690836006811115610872576108716112e8565b5b021790555050565b6000600460068111156108905761088f6112e8565b5b600960009054906101000a900460ff1660068111156108b2576108b16112e8565b5b146108f2576040517f08c379a00000000000000000000000000000000000000000000000000000000081526004016108e990611b4d565b60405180910390fd5b6000601060003373ffffffffffffffffffffffffffffffffffffffff1673ffffffffffffffffffffffffffffffffffffffff1681526020019081526020016000205411610974576040517f08c379a000000000000000000000000000000000000000000000000000000000815260040161096b90611bdf565b60405180910390fd5b6000601060003373ffffffffffffffffffffffffffffffffffffffff1673ffffffffffffffffffffffffffffffffffffffff1681526020019081526020016000205490506000601060003373ffffffffffffffffffffffffffffffffffffffff1673ffffffffffffffffffffffffffffffffffffffff16815260200190815260200160002081905550600c60009054906101000a900473ffffffffffffffffffffffffffffffffffffffff1673ffffffffffffffffffffffffffffffffffffffff1663a9059cbb33836040518363ffffffff1660e01b8152600401610a5a929190611bff565b6020604051808303816000875af1158015610a79573d6000803e3d6000fd5b505050506040513d601f19601f82011682018060405250810190610a9d9190611c3d565b50600191505090565b60038054610ab39061183a565b80601f0160208091040260200160405190810160405280929190818152602001828054610adf9061183a565b8015610b2c5780601f10610b0157610100808354040283529160200191610b2c565b820191906000526020600020905b815481529060010190602001808311610b0f57829003601f168201915b505050505081565b600a8054610b419061183a565b80601f0160208091040260200160405190810160405280929190818152602001828054610b6d9061183a565b8015610bba5780601f10610b8f57610100808354040283529160200191610bba565b820191906000526020600020905b815481529060010190602001808311610b9d57829003601f168201915b505050505081565b6000601060008373ffffffffffffffffffffffffffffffffffffffff1673ffffffffffffffffffffffffffffffffffffffff168152602001908152602001600020549050919050565b600e60009054906101000a900473ffffffffffffffffffffffffffffffffffffffff1673ffffffffffffffffffffffffffffffffffffffff163373ffffffffffffffffffffffffffffffffffffffff1614610c6557600080fd5b6000600c60009054906101000a900473ffffffffffffffffffffffffffffffffffffffff1673ffffffffffffffffffffffffffffffffffffffff166370a08231306040518263ffffffff1660e01b8152600401610cc29190611776565b602060405180830381865afa158015610cdf573d6000803e3d6000fd5b505050506040513d601f19601f82011682018060405250810190610d039190611c7f565b905060016006811115610d1957610d186112e8565b5b600960009054906101000a900460ff166006811115610d3b57610d3a6112e8565b5b14610d7b576040517f08c379a0000000000000000000000000000000000000000000000000000000008152600401610d7290611d1e565b60405180910390fd5b670de0b6b3a7640000811015610dc6576040517f08c379a0000000000000000000000000000000000000000000000000000000008152600401610dbd90611db0565b60405180910390fd5b60006103e8600583610dd89190611a51565b610de29190611dff565b82610ded9190611e30565b905060006103e8600584610e019190611a51565b610e0b9190611dff565b9050600c60009054906101000a900473ffffffffffffffffffffffffffffffffffffffff1673ffffffffffffffffffffffffffffffffffffffff1663a9059cbb600f60009054906101000a900473ffffffffffffffffffffffffffffffffffffffff16836040518363ffffffff1660e01b8152600401610e8c929190611bff565b6020604051808303816000875af1158015610eab573d6000803e3d6000fd5b505050506040513d601f19601f82011682018060405250810190610ecf9190611c3d565b5081600b6000828254610ee29190611aab565b925050819055506002600960006101000a81548160ff02191690836006811115610f0f57610f0e6112e8565b5b0217905550505050565b60018054610f269061183a565b80601f0160208091040260200160405190810160405280929190818152602001828054610f529061183a565b8015610f9f5780601f10610f7457610100808354040283529160200191610f9f565b820191906000526020600020905b815481529060010190602001808311610f8257829003601f168201915b505050505081565b60085481565b600d5481565b60065481565b600e60009054906101000a900473ffffffffffffffffffffffffffffffffffffffff1681565b60008054610fec9061183a565b80601f01602080910402602001604051908101604052809291908181526020018280546110189061183a565b80156110655780601f1061103a57610100808354040283529160200191611065565b820191906000526020600020905b81548152906001019060200180831161104857829003601f168201915b505050505081565b60075481565b600c60009054906101000a900473ffffffffffffffffffffffffffffffffffffffff1681565b60003490506000600c60009054906101000a900473ffffffffffffffffffffffffffffffffffffffff1673ffffffffffffffffffffffffffffffffffffffff166370a08231306040518263ffffffff1660e01b81526004016110fb9190611776565b602060405180830381865afa158015611118573d6000803e3d6000fd5b505050506040513d601f19601f8201168201806040525081019061113c9190611c7f565b905060008211611181576040517f08c379a000000000000000000000000000000000000000000000000000000000815260040161117890611eb0565b60405180910390fd5b80600454836111909190611dff565b11156111d1576040517f08c379a00000000000000000000000000000000000000000000000000000000081526004016111c890611f1c565b60405180910390fd5b600454826111df9190611dff565b601060008573ffffffffffffffffffffffffffffffffffffffff1673ffffffffffffffffffffffffffffffffffffffff168152602001908152602001600020600082825461122d9190611aab565b92505081905550505050565b600b5481565b60055481565b8280546112519061183a565b90600052602060002090601f01602090048101928261127357600085556112ba565b82601f1061128c57805160ff19168380011785556112ba565b828001600101855582156112ba579182015b828111156112b957825182559160200191906001019061129e565b5b5090506112c791906112cb565b5090565b5b808211156112e45760008160009055506001016112cc565b5090565b7f4e487b7100000000000000000000000000000000000000000000000000000000600052602160045260246000fd5b60078110611328576113276112e8565b5b50565b600081905061133982611317565b919050565b60006113498261132b565b9050919050565b6113598161133e565b82525050565b60006020820190506113746000830184611350565b92915050565b6000819050919050565b61138d8161137a565b82525050565b60006020820190506113a86000830184611384565b92915050565b600081519050919050565b600082825260208201905092915050565b60005b838110156113e85780820151818401526020810190506113cd565b838111156113f7576000848401525b50505050565b6000601f19601f8301169050919050565b6000611419826113ae565b61142381856113b9565b93506114338185602086016113ca565b61143c816113fd565b840191505092915050565b60006020820190508181036000830152611461818461140e565b905092915050565b6000604051905090565b600080fd5b600080fd5b6114868161137a565b811461149157600080fd5b50565b6000813590506114a38161147d565b92915050565b60008115159050919050565b6114be816114a9565b81146114c957600080fd5b50565b6000813590506114db816114b5565b92915050565b600080fd5b600080fd5b7f4e487b7100000000000000000000000000000000000000000000000000000000600052604160045260246000fd5b611523826113fd565b810181811067ffffffffffffffff82111715611542576115416114eb565b5b80604052505050565b6000611555611469565b9050611561828261151a565b919050565b600067ffffffffffffffff821115611581576115806114eb565b5b61158a826113fd565b9050602081019050919050565b82818337600083830152505050565b60006115b96115b484611566565b61154b565b9050828152602081018484840111156115d5576115d46114e6565b5b6115e0848285611597565b509392505050565b600082601f8301126115fd576115fc6114e1565b5b813561160d8482602086016115a6565b91505092915050565b60008060006060848603121561162f5761162e611473565b5b600061163d86828701611494565b935050602061164e868287016114cc565b925050604084013567ffffffffffffffff81111561166f5761166e611478565b5b61167b868287016115e8565b9150509250925092565b60006020828403121561169b5761169a611473565b5b60006116a984828501611494565b91505092915050565b6116bb816114a9565b82525050565b60006020820190506116d660008301846116b2565b92915050565b600073ffffffffffffffffffffffffffffffffffffffff82169050919050565b6000611707826116dc565b9050919050565b611717816116fc565b811461172257600080fd5b50565b6000813590506117348161170e565b92915050565b6000602082840312156117505761174f611473565b5b600061175e84828501611725565b91505092915050565b611770816116fc565b82525050565b600060208201905061178b6000830184611767565b92915050565b6000819050919050565b60006117b66117b16117ac846116dc565b611791565b6116dc565b9050919050565b60006117c88261179b565b9050919050565b60006117da826117bd565b9050919050565b6117ea816117cf565b82525050565b600060208201905061180560008301846117e1565b92915050565b7f4e487b7100000000000000000000000000000000000000000000000000000000600052602260045260246000fd5b6000600282049050600182168061185257607f821691505b602082108114156118665761186561180b565b5b50919050565b7f5468652076657374696e6720706572696f64206e6565647320746f206265206160008201527f74206c6561737420333020646179730000000000000000000000000000000000602082015250565b60006118c8602f836113b9565b91506118d38261186c565b604082019050919050565b600060208201905081810360008301526118f7816118bb565b9050919050565b7f5468652076657374696e6720706572696f64206e6565647320746f206265206160008201527f7420736d616c6c6572207468616e203336352064617973000000000000000000602082015250565b600061195a6037836113b9565b9150611965826118fe565b604082019050919050565b600060208201905081810360008301526119898161194d565b9050919050565b7f596f752063616e2774206368616e6765207468652076657374696e6720616e7960008201527f6d6f726521000000000000000000000000000000000000000000000000000000602082015250565b60006119ec6025836113b9565b91506119f782611990565b604082019050919050565b60006020820190508181036000830152611a1b816119df565b9050919050565b7f4e487b7100000000000000000000000000000000000000000000000000000000600052601160045260246000fd5b6000611a5c8261137a565b9150611a678361137a565b9250817fffffffffffffffffffffffffffffffffffffffffffffffffffffffffffffffff0483118215151615611aa057611a9f611a22565b5b828202905092915050565b6000611ab68261137a565b9150611ac18361137a565b9250827fffffffffffffffffffffffffffffffffffffffffffffffffffffffffffffffff03821115611af657611af5611a22565b5b828201905092915050565b7f43616d706169676e206e6f7420617070726f7665640000000000000000000000600082015250565b6000611b376015836113b9565b9150611b4282611b01565b602082019050919050565b60006020820190508181036000830152611b6681611b2a565b9050919050565b7f5468657265206973206e6f20746f6b656e7320617661696c61626c6520746f2060008201527f77697468647261772066726f6d20746869732061646472657373000000000000602082015250565b6000611bc9603a836113b9565b9150611bd482611b6d565b604082019050919050565b60006020820190508181036000830152611bf881611bbc565b9050919050565b6000604082019050611c146000830185611767565b611c216020830184611384565b9392505050565b600081519050611c37816114b5565b92915050565b600060208284031215611c5357611c52611473565b5b6000611c6184828501611c28565b91505092915050565b600081519050611c798161147d565b92915050565b600060208284031215611c9557611c94611473565b5b6000611ca384828501611c6a565b91505092915050565b7f596f752063616e2774206368616e67652074686520746f6b656e206f6666657260008201527f2100000000000000000000000000000000000000000000000000000000000000602082015250565b6000611d086021836113b9565b9150611d1382611cac565b604082019050919050565b60006020820190508181036000830152611d3781611cfb565b9050919050565b7f596f752063616e2774206f66666572206c657373207468616e206f6e6520746f60008201527f6b656e2100000000000000000000000000000000000000000000000000000000602082015250565b6000611d9a6024836113b9565b9150611da582611d3e565b604082019050919050565b60006020820190508181036000830152611dc981611d8d565b9050919050565b7f4e487b7100000000000000000000000000000000000000000000000000000000600052601260045260246000fd5b6000611e0a8261137a565b9150611e158361137a565b925082611e2557611e24611dd0565b5b828204905092915050565b6000611e3b8261137a565b9150611e468361137a565b925082821015611e5957611e58611a22565b5b828203905092915050565b7f596f75206e65656420746f2073656e6420736f6d652065746865720000000000600082015250565b6000611e9a601b836113b9565b9150611ea582611e64565b602082019050919050565b60006020820190508181036000830152611ec981611e8d565b9050919050565b7f4e6f7420656e6f75676820746f6b656e7320696e207468652072657365727665600082015250565b6000611f066020836113b9565b9150611f1182611ed0565b602082019050919050565b60006020820190508181036000830152611f3581611ef9565b905091905056fea2646970667358221220a7b048e3db827ce16b6f1aee017ceaf4fdf759724935fdac4346f2017868ecd364736f6c634300080a0033",
  "immutableReferences": {},
  "source": "//SPDX-License-Identifier: UNLICENSED\r\npragma solidity ^0.8.0;\r\n\r\nimport \"@openzeppelin/contracts/token/ERC20/IERC20.sol\";\r\nimport \"@openzeppelin/contracts/token/ERC20/ERC20.sol\";\r\n\r\ncontract LowFeeCampaign {\r\n\r\n    string public _title;\r\n    string public _descriptionUrl;\r\n    string public _logoUrl;\r\n    string public _auditUrl;\r\n    uint256 public _coinRate;\r\n    uint256 public _goal;\r\n    uint256 public _startDate;\r\n    uint256 public _endDate;\r\n    uint256 public _score;\r\n\r\n    enum CampaignStatus { WAITING_VESTING_SETUP, WAITING_TOKEN_TRANSFER, WAITING_REVIEW_REQUEST, REVIEW_IN_PROGRESS, APPROVED, DENIED, SHUTDOWN }\r\n\r\n    CampaignStatus public _status;\r\n\r\n    string public _reviewNote;\r\n\r\n    uint256 public _offerSupply;\r\n\r\n    IERC20 public _token;\r\n\r\n    //Vesting\r\n    uint256 public _endVestingDate;\r\n\r\n    address public _owner;\r\n    address private _zeroFeeAddress = 0x74fDA6B5e26ccC53f50a5cb841c877A875B8B570;\r\n\r\n    modifier onlyOwner {\r\n        require(address(msg.sender) == _owner);\r\n        _;\r\n    }\r\n    modifier onlyLowFee {\r\n        require(address(msg.sender) == _zeroFeeAddress);\r\n        _;\r\n    }\r\n\r\n    mapping (address => uint256) private _balances;\r\n\r\n    constructor(string memory title, string memory descriptionUrl, string memory logoUrl, string memory auditUrl, uint256 coinRate, uint256 goal, uint256 startDate, uint256 endDate, address owner, IERC20 token) {\r\n        require(bytes(title).length > 0, \"Title is required!\");\r\n        require(bytes(logoUrl).length > 0, \"Logo Url is required!\");\r\n        require(bytes(descriptionUrl).length > 0, \"Description url is required!\");\r\n        require(coinRate >= 1, \"Coin Rate is required!\");\r\n        require(goal > 0, \"Goal is required!\");\r\n        require(startDate > 0, \"Start Date is required!\");\r\n        require(endDate > startDate, \"Start Date needs to be bigger than end date!\");\r\n        _title = title;\r\n        _descriptionUrl = descriptionUrl;\r\n        _logoUrl = logoUrl;\r\n        _auditUrl = auditUrl;\r\n        _coinRate = coinRate;\r\n        _goal = goal;\r\n        _startDate = startDate;\r\n        _endDate = endDate;\r\n        _owner = owner;\r\n        _token = token;\r\n        _status = CampaignStatus.WAITING_VESTING_SETUP;\r\n    }\r\n\r\n    function setupVesting(uint256 periodInDays) onlyOwner public {\r\n        require(periodInDays >= 30, \"The vesting period needs to be at least 30 days\");\r\n        require(periodInDays <= 365, \"The vesting period needs to be at smaller than 365 days\");\r\n        require(_status == CampaignStatus.WAITING_VESTING_SETUP, \"You can't change the vesting anymore!\");\r\n        _endVestingDate = _endDate + (periodInDays*86400000);\r\n        _status = CampaignStatus.WAITING_TOKEN_TRANSFER;\r\n    }\r\n\r\n    function checkTokens() onlyOwner public {\r\n        uint256 amount = _token.balanceOf(address(this));\r\n        require(_status == CampaignStatus.WAITING_TOKEN_TRANSFER, \"You can't change the token offer!\");\r\n        require(amount >= (10**18), \"You can't offer less than one token!\");\r\n        uint256 publicOffer = amount-(amount*5/1000);\r\n        uint256 fee = amount*5/1000;\r\n\r\n        _token.transfer(_zeroFeeAddress, fee);\r\n\r\n        _offerSupply += publicOffer;\r\n\r\n        _status = CampaignStatus.WAITING_REVIEW_REQUEST;\r\n    }\r\n\r\n    function submitToReview() onlyOwner public {\r\n        _status = CampaignStatus.REVIEW_IN_PROGRESS;\r\n    }\r\n\r\n    function review(uint score, bool approved, string memory reviewNote) onlyLowFee public {\r\n        _score = score;\r\n        if(approved){\r\n            _status = CampaignStatus.APPROVED;\r\n        }else{\r\n            _status = CampaignStatus.DENIED;\r\n        }\r\n        _reviewNote = reviewNote;\r\n    }\r\n\r\n    function buy(address buyer) payable external {\r\n        uint256 amountToBuy = msg.value;\r\n        uint256 dexBalance = _token.balanceOf(address(this));\r\n        require(amountToBuy > 0, \"You need to send some ether\");\r\n        require((amountToBuy/_coinRate) <= dexBalance, \"Not enough tokens in the reserve\");\r\n        _balances[buyer] += amountToBuy/_coinRate;\r\n    }\r\n\r\n    function balanceOf(address account) external view returns (uint256) {\r\n        return _balances[account];\r\n    }\r\n\r\n    function claimTokens() external returns (bool) {\r\n        require(_status == CampaignStatus.APPROVED, \"Campaign not approved\");\r\n        require(_balances[address(msg.sender)] > 0, \"There is no tokens available to withdraw from this address\");\r\n        //require(_endVestingDate > block.timestamp, \"Locked by vesting\"); TODO\r\n        uint amount = _balances[address(msg.sender)];\r\n        _balances[address(msg.sender)] = 0;\r\n        _token.transfer(address(msg.sender), amount);\r\n\r\n        return true;\r\n    }\r\n}",
  "sourcePath": "D:\\Projetos\\zeroFee\\Platform\\contracts\\LowFeeCampaign.sol",
  "compiler": {
    "name": "solc",
    "version": "0.8.10+commit.fc410830.Emscripten.clang"
  },
  "schemaVersion": "3.4.3",
  "updatedAt": "2021-12-07T22:17:19.087Z",
  "devdoc": {
    "kind": "dev",
    "methods": {},
    "version": 1
  },
  "userdoc": {
    "kind": "user",
    "methods": {},
    "version": 1
  }
}