{
  "contractName": "LowFee",
  "abi": [
    {
      "inputs": [
        {
          "internalType": "address",
          "name": "",
          "type": "address"
        },
        {
          "internalType": "uint256",
          "name": "",
          "type": "uint256"
        }
      ],
      "name": "_campaigns",
      "outputs": [
        {
          "internalType": "contract LowFeeCampaign",
          "name": "",
          "type": "address"
        }
      ],
      "stateMutability": "view",
      "type": "function",
      "constant": true
    },
    {
      "inputs": [
        {
          "internalType": "address",
          "name": "",
          "type": "address"
        },
        {
          "internalType": "uint256",
          "name": "",
          "type": "uint256"
        }
      ],
      "name": "_launchedTokens",
      "outputs": [
        {
          "internalType": "contract LFToken",
          "name": "",
          "type": "address"
        }
      ],
      "stateMutability": "view",
      "type": "function",
      "constant": true
    },
    {
      "inputs": [
        {
          "internalType": "uint256",
          "name": "",
          "type": "uint256"
        }
      ],
      "name": "campaigns",
      "outputs": [
        {
          "internalType": "contract LowFeeCampaign",
          "name": "",
          "type": "address"
        }
      ],
      "stateMutability": "view",
      "type": "function",
      "constant": true
    },
    {
      "inputs": [
        {
          "internalType": "uint256",
          "name": "",
          "type": "uint256"
        }
      ],
      "name": "launchedTokens",
      "outputs": [
        {
          "internalType": "contract LFToken",
          "name": "",
          "type": "address"
        }
      ],
      "stateMutability": "view",
      "type": "function",
      "constant": true
    },
    {
      "inputs": [
        {
          "internalType": "string",
          "name": "name",
          "type": "string"
        },
        {
          "internalType": "string",
          "name": "symbol",
          "type": "string"
        },
        {
          "internalType": "uint256",
          "name": "initialSupply",
          "type": "uint256"
        },
        {
          "internalType": "uint256",
          "name": "decimals",
          "type": "uint256"
        }
      ],
      "name": "buyNewToken",
      "outputs": [],
      "stateMutability": "payable",
      "type": "function",
      "payable": true
    },
    {
      "inputs": [],
      "name": "getMyLaunchedTokensLength",
      "outputs": [
        {
          "internalType": "uint256",
          "name": "",
          "type": "uint256"
        }
      ],
      "stateMutability": "view",
      "type": "function",
      "constant": true
    },
    {
      "inputs": [
        {
          "internalType": "uint256",
          "name": "index",
          "type": "uint256"
        }
      ],
      "name": "getMyLaunchedToken",
      "outputs": [
        {
          "internalType": "contract LFToken",
          "name": "",
          "type": "address"
        }
      ],
      "stateMutability": "view",
      "type": "function",
      "constant": true
    },
    {
      "inputs": [
        {
          "internalType": "string",
          "name": "title",
          "type": "string"
        },
        {
          "internalType": "string",
          "name": "descriptionUrl",
          "type": "string"
        },
        {
          "internalType": "string",
          "name": "logoUrl",
          "type": "string"
        },
        {
          "internalType": "string",
          "name": "auditUrl",
          "type": "string"
        },
        {
          "internalType": "uint256",
          "name": "coinRate",
          "type": "uint256"
        },
        {
          "internalType": "uint256",
          "name": "goal",
          "type": "uint256"
        },
        {
          "internalType": "uint256",
          "name": "startDate",
          "type": "uint256"
        },
        {
          "internalType": "uint256",
          "name": "endDate",
          "type": "uint256"
        },
        {
          "internalType": "contract IERC20",
          "name": "token",
          "type": "address"
        }
      ],
      "name": "launchNewCampaign",
      "outputs": [],
      "stateMutability": "payable",
      "type": "function",
      "payable": true
    },
    {
      "inputs": [],
      "name": "getMyCampaignsLength",
      "outputs": [
        {
          "internalType": "uint256",
          "name": "",
          "type": "uint256"
        }
      ],
      "stateMutability": "view",
      "type": "function",
      "constant": true
    },
    {
      "inputs": [
        {
          "internalType": "uint256",
          "name": "index",
          "type": "uint256"
        }
      ],
      "name": "getMyCampaign",
      "outputs": [
        {
          "internalType": "contract LowFeeCampaign",
          "name": "",
          "type": "address"
        }
      ],
      "stateMutability": "view",
      "type": "function",
      "constant": true
    },
    {
      "inputs": [],
      "name": "withdrawAll",
      "outputs": [],
      "stateMutability": "payable",
      "type": "function",
      "payable": true
    },
    {
      "inputs": [
        {
          "internalType": "uint256",
          "name": "newFee",
          "type": "uint256"
        }
      ],
      "name": "changeFee",
      "outputs": [],
      "stateMutability": "nonpayable",
      "type": "function"
    }
  ],
  "bytecode": "0x60806040527374fda6b5e26ccc53f50a5cb841c877a875b8b5706000806101000a81548173ffffffffffffffffffffffffffffffffffffffff021916908373ffffffffffffffffffffffffffffffffffffffff16021790555067016345785d8a000060015534801561007057600080fd5b50615d56806100806000396000f3fe608060405260043610620000b65760003560e01c80636a1db1bf116200006d5780636a1db1bf1462000207578063853828b61462000235578063aee2a82e1462000241578063b7681c1f1462000285578063c9da087314620002c9578063db4bf9ae146200030d57620000b6565b806310f2b14114620000bb578063141961bc14620000ff578063160c37ab14620001435780631abb73a414620001875780634f24b34b14620001a75780635b04022414620001d7575b600080fd5b348015620000c857600080fd5b50620000e76004803603810190620000e1919062000ad8565b6200032d565b604051620000f6919062000b95565b60405180910390f35b3480156200010c57600080fd5b506200012b600480360381019062000125919062000ad8565b6200036d565b6040516200013a919062000bd7565b60405180910390f35b3480156200015057600080fd5b506200016f600480360381019062000169919062000c39565b620003ad565b6040516200017e919062000b95565b60405180910390f35b620001a560048036038101906200019f919062000e27565b620003fc565b005b348015620001b457600080fd5b50620001bf620005a8565b604051620001ce919062000f93565b60405180910390f35b348015620001e457600080fd5b50620001ef620005f2565b604051620001fe919062000f93565b60405180910390f35b3480156200021457600080fd5b506200023360048036038101906200022d919062000ad8565b6200063c565b005b6200023f6200069f565b005b3480156200024e57600080fd5b506200026d600480360381019062000267919062000ad8565b62000750565b6040516200027c919062000b95565b60405180910390f35b3480156200029257600080fd5b50620002b16004803603810190620002ab919062000ad8565b620007d8565b604051620002c0919062000bd7565b60405180910390f35b348015620002d657600080fd5b50620002f56004803603810190620002ef919062000c39565b62000860565b60405162000304919062000bd7565b60405180910390f35b6200032b600480360381019062000325919062000fb0565b620008af565b005b600381815481106200033e57600080fd5b906000526020600020016000915054906101000a900473ffffffffffffffffffffffffffffffffffffffff1681565b600581815481106200037e57600080fd5b906000526020600020016000915054906101000a900473ffffffffffffffffffffffffffffffffffffffff1681565b60026020528160005260406000208181548110620003ca57600080fd5b906000526020600020016000915091509054906101000a900473ffffffffffffffffffffffffffffffffffffffff1681565b67016345785d8a00003410156200044a576040517f08c379a00000000000000000000000000000000000000000000000000000000081526004016200044190620010e7565b60405180910390fd5b60008989898989898989338a604051620004649062000a6d565b620004799a99989796959493929190620011c1565b604051809103906000f08015801562000496573d6000803e3d6000fd5b509050600460003373ffffffffffffffffffffffffffffffffffffffff1673ffffffffffffffffffffffffffffffffffffffff168152602001908152602001600020819080600181540180825580915050600190039060005260206000200160009091909190916101000a81548173ffffffffffffffffffffffffffffffffffffffff021916908373ffffffffffffffffffffffffffffffffffffffff1602179055506005819080600181540180825580915050600190039060005260206000200160009091909190916101000a81548173ffffffffffffffffffffffffffffffffffffffff021916908373ffffffffffffffffffffffffffffffffffffffff16021790555050505050505050505050565b6000600260003373ffffffffffffffffffffffffffffffffffffffff1673ffffffffffffffffffffffffffffffffffffffff16815260200190815260200160002080549050905090565b6000600460003373ffffffffffffffffffffffffffffffffffffffff1673ffffffffffffffffffffffffffffffffffffffff16815260200190815260200160002080549050905090565b60008054906101000a900473ffffffffffffffffffffffffffffffffffffffff1673ffffffffffffffffffffffffffffffffffffffff163373ffffffffffffffffffffffffffffffffffffffff16146200069557600080fd5b8060018190555050565b60008054906101000a900473ffffffffffffffffffffffffffffffffffffffff1673ffffffffffffffffffffffffffffffffffffffff163373ffffffffffffffffffffffffffffffffffffffff1614620006f857600080fd5b3373ffffffffffffffffffffffffffffffffffffffff166108fc3073ffffffffffffffffffffffffffffffffffffffff16319081150290604051600060405180830381858888f193505050506200074e57600080fd5b565b6000600260003373ffffffffffffffffffffffffffffffffffffffff1673ffffffffffffffffffffffffffffffffffffffff1681526020019081526020016000208281548110620007a657620007a56200128d565b5b9060005260206000200160009054906101000a900473ffffffffffffffffffffffffffffffffffffffff169050919050565b6000600460003373ffffffffffffffffffffffffffffffffffffffff1673ffffffffffffffffffffffffffffffffffffffff16815260200190815260200160002082815481106200082e576200082d6200128d565b5b9060005260206000200160009054906101000a900473ffffffffffffffffffffffffffffffffffffffff169050919050565b600460205281600052604060002081815481106200087d57600080fd5b906000526020600020016000915091509054906101000a900473ffffffffffffffffffffffffffffffffffffffff1681565b600154341015600154604051602001620008ca919062001362565b604051602081830303815290604052906200091d576040517f08c379a00000000000000000000000000000000000000000000000000000000081526004016200091491906200138c565b60405180910390fd5b5060008484848433604051620009339062000a7b565b62000943959493929190620013b0565b604051809103906000f08015801562000960573d6000803e3d6000fd5b509050600260003373ffffffffffffffffffffffffffffffffffffffff1673ffffffffffffffffffffffffffffffffffffffff168152602001908152602001600020819080600181540180825580915050600190039060005260206000200160009091909190916101000a81548173ffffffffffffffffffffffffffffffffffffffff021916908373ffffffffffffffffffffffffffffffffffffffff1602179055506003819080600181540180825580915050600190039060005260206000200160009091909190916101000a81548173ffffffffffffffffffffffffffffffffffffffff021916908373ffffffffffffffffffffffffffffffffffffffff1602179055505050505050565b612bc8806200141c83390190565b611d3d8062003fe483390190565b6000604051905090565b600080fd5b600080fd5b6000819050919050565b62000ab28162000a9d565b811462000abe57600080fd5b50565b60008135905062000ad28162000aa7565b92915050565b60006020828403121562000af15762000af062000a93565b5b600062000b018482850162000ac1565b91505092915050565b600073ffffffffffffffffffffffffffffffffffffffff82169050919050565b6000819050919050565b600062000b5562000b4f62000b498462000b0a565b62000b2a565b62000b0a565b9050919050565b600062000b698262000b34565b9050919050565b600062000b7d8262000b5c565b9050919050565b62000b8f8162000b70565b82525050565b600060208201905062000bac600083018462000b84565b92915050565b600062000bbf8262000b5c565b9050919050565b62000bd18162000bb2565b82525050565b600060208201905062000bee600083018462000bc6565b92915050565b600062000c018262000b0a565b9050919050565b62000c138162000bf4565b811462000c1f57600080fd5b50565b60008135905062000c338162000c08565b92915050565b6000806040838503121562000c535762000c5262000a93565b5b600062000c638582860162000c22565b925050602062000c768582860162000ac1565b9150509250929050565b600080fd5b600080fd5b6000601f19601f8301169050919050565b7f4e487b7100000000000000000000000000000000000000000000000000000000600052604160045260246000fd5b62000cd58262000c8a565b810181811067ffffffffffffffff8211171562000cf75762000cf662000c9b565b5b80604052505050565b600062000d0c62000a89565b905062000d1a828262000cca565b919050565b600067ffffffffffffffff82111562000d3d5762000d3c62000c9b565b5b62000d488262000c8a565b9050602081019050919050565b82818337600083830152505050565b600062000d7b62000d758462000d1f565b62000d00565b90508281526020810184848401111562000d9a5762000d9962000c85565b5b62000da784828562000d55565b509392505050565b600082601f83011262000dc75762000dc662000c80565b5b813562000dd984826020860162000d64565b91505092915050565b600062000def8262000bf4565b9050919050565b62000e018162000de2565b811462000e0d57600080fd5b50565b60008135905062000e218162000df6565b92915050565b60008060008060008060008060006101208a8c03121562000e4d5762000e4c62000a93565b5b60008a013567ffffffffffffffff81111562000e6e5762000e6d62000a98565b5b62000e7c8c828d0162000daf565b99505060208a013567ffffffffffffffff81111562000ea05762000e9f62000a98565b5b62000eae8c828d0162000daf565b98505060408a013567ffffffffffffffff81111562000ed25762000ed162000a98565b5b62000ee08c828d0162000daf565b97505060608a013567ffffffffffffffff81111562000f045762000f0362000a98565b5b62000f128c828d0162000daf565b965050608062000f258c828d0162000ac1565b95505060a062000f388c828d0162000ac1565b94505060c062000f4b8c828d0162000ac1565b93505060e062000f5e8c828d0162000ac1565b92505061010062000f728c828d0162000e10565b9150509295985092959850929598565b62000f8d8162000a9d565b82525050565b600060208201905062000faa600083018462000f82565b92915050565b6000806000806080858703121562000fcd5762000fcc62000a93565b5b600085013567ffffffffffffffff81111562000fee5762000fed62000a98565b5b62000ffc8782880162000daf565b945050602085013567ffffffffffffffff81111562001020576200101f62000a98565b5b6200102e8782880162000daf565b9350506040620010418782880162000ac1565b9250506060620010548782880162000ac1565b91505092959194509250565b600082825260208201905092915050565b7f596f75206e65656420746f20656e7465722074686520707269636520666f722060008201527f6372656174696e672074686520636f6e74726163742100000000000000000000602082015250565b6000620010cf60368362001060565b9150620010dc8262001071565b604082019050919050565b600060208201905081810360008301526200110281620010c0565b9050919050565b600081519050919050565b60005b838110156200113457808201518184015260208101905062001117565b8381111562001144576000848401525b50505050565b6000620011578262001109565b62001163818562001060565b93506200117581856020860162001114565b620011808162000c8a565b840191505092915050565b620011968162000bf4565b82525050565b6000620011a98262000b5c565b9050919050565b620011bb816200119c565b82525050565b6000610140820190508181036000830152620011de818d6200114a565b90508181036020830152620011f4818c6200114a565b905081810360408301526200120a818b6200114a565b9050818103606083015262001220818a6200114a565b905062001231608083018962000f82565b6200124060a083018862000f82565b6200124f60c083018762000f82565b6200125e60e083018662000f82565b6200126e6101008301856200118b565b6200127e610120830184620011b0565b9b9a5050505050505050505050565b7f4e487b7100000000000000000000000000000000000000000000000000000000600052603260045260246000fd5b600081905092915050565b7f54686520707269636520666f72206372656174696e672061206e657720746f6b60008201527f656e206973200000000000000000000000000000000000000000000000000000602082015250565b600062001325602683620012bc565b91506200133282620012c7565b602682019050919050565b6000819050919050565b6200135c620013568262000a9d565b6200133d565b82525050565b60006200136f8262001316565b91506200137d828462001347565b60208201915081905092915050565b60006020820190508181036000830152620013a881846200114a565b905092915050565b600060a0820190508181036000830152620013cc81886200114a565b90508181036020830152620013e281876200114a565b9050620013f3604083018662000f82565b62001402606083018562000f82565b6200141160808301846200118b565b969550505050505056fe60806040527374fda6b5e26ccc53f50a5cb841c877a875b8b570600f60006101000a81548173ffffffffffffffffffffffffffffffffffffffff021916908373ffffffffffffffffffffffffffffffffffffffff1602179055503480156200006657600080fd5b5060405162002bc838038062002bc883398181016040528101906200008c9190620006eb565b60008a5111620000d3576040517f08c379a0000000000000000000000000000000000000000000000000000000008152600401620000ca90620008be565b60405180910390fd5b60008851116200011a576040517f08c379a0000000000000000000000000000000000000000000000000000000008152600401620001119062000930565b60405180910390fd5b600089511162000161576040517f08c379a00000000000000000000000000000000000000000000000000000000081526004016200015890620009a2565b60405180910390fd5b6001861015620001a8576040517f08c379a00000000000000000000000000000000000000000000000000000000081526004016200019f9062000a14565b60405180910390fd5b60008511620001ee576040517f08c379a0000000000000000000000000000000000000000000000000000000008152600401620001e59062000a86565b60405180910390fd5b6000841162000234576040517f08c379a00000000000000000000000000000000000000000000000000000000081526004016200022b9062000af8565b60405180910390fd5b83831162000279576040517f08c379a0000000000000000000000000000000000000000000000000000000008152600401620002709062000b90565b60405180910390fd5b896000908051906020019062000291929190620003b9565b508860019080519060200190620002aa929190620003b9565b508760029080519060200190620002c3929190620003b9565b508660039080519060200190620002dc929190620003b9565b508560048190555084600581905550836006819055508260078190555081600e60006101000a81548173ffffffffffffffffffffffffffffffffffffffff021916908373ffffffffffffffffffffffffffffffffffffffff16021790555080600c60006101000a81548173ffffffffffffffffffffffffffffffffffffffff021916908373ffffffffffffffffffffffffffffffffffffffff1602179055506000600960006101000a81548160ff02191690836006811115620003a457620003a362000bb2565b5b02179055505050505050505050505062000c46565b828054620003c79062000c10565b90600052602060002090601f016020900481019282620003eb576000855562000437565b82601f106200040657805160ff191683800117855562000437565b8280016001018555821562000437579182015b828111156200043657825182559160200191906001019062000419565b5b5090506200044691906200044a565b5090565b5b80821115620004655760008160009055506001016200044b565b5090565b6000604051905090565b600080fd5b600080fd5b600080fd5b600080fd5b6000601f19601f8301169050919050565b7f4e487b7100000000000000000000000000000000000000000000000000000000600052604160045260246000fd5b620004d28262000487565b810181811067ffffffffffffffff82111715620004f457620004f362000498565b5b80604052505050565b60006200050962000469565b9050620005178282620004c7565b919050565b600067ffffffffffffffff8211156200053a576200053962000498565b5b620005458262000487565b9050602081019050919050565b60005b838110156200057257808201518184015260208101905062000555565b8381111562000582576000848401525b50505050565b60006200059f62000599846200051c565b620004fd565b905082815260208101848484011115620005be57620005bd62000482565b5b620005cb84828562000552565b509392505050565b600082601f830112620005eb57620005ea6200047d565b5b8151620005fd84826020860162000588565b91505092915050565b6000819050919050565b6200061b8162000606565b81146200062757600080fd5b50565b6000815190506200063b8162000610565b92915050565b600073ffffffffffffffffffffffffffffffffffffffff82169050919050565b60006200066e8262000641565b9050919050565b620006808162000661565b81146200068c57600080fd5b50565b600081519050620006a08162000675565b92915050565b6000620006b38262000661565b9050919050565b620006c581620006a6565b8114620006d157600080fd5b50565b600081519050620006e581620006ba565b92915050565b6000806000806000806000806000806101408b8d03121562000712576200071162000473565b5b60008b015167ffffffffffffffff81111562000733576200073262000478565b5b620007418d828e01620005d3565b9a505060208b015167ffffffffffffffff81111562000765576200076462000478565b5b620007738d828e01620005d3565b99505060408b015167ffffffffffffffff81111562000797576200079662000478565b5b620007a58d828e01620005d3565b98505060608b015167ffffffffffffffff811115620007c957620007c862000478565b5b620007d78d828e01620005d3565b9750506080620007ea8d828e016200062a565b96505060a0620007fd8d828e016200062a565b95505060c0620008108d828e016200062a565b94505060e0620008238d828e016200062a565b935050610100620008378d828e016200068f565b9250506101206200084b8d828e01620006d4565b9150509295989b9194979a5092959850565b600082825260208201905092915050565b7f5469746c65206973207265717569726564210000000000000000000000000000600082015250565b6000620008a66012836200085d565b9150620008b3826200086e565b602082019050919050565b60006020820190508181036000830152620008d98162000897565b9050919050565b7f4c6f676f2055726c206973207265717569726564210000000000000000000000600082015250565b6000620009186015836200085d565b91506200092582620008e0565b602082019050919050565b600060208201905081810360008301526200094b8162000909565b9050919050565b7f4465736372697074696f6e2075726c2069732072657175697265642100000000600082015250565b60006200098a601c836200085d565b9150620009978262000952565b602082019050919050565b60006020820190508181036000830152620009bd816200097b565b9050919050565b7f436f696e20526174652069732072657175697265642100000000000000000000600082015250565b6000620009fc6016836200085d565b915062000a0982620009c4565b602082019050919050565b6000602082019050818103600083015262000a2f81620009ed565b9050919050565b7f476f616c20697320726571756972656421000000000000000000000000000000600082015250565b600062000a6e6011836200085d565b915062000a7b8262000a36565b602082019050919050565b6000602082019050818103600083015262000aa18162000a5f565b9050919050565b7f5374617274204461746520697320726571756972656421000000000000000000600082015250565b600062000ae06017836200085d565b915062000aed8262000aa8565b602082019050919050565b6000602082019050818103600083015262000b138162000ad1565b9050919050565b7f53746172742044617465206e6565647320746f2062652062696767657220746860008201527f616e20656e642064617465210000000000000000000000000000000000000000602082015250565b600062000b78602c836200085d565b915062000b858262000b1a565b604082019050919050565b6000602082019050818103600083015262000bab8162000b69565b9050919050565b7f4e487b7100000000000000000000000000000000000000000000000000000000600052602160045260246000fd5b7f4e487b7100000000000000000000000000000000000000000000000000000000600052602260045260246000fd5b6000600282049050600182168062000c2957607f821691505b6020821081141562000c405762000c3f62000be1565b5b50919050565b611f728062000c566000396000f3fe6080604052600436106101355760003560e01c80638b2c9dd4116100ab578063d1b26f9f1161006f578063d1b26f9f146103d0578063dbfa5863146103fb578063ecd0c0c314610426578063f088d54714610451578063f0a2194d1461046d578063fba939f81461049857610135565b80638b2c9dd4146102f9578063a01eda8f14610324578063a4fcfaa81461034f578063ac8daba01461037a578063b2bdfa7b146103a557610135565b80633dd4160e116100fd5780633dd4160e146101fb57806348c54b9d146102245780634b18017b1461024f5780635a66f41a1461027a57806370a08231146102a5578063771c21f0146102e257610135565b80630fb3844c1461013a5780631ce301dc146101655780632653667e1461019057806330358f42146101a75780633ce677bb146101d2575b600080fd5b34801561014657600080fd5b5061014f6104c3565b60405161015c919061135f565b60405180910390f35b34801561017157600080fd5b5061017a6104d6565b6040516101879190611393565b60405180910390f35b34801561019c57600080fd5b506101a56104dc565b005b3480156101b357600080fd5b506101bc610563565b6040516101c99190611447565b60405180910390f35b3480156101de57600080fd5b506101f960048036038101906101f49190611616565b6105f1565b005b34801561020757600080fd5b50610222600480360381019061021d9190611685565b6106d0565b005b34801561023057600080fd5b5061023961087a565b60405161024691906116c1565b60405180910390f35b34801561025b57600080fd5b50610264610aa6565b6040516102719190611447565b60405180910390f35b34801561028657600080fd5b5061028f610b34565b60405161029c9190611447565b60405180910390f35b3480156102b157600080fd5b506102cc60048036038101906102c7919061173a565b610bc2565b6040516102d99190611393565b60405180910390f35b3480156102ee57600080fd5b506102f7610c0b565b005b34801561030557600080fd5b5061030e610f19565b60405161031b9190611447565b60405180910390f35b34801561033057600080fd5b50610339610fa7565b6040516103469190611393565b60405180910390f35b34801561035b57600080fd5b50610364610fad565b6040516103719190611393565b60405180910390f35b34801561038657600080fd5b5061038f610fb3565b60405161039c9190611393565b60405180910390f35b3480156103b157600080fd5b506103ba610fb9565b6040516103c79190611776565b60405180910390f35b3480156103dc57600080fd5b506103e5610fdf565b6040516103f29190611447565b60405180910390f35b34801561040757600080fd5b5061041061106d565b60405161041d9190611393565b60405180910390f35b34801561043257600080fd5b5061043b611073565b60405161044891906117f0565b60405180910390f35b61046b6004803603810190610466919061173a565b611099565b005b34801561047957600080fd5b50610482611239565b60405161048f9190611393565b60405180910390f35b3480156104a457600080fd5b506104ad61123f565b6040516104ba9190611393565b60405180910390f35b600960009054906101000a900460ff1681565b60045481565b600e60009054906101000a900473ffffffffffffffffffffffffffffffffffffffff1673ffffffffffffffffffffffffffffffffffffffff163373ffffffffffffffffffffffffffffffffffffffff161461053657600080fd5b6003600960006101000a81548160ff0219169083600681111561055c5761055b6112e8565b5b0217905550565b600280546105709061183a565b80601f016020809104026020016040519081016040528092919081815260200182805461059c9061183a565b80156105e95780601f106105be576101008083540402835291602001916105e9565b820191906000526020600020905b8154815290600101906020018083116105cc57829003601f168201915b505050505081565b600f60009054906101000a900473ffffffffffffffffffffffffffffffffffffffff1673ffffffffffffffffffffffffffffffffffffffff163373ffffffffffffffffffffffffffffffffffffffff161461064b57600080fd5b826008819055508115610688576004600960006101000a81548160ff0219169083600681111561067e5761067d6112e8565b5b02179055506106b4565b6005600960006101000a81548160ff021916908360068111156106ae576106ad6112e8565b5b02179055505b80600a90805190602001906106ca929190611245565b50505050565b600e60009054906101000a900473ffffffffffffffffffffffffffffffffffffffff1673ffffffffffffffffffffffffffffffffffffffff163373ffffffffffffffffffffffffffffffffffffffff161461072a57600080fd5b601e81101561076e576040517f08c379a0000000000000000000000000000000000000000000000000000000008152600401610765906118de565b60405180910390fd5b61016d8111156107b3576040517f08c379a00000000000000000000000000000000000000000000000000000000081526004016107aa90611970565b60405180910390fd5b600060068111156107c7576107c66112e8565b5b600960009054906101000a900460ff1660068111156107e9576107e86112e8565b5b14610829576040517f08c379a000000000000000000000000000000000000000000000000000000000815260040161082090611a02565b60405180910390fd5b6305265c00816108399190611a51565b6007546108469190611aab565b600d819055506001600960006101000a81548160ff02191690836006811115610872576108716112e8565b5b021790555050565b6000600460068111156108905761088f6112e8565b5b600960009054906101000a900460ff1660068111156108b2576108b16112e8565b5b146108f2576040517f08c379a00000000000000000000000000000000000000000000000000000000081526004016108e990611b4d565b60405180910390fd5b6000601060003373ffffffffffffffffffffffffffffffffffffffff1673ffffffffffffffffffffffffffffffffffffffff1681526020019081526020016000205411610974576040517f08c379a000000000000000000000000000000000000000000000000000000000815260040161096b90611bdf565b60405180910390fd5b6000601060003373ffffffffffffffffffffffffffffffffffffffff1673ffffffffffffffffffffffffffffffffffffffff1681526020019081526020016000205490506000601060003373ffffffffffffffffffffffffffffffffffffffff1673ffffffffffffffffffffffffffffffffffffffff16815260200190815260200160002081905550600c60009054906101000a900473ffffffffffffffffffffffffffffffffffffffff1673ffffffffffffffffffffffffffffffffffffffff1663a9059cbb33836040518363ffffffff1660e01b8152600401610a5a929190611bff565b6020604051808303816000875af1158015610a79573d6000803e3d6000fd5b505050506040513d601f19601f82011682018060405250810190610a9d9190611c3d565b50600191505090565b60038054610ab39061183a565b80601f0160208091040260200160405190810160405280929190818152602001828054610adf9061183a565b8015610b2c5780601f10610b0157610100808354040283529160200191610b2c565b820191906000526020600020905b815481529060010190602001808311610b0f57829003601f168201915b505050505081565b600a8054610b419061183a565b80601f0160208091040260200160405190810160405280929190818152602001828054610b6d9061183a565b8015610bba5780601f10610b8f57610100808354040283529160200191610bba565b820191906000526020600020905b815481529060010190602001808311610b9d57829003601f168201915b505050505081565b6000601060008373ffffffffffffffffffffffffffffffffffffffff1673ffffffffffffffffffffffffffffffffffffffff168152602001908152602001600020549050919050565b600e60009054906101000a900473ffffffffffffffffffffffffffffffffffffffff1673ffffffffffffffffffffffffffffffffffffffff163373ffffffffffffffffffffffffffffffffffffffff1614610c6557600080fd5b6000600c60009054906101000a900473ffffffffffffffffffffffffffffffffffffffff1673ffffffffffffffffffffffffffffffffffffffff166370a08231306040518263ffffffff1660e01b8152600401610cc29190611776565b602060405180830381865afa158015610cdf573d6000803e3d6000fd5b505050506040513d601f19601f82011682018060405250810190610d039190611c7f565b905060016006811115610d1957610d186112e8565b5b600960009054906101000a900460ff166006811115610d3b57610d3a6112e8565b5b14610d7b576040517f08c379a0000000000000000000000000000000000000000000000000000000008152600401610d7290611d1e565b60405180910390fd5b670de0b6b3a7640000811015610dc6576040517f08c379a0000000000000000000000000000000000000000000000000000000008152600401610dbd90611db0565b60405180910390fd5b60006103e8600583610dd89190611a51565b610de29190611dff565b82610ded9190611e30565b905060006103e8600584610e019190611a51565b610e0b9190611dff565b9050600c60009054906101000a900473ffffffffffffffffffffffffffffffffffffffff1673ffffffffffffffffffffffffffffffffffffffff1663a9059cbb600f60009054906101000a900473ffffffffffffffffffffffffffffffffffffffff16836040518363ffffffff1660e01b8152600401610e8c929190611bff565b6020604051808303816000875af1158015610eab573d6000803e3d6000fd5b505050506040513d601f19601f82011682018060405250810190610ecf9190611c3d565b5081600b6000828254610ee29190611aab565b925050819055506002600960006101000a81548160ff02191690836006811115610f0f57610f0e6112e8565b5b0217905550505050565b60018054610f269061183a565b80601f0160208091040260200160405190810160405280929190818152602001828054610f529061183a565b8015610f9f5780601f10610f7457610100808354040283529160200191610f9f565b820191906000526020600020905b815481529060010190602001808311610f8257829003601f168201915b505050505081565b60085481565b600d5481565b60065481565b600e60009054906101000a900473ffffffffffffffffffffffffffffffffffffffff1681565b60008054610fec9061183a565b80601f01602080910402602001604051908101604052809291908181526020018280546110189061183a565b80156110655780601f1061103a57610100808354040283529160200191611065565b820191906000526020600020905b81548152906001019060200180831161104857829003601f168201915b505050505081565b60075481565b600c60009054906101000a900473ffffffffffffffffffffffffffffffffffffffff1681565b60003490506000600c60009054906101000a900473ffffffffffffffffffffffffffffffffffffffff1673ffffffffffffffffffffffffffffffffffffffff166370a08231306040518263ffffffff1660e01b81526004016110fb9190611776565b602060405180830381865afa158015611118573d6000803e3d6000fd5b505050506040513d601f19601f8201168201806040525081019061113c9190611c7f565b905060008211611181576040517f08c379a000000000000000000000000000000000000000000000000000000000815260040161117890611eb0565b60405180910390fd5b80600454836111909190611dff565b11156111d1576040517f08c379a00000000000000000000000000000000000000000000000000000000081526004016111c890611f1c565b60405180910390fd5b600454826111df9190611dff565b601060008573ffffffffffffffffffffffffffffffffffffffff1673ffffffffffffffffffffffffffffffffffffffff168152602001908152602001600020600082825461122d9190611aab565b92505081905550505050565b600b5481565b60055481565b8280546112519061183a565b90600052602060002090601f01602090048101928261127357600085556112ba565b82601f1061128c57805160ff19168380011785556112ba565b828001600101855582156112ba579182015b828111156112b957825182559160200191906001019061129e565b5b5090506112c791906112cb565b5090565b5b808211156112e45760008160009055506001016112cc565b5090565b7f4e487b7100000000000000000000000000000000000000000000000000000000600052602160045260246000fd5b60078110611328576113276112e8565b5b50565b600081905061133982611317565b919050565b60006113498261132b565b9050919050565b6113598161133e565b82525050565b60006020820190506113746000830184611350565b92915050565b6000819050919050565b61138d8161137a565b82525050565b60006020820190506113a86000830184611384565b92915050565b600081519050919050565b600082825260208201905092915050565b60005b838110156113e85780820151818401526020810190506113cd565b838111156113f7576000848401525b50505050565b6000601f19601f8301169050919050565b6000611419826113ae565b61142381856113b9565b93506114338185602086016113ca565b61143c816113fd565b840191505092915050565b60006020820190508181036000830152611461818461140e565b905092915050565b6000604051905090565b600080fd5b600080fd5b6114868161137a565b811461149157600080fd5b50565b6000813590506114a38161147d565b92915050565b60008115159050919050565b6114be816114a9565b81146114c957600080fd5b50565b6000813590506114db816114b5565b92915050565b600080fd5b600080fd5b7f4e487b7100000000000000000000000000000000000000000000000000000000600052604160045260246000fd5b611523826113fd565b810181811067ffffffffffffffff82111715611542576115416114eb565b5b80604052505050565b6000611555611469565b9050611561828261151a565b919050565b600067ffffffffffffffff821115611581576115806114eb565b5b61158a826113fd565b9050602081019050919050565b82818337600083830152505050565b60006115b96115b484611566565b61154b565b9050828152602081018484840111156115d5576115d46114e6565b5b6115e0848285611597565b509392505050565b600082601f8301126115fd576115fc6114e1565b5b813561160d8482602086016115a6565b91505092915050565b60008060006060848603121561162f5761162e611473565b5b600061163d86828701611494565b935050602061164e868287016114cc565b925050604084013567ffffffffffffffff81111561166f5761166e611478565b5b61167b868287016115e8565b9150509250925092565b60006020828403121561169b5761169a611473565b5b60006116a984828501611494565b91505092915050565b6116bb816114a9565b82525050565b60006020820190506116d660008301846116b2565b92915050565b600073ffffffffffffffffffffffffffffffffffffffff82169050919050565b6000611707826116dc565b9050919050565b611717816116fc565b811461172257600080fd5b50565b6000813590506117348161170e565b92915050565b6000602082840312156117505761174f611473565b5b600061175e84828501611725565b91505092915050565b611770816116fc565b82525050565b600060208201905061178b6000830184611767565b92915050565b6000819050919050565b60006117b66117b16117ac846116dc565b611791565b6116dc565b9050919050565b60006117c88261179b565b9050919050565b60006117da826117bd565b9050919050565b6117ea816117cf565b82525050565b600060208201905061180560008301846117e1565b92915050565b7f4e487b7100000000000000000000000000000000000000000000000000000000600052602260045260246000fd5b6000600282049050600182168061185257607f821691505b602082108114156118665761186561180b565b5b50919050565b7f5468652076657374696e6720706572696f64206e6565647320746f206265206160008201527f74206c6561737420333020646179730000000000000000000000000000000000602082015250565b60006118c8602f836113b9565b91506118d38261186c565b604082019050919050565b600060208201905081810360008301526118f7816118bb565b9050919050565b7f5468652076657374696e6720706572696f64206e6565647320746f206265206160008201527f7420736d616c6c6572207468616e203336352064617973000000000000000000602082015250565b600061195a6037836113b9565b9150611965826118fe565b604082019050919050565b600060208201905081810360008301526119898161194d565b9050919050565b7f596f752063616e2774206368616e6765207468652076657374696e6720616e7960008201527f6d6f726521000000000000000000000000000000000000000000000000000000602082015250565b60006119ec6025836113b9565b91506119f782611990565b604082019050919050565b60006020820190508181036000830152611a1b816119df565b9050919050565b7f4e487b7100000000000000000000000000000000000000000000000000000000600052601160045260246000fd5b6000611a5c8261137a565b9150611a678361137a565b9250817fffffffffffffffffffffffffffffffffffffffffffffffffffffffffffffffff0483118215151615611aa057611a9f611a22565b5b828202905092915050565b6000611ab68261137a565b9150611ac18361137a565b9250827fffffffffffffffffffffffffffffffffffffffffffffffffffffffffffffffff03821115611af657611af5611a22565b5b828201905092915050565b7f43616d706169676e206e6f7420617070726f7665640000000000000000000000600082015250565b6000611b376015836113b9565b9150611b4282611b01565b602082019050919050565b60006020820190508181036000830152611b6681611b2a565b9050919050565b7f5468657265206973206e6f20746f6b656e7320617661696c61626c6520746f2060008201527f77697468647261772066726f6d20746869732061646472657373000000000000602082015250565b6000611bc9603a836113b9565b9150611bd482611b6d565b604082019050919050565b60006020820190508181036000830152611bf881611bbc565b9050919050565b6000604082019050611c146000830185611767565b611c216020830184611384565b9392505050565b600081519050611c37816114b5565b92915050565b600060208284031215611c5357611c52611473565b5b6000611c6184828501611c28565b91505092915050565b600081519050611c798161147d565b92915050565b600060208284031215611c9557611c94611473565b5b6000611ca384828501611c6a565b91505092915050565b7f596f752063616e2774206368616e67652074686520746f6b656e206f6666657260008201527f2100000000000000000000000000000000000000000000000000000000000000602082015250565b6000611d086021836113b9565b9150611d1382611cac565b604082019050919050565b60006020820190508181036000830152611d3781611cfb565b9050919050565b7f596f752063616e2774206f66666572206c657373207468616e206f6e6520746f60008201527f6b656e2100000000000000000000000000000000000000000000000000000000602082015250565b6000611d9a6024836113b9565b9150611da582611d3e565b604082019050919050565b60006020820190508181036000830152611dc981611d8d565b9050919050565b7f4e487b7100000000000000000000000000000000000000000000000000000000600052601260045260246000fd5b6000611e0a8261137a565b9150611e158361137a565b925082611e2557611e24611dd0565b5b828204905092915050565b6000611e3b8261137a565b9150611e468361137a565b925082821015611e5957611e58611a22565b5b828203905092915050565b7f596f75206e65656420746f2073656e6420736f6d652065746865720000000000600082015250565b6000611e9a601b836113b9565b9150611ea582611e64565b602082019050919050565b60006020820190508181036000830152611ec981611e8d565b9050919050565b7f4e6f7420656e6f75676820746f6b656e7320696e207468652072657365727665600082015250565b6000611f066020836113b9565b9150611f1182611ed0565b602082019050919050565b60006020820190508181036000830152611f3581611ef9565b905091905056fea2646970667358221220a7b048e3db827ce16b6f1aee017ceaf4fdf759724935fdac4346f2017868ecd364736f6c634300080a003360806040523480156200001157600080fd5b5060405162001d3d38038062001d3d833981810160405281019062000037919062000515565b848481600390805190602001906200005192919062000228565b5080600490805190602001906200006a92919062000228565b5050506200009a8183600a6200008191906200075e565b856200008e9190620007af565b620000a560201b60201c565b505050505062000983565b600073ffffffffffffffffffffffffffffffffffffffff168273ffffffffffffffffffffffffffffffffffffffff16141562000118576040517f08c379a00000000000000000000000000000000000000000000000000000000081526004016200010f9062000871565b60405180910390fd5b6200012c600083836200021e60201b60201c565b806002600082825462000140919062000893565b92505081905550806000808473ffffffffffffffffffffffffffffffffffffffff1673ffffffffffffffffffffffffffffffffffffffff168152602001908152602001600020600082825462000197919062000893565b925050819055508173ffffffffffffffffffffffffffffffffffffffff16600073ffffffffffffffffffffffffffffffffffffffff167fddf252ad1be2c89b69c2b068fc378daa952ba7f163c4a11628f55a4df523b3ef83604051620001fe919062000901565b60405180910390a36200021a600083836200022360201b60201c565b5050565b505050565b505050565b82805462000236906200094d565b90600052602060002090601f0160209004810192826200025a5760008555620002a6565b82601f106200027557805160ff1916838001178555620002a6565b82800160010185558215620002a6579182015b82811115620002a557825182559160200191906001019062000288565b5b509050620002b59190620002b9565b5090565b5b80821115620002d4576000816000905550600101620002ba565b5090565b6000604051905090565b600080fd5b600080fd5b600080fd5b600080fd5b6000601f19601f8301169050919050565b7f4e487b7100000000000000000000000000000000000000000000000000000000600052604160045260246000fd5b6200034182620002f6565b810181811067ffffffffffffffff8211171562000363576200036262000307565b5b80604052505050565b600062000378620002d8565b905062000386828262000336565b919050565b600067ffffffffffffffff821115620003a957620003a862000307565b5b620003b482620002f6565b9050602081019050919050565b60005b83811015620003e1578082015181840152602081019050620003c4565b83811115620003f1576000848401525b50505050565b60006200040e62000408846200038b565b6200036c565b9050828152602081018484840111156200042d576200042c620002f1565b5b6200043a848285620003c1565b509392505050565b600082601f8301126200045a5762000459620002ec565b5b81516200046c848260208601620003f7565b91505092915050565b6000819050919050565b6200048a8162000475565b81146200049657600080fd5b50565b600081519050620004aa816200047f565b92915050565b600073ffffffffffffffffffffffffffffffffffffffff82169050919050565b6000620004dd82620004b0565b9050919050565b620004ef81620004d0565b8114620004fb57600080fd5b50565b6000815190506200050f81620004e4565b92915050565b600080600080600060a08688031215620005345762000533620002e2565b5b600086015167ffffffffffffffff811115620005555762000554620002e7565b5b620005638882890162000442565b955050602086015167ffffffffffffffff811115620005875762000586620002e7565b5b620005958882890162000442565b9450506040620005a88882890162000499565b9350506060620005bb8882890162000499565b9250506080620005ce88828901620004fe565b9150509295509295909350565b7f4e487b7100000000000000000000000000000000000000000000000000000000600052601160045260246000fd5b60008160011c9050919050565b6000808291508390505b60018511156200066957808604811115620006415762000640620005db565b5b6001851615620006515780820291505b808102905062000661856200060a565b945062000621565b94509492505050565b60008262000684576001905062000757565b8162000694576000905062000757565b8160018114620006ad5760028114620006b857620006ee565b600191505062000757565b60ff841115620006cd57620006cc620005db565b5b8360020a915084821115620006e757620006e6620005db565b5b5062000757565b5060208310610133831016604e8410600b8410161715620007285782820a905083811115620007225762000721620005db565b5b62000757565b62000737848484600162000617565b92509050818404811115620007515762000750620005db565b5b81810290505b9392505050565b60006200076b8262000475565b9150620007788362000475565b9250620007a77fffffffffffffffffffffffffffffffffffffffffffffffffffffffffffffffff848462000672565b905092915050565b6000620007bc8262000475565b9150620007c98362000475565b9250817fffffffffffffffffffffffffffffffffffffffffffffffffffffffffffffffff0483118215151615620008055762000804620005db565b5b828202905092915050565b600082825260208201905092915050565b7f45524332303a206d696e7420746f20746865207a65726f206164647265737300600082015250565b600062000859601f8362000810565b9150620008668262000821565b602082019050919050565b600060208201905081810360008301526200088c816200084a565b9050919050565b6000620008a08262000475565b9150620008ad8362000475565b9250827fffffffffffffffffffffffffffffffffffffffffffffffffffffffffffffffff03821115620008e557620008e4620005db565b5b828201905092915050565b620008fb8162000475565b82525050565b6000602082019050620009186000830184620008f0565b92915050565b7f4e487b7100000000000000000000000000000000000000000000000000000000600052602260045260246000fd5b600060028204905060018216806200096657607f821691505b602082108114156200097d576200097c6200091e565b5b50919050565b6113aa80620009936000396000f3fe608060405234801561001057600080fd5b50600436106100a95760003560e01c80633950935111610071578063395093511461016857806370a082311461019857806395d89b41146101c8578063a457c2d7146101e6578063a9059cbb14610216578063dd62ed3e14610246576100a9565b806306fdde03146100ae578063095ea7b3146100cc57806318160ddd146100fc57806323b872dd1461011a578063313ce5671461014a575b600080fd5b6100b6610276565b6040516100c39190610c3e565b60405180910390f35b6100e660048036038101906100e19190610cf9565b610308565b6040516100f39190610d54565b60405180910390f35b610104610326565b6040516101119190610d7e565b60405180910390f35b610134600480360381019061012f9190610d99565b610330565b6040516101419190610d54565b60405180910390f35b610152610428565b60405161015f9190610e08565b60405180910390f35b610182600480360381019061017d9190610cf9565b610431565b60405161018f9190610d54565b60405180910390f35b6101b260048036038101906101ad9190610e23565b6104dd565b6040516101bf9190610d7e565b60405180910390f35b6101d0610525565b6040516101dd9190610c3e565b60405180910390f35b61020060048036038101906101fb9190610cf9565b6105b7565b60405161020d9190610d54565b60405180910390f35b610230600480360381019061022b9190610cf9565b6106a2565b60405161023d9190610d54565b60405180910390f35b610260600480360381019061025b9190610e50565b6106c0565b60405161026d9190610d7e565b60405180910390f35b60606003805461028590610ebf565b80601f01602080910402602001604051908101604052809291908181526020018280546102b190610ebf565b80156102fe5780601f106102d3576101008083540402835291602001916102fe565b820191906000526020600020905b8154815290600101906020018083116102e157829003601f168201915b5050505050905090565b600061031c610315610747565b848461074f565b6001905092915050565b6000600254905090565b600061033d84848461091a565b6000600160008673ffffffffffffffffffffffffffffffffffffffff1673ffffffffffffffffffffffffffffffffffffffff1681526020019081526020016000206000610388610747565b73ffffffffffffffffffffffffffffffffffffffff1673ffffffffffffffffffffffffffffffffffffffff16815260200190815260200160002054905082811015610408576040517f08c379a00000000000000000000000000000000000000000000000000000000081526004016103ff90610f63565b60405180910390fd5b61041c85610414610747565b85840361074f565b60019150509392505050565b60006012905090565b60006104d361043e610747565b84846001600061044c610747565b73ffffffffffffffffffffffffffffffffffffffff1673ffffffffffffffffffffffffffffffffffffffff16815260200190815260200160002060008873ffffffffffffffffffffffffffffffffffffffff1673ffffffffffffffffffffffffffffffffffffffff168152602001908152602001600020546104ce9190610fb2565b61074f565b6001905092915050565b60008060008373ffffffffffffffffffffffffffffffffffffffff1673ffffffffffffffffffffffffffffffffffffffff168152602001908152602001600020549050919050565b60606004805461053490610ebf565b80601f016020809104026020016040519081016040528092919081815260200182805461056090610ebf565b80156105ad5780601f10610582576101008083540402835291602001916105ad565b820191906000526020600020905b81548152906001019060200180831161059057829003601f168201915b5050505050905090565b600080600160006105c6610747565b73ffffffffffffffffffffffffffffffffffffffff1673ffffffffffffffffffffffffffffffffffffffff16815260200190815260200160002060008573ffffffffffffffffffffffffffffffffffffffff1673ffffffffffffffffffffffffffffffffffffffff16815260200190815260200160002054905082811015610683576040517f08c379a000000000000000000000000000000000000000000000000000000000815260040161067a9061107a565b60405180910390fd5b61069761068e610747565b8585840361074f565b600191505092915050565b60006106b66106af610747565b848461091a565b6001905092915050565b6000600160008473ffffffffffffffffffffffffffffffffffffffff1673ffffffffffffffffffffffffffffffffffffffff16815260200190815260200160002060008373ffffffffffffffffffffffffffffffffffffffff1673ffffffffffffffffffffffffffffffffffffffff16815260200190815260200160002054905092915050565b600033905090565b600073ffffffffffffffffffffffffffffffffffffffff168373ffffffffffffffffffffffffffffffffffffffff1614156107bf576040517f08c379a00000000000000000000000000000000000000000000000000000000081526004016107b69061110c565b60405180910390fd5b600073ffffffffffffffffffffffffffffffffffffffff168273ffffffffffffffffffffffffffffffffffffffff16141561082f576040517f08c379a00000000000000000000000000000000000000000000000000000000081526004016108269061119e565b60405180910390fd5b80600160008573ffffffffffffffffffffffffffffffffffffffff1673ffffffffffffffffffffffffffffffffffffffff16815260200190815260200160002060008473ffffffffffffffffffffffffffffffffffffffff1673ffffffffffffffffffffffffffffffffffffffff168152602001908152602001600020819055508173ffffffffffffffffffffffffffffffffffffffff168373ffffffffffffffffffffffffffffffffffffffff167f8c5be1e5ebec7d5bd14f71427d1e84f3dd0314c0f7b2291e5b200ac8c7c3b9258360405161090d9190610d7e565b60405180910390a3505050565b600073ffffffffffffffffffffffffffffffffffffffff168373ffffffffffffffffffffffffffffffffffffffff16141561098a576040517f08c379a000000000000000000000000000000000000000000000000000000000815260040161098190611230565b60405180910390fd5b600073ffffffffffffffffffffffffffffffffffffffff168273ffffffffffffffffffffffffffffffffffffffff1614156109fa576040517f08c379a00000000000000000000000000000000000000000000000000000000081526004016109f1906112c2565b60405180910390fd5b610a05838383610b9b565b60008060008573ffffffffffffffffffffffffffffffffffffffff1673ffffffffffffffffffffffffffffffffffffffff16815260200190815260200160002054905081811015610a8b576040517f08c379a0000000000000000000000000000000000000000000000000000000008152600401610a8290611354565b60405180910390fd5b8181036000808673ffffffffffffffffffffffffffffffffffffffff1673ffffffffffffffffffffffffffffffffffffffff16815260200190815260200160002081905550816000808573ffffffffffffffffffffffffffffffffffffffff1673ffffffffffffffffffffffffffffffffffffffff1681526020019081526020016000206000828254610b1e9190610fb2565b925050819055508273ffffffffffffffffffffffffffffffffffffffff168473ffffffffffffffffffffffffffffffffffffffff167fddf252ad1be2c89b69c2b068fc378daa952ba7f163c4a11628f55a4df523b3ef84604051610b829190610d7e565b60405180910390a3610b95848484610ba0565b50505050565b505050565b505050565b600081519050919050565b600082825260208201905092915050565b60005b83811015610bdf578082015181840152602081019050610bc4565b83811115610bee576000848401525b50505050565b6000601f19601f8301169050919050565b6000610c1082610ba5565b610c1a8185610bb0565b9350610c2a818560208601610bc1565b610c3381610bf4565b840191505092915050565b60006020820190508181036000830152610c588184610c05565b905092915050565b600080fd5b600073ffffffffffffffffffffffffffffffffffffffff82169050919050565b6000610c9082610c65565b9050919050565b610ca081610c85565b8114610cab57600080fd5b50565b600081359050610cbd81610c97565b92915050565b6000819050919050565b610cd681610cc3565b8114610ce157600080fd5b50565b600081359050610cf381610ccd565b92915050565b60008060408385031215610d1057610d0f610c60565b5b6000610d1e85828601610cae565b9250506020610d2f85828601610ce4565b9150509250929050565b60008115159050919050565b610d4e81610d39565b82525050565b6000602082019050610d696000830184610d45565b92915050565b610d7881610cc3565b82525050565b6000602082019050610d936000830184610d6f565b92915050565b600080600060608486031215610db257610db1610c60565b5b6000610dc086828701610cae565b9350506020610dd186828701610cae565b9250506040610de286828701610ce4565b9150509250925092565b600060ff82169050919050565b610e0281610dec565b82525050565b6000602082019050610e1d6000830184610df9565b92915050565b600060208284031215610e3957610e38610c60565b5b6000610e4784828501610cae565b91505092915050565b60008060408385031215610e6757610e66610c60565b5b6000610e7585828601610cae565b9250506020610e8685828601610cae565b9150509250929050565b7f4e487b7100000000000000000000000000000000000000000000000000000000600052602260045260246000fd5b60006002820490506001821680610ed757607f821691505b60208210811415610eeb57610eea610e90565b5b50919050565b7f45524332303a207472616e7366657220616d6f756e742065786365656473206160008201527f6c6c6f77616e6365000000000000000000000000000000000000000000000000602082015250565b6000610f4d602883610bb0565b9150610f5882610ef1565b604082019050919050565b60006020820190508181036000830152610f7c81610f40565b9050919050565b7f4e487b7100000000000000000000000000000000000000000000000000000000600052601160045260246000fd5b6000610fbd82610cc3565b9150610fc883610cc3565b9250827fffffffffffffffffffffffffffffffffffffffffffffffffffffffffffffffff03821115610ffd57610ffc610f83565b5b828201905092915050565b7f45524332303a2064656372656173656420616c6c6f77616e63652062656c6f7760008201527f207a65726f000000000000000000000000000000000000000000000000000000602082015250565b6000611064602583610bb0565b915061106f82611008565b604082019050919050565b6000602082019050818103600083015261109381611057565b9050919050565b7f45524332303a20617070726f76652066726f6d20746865207a65726f2061646460008201527f7265737300000000000000000000000000000000000000000000000000000000602082015250565b60006110f6602483610bb0565b91506111018261109a565b604082019050919050565b60006020820190508181036000830152611125816110e9565b9050919050565b7f45524332303a20617070726f766520746f20746865207a65726f20616464726560008201527f7373000000000000000000000000000000000000000000000000000000000000602082015250565b6000611188602283610bb0565b91506111938261112c565b604082019050919050565b600060208201905081810360008301526111b78161117b565b9050919050565b7f45524332303a207472616e736665722066726f6d20746865207a65726f20616460008201527f6472657373000000000000000000000000000000000000000000000000000000602082015250565b600061121a602583610bb0565b9150611225826111be565b604082019050919050565b600060208201905081810360008301526112498161120d565b9050919050565b7f45524332303a207472616e7366657220746f20746865207a65726f206164647260008201527f6573730000000000000000000000000000000000000000000000000000000000602082015250565b60006112ac602383610bb0565b91506112b782611250565b604082019050919050565b600060208201905081810360008301526112db8161129f565b9050919050565b7f45524332303a207472616e7366657220616d6f756e742065786365656473206260008201527f616c616e63650000000000000000000000000000000000000000000000000000602082015250565b600061133e602683610bb0565b9150611349826112e2565b604082019050919050565b6000602082019050818103600083015261136d81611331565b905091905056fea2646970667358221220be74f750fc08afa68dec46c1095671888547d9220cb3e6ab59b8beb5e33d5a8664736f6c634300080a0033a26469706673582212206002b2f287a1f209d6e6e617c7e3adb264559c20f60faece9511e25163a71f9b64736f6c634300080a0033",
  "immutableReferences": {},
  "source": "//SPDX-License-Identifier: UNLICENSED\r\npragma solidity ^0.8.0;\r\n\r\nimport \"@openzeppelin/contracts/token/ERC20/ERC20.sol\";\r\nimport \"./LFToken.sol\";\r\nimport \"./LowFeeCampaign.sol\";\r\n\r\n\r\ncontract LowFee {\r\n    address private entityOwner = 0x74fDA6B5e26ccC53f50a5cb841c877A875B8B570;\r\n    uint256 private _platformFee = 100000000000000000;\r\n\r\n    //Owner => Token\r\n    mapping(address => LFToken[]) public _launchedTokens;\r\n    LFToken[] public launchedTokens;\r\n\r\n    mapping(address => LowFeeCampaign[]) public _campaigns;\r\n    LowFeeCampaign[] public campaigns;\r\n\r\n    function buyNewToken(\r\n        string memory name,\r\n        string memory symbol,\r\n        uint256 initialSupply,\r\n        uint256 decimals\r\n    ) public payable {\r\n        require(msg.value >= _platformFee, string(abi.encodePacked(\"The price for creating a new token is \", _platformFee)));\r\n        LFToken lastCreatedToken = new LFToken(name, symbol, initialSupply, decimals, address(msg.sender));\r\n        _launchedTokens[address(msg.sender)].push(lastCreatedToken);\r\n        launchedTokens.push(lastCreatedToken);\r\n    }\r\n    function getMyLaunchedTokensLength() public view returns(uint){\r\n        return _launchedTokens[address(msg.sender)].length;\r\n    }\r\n    function getMyLaunchedToken(uint index) public view returns(LFToken){\r\n        return _launchedTokens[address(msg.sender)][index];\r\n    }\r\n\r\n    function launchNewCampaign(\r\n            string memory title,\r\n            string memory descriptionUrl,\r\n            string memory logoUrl,\r\n            string memory auditUrl,\r\n            uint256 coinRate,\r\n            uint256 goal,\r\n            uint256 startDate,\r\n            uint256 endDate,\r\n            IERC20 token\r\n    ) payable public {\r\n        require(msg.value >= 0.1 ether, \"You need to enter the price for creating the contract!\");\r\n        LowFeeCampaign zeroFeeCampaign = new LowFeeCampaign(title, descriptionUrl, logoUrl, auditUrl, coinRate, goal, startDate, endDate, address(msg.sender), token);\r\n        _campaigns[address(msg.sender)].push(zeroFeeCampaign);\r\n        campaigns.push(zeroFeeCampaign);\r\n    }\r\n\r\n    function getMyCampaignsLength() public view returns(uint){\r\n        return _campaigns[address(msg.sender)].length;\r\n    }\r\n\r\n    function getMyCampaign(uint index) public view returns(LowFeeCampaign){\r\n        return _campaigns[address(msg.sender)][index];\r\n    }\r\n\r\n    modifier onlyLowFee {\r\n        require(address(msg.sender) == entityOwner);\r\n        _;\r\n    }\r\n\r\n    function withdrawAll() payable onlyLowFee public {\r\n        require(payable(address(msg.sender)).send(payable(address(this)).balance));\r\n    }\r\n    function changeFee(uint256 newFee) onlyLowFee public {\r\n        _platformFee = newFee;\r\n    }\r\n}\r\n",
  "sourcePath": "D:\\Projetos\\zeroFee\\Platform\\contracts\\LowFee.sol",
  "compiler": {
    "name": "solc",
    "version": "0.8.10+commit.fc410830.Emscripten.clang"
  },
  "schemaVersion": "3.4.3",
  "updatedAt": "2021-12-07T22:17:32.976Z",
  "networkType": "ethereum",
  "devdoc": {
    "kind": "dev",
    "methods": {},
    "version": 1
  },
  "userdoc": {
    "kind": "user",
    "methods": {},
    "version": 1
  }
}